{"contracts/MediLedger.sol":{"Patient":{"abi":[{"inputs":[{"internalType":"string","name":"_name","type":"string"},{"internalType":"uint256","name":"_fid","type":"uint256"},{"internalType":"string","name":"_gender","type":"string"},{"internalType":"string","name":"_allergies","type":"string"},{"internalType":"uint256","name":"_height","type":"uint256"},{"internalType":"uint256","name":"_weight","type":"uint256"},{"internalType":"string","name":"_bloodgrp","type":"string"},{"internalType":"address","name":"_accounts","type":"address"},{"internalType":"address","name":"_admin","type":"address"},{"internalType":"address payable","name":"_walletid","type":"address"}],"stateMutability":"nonpayable","type":"constructor"},{"anonymous":false,"inputs":[{"indexed":false,"internalType":"uint256","name":"timestamp","type":"uint256"},{"indexed":false,"internalType":"string","name":"hash","type":"string"}],"name":"allBills","type":"event"},{"anonymous":false,"inputs":[{"indexed":false,"internalType":"uint256","name":"timestamp","type":"uint256"},{"indexed":false,"internalType":"uint256","name":"amount","type":"uint256"}],"name":"refunds","type":"event"},{"inputs":[],"name":"accounts","outputs":[{"internalType":"address","name":"","type":"address"}],"stateMutability":"view","type":"function"},{"inputs":[{"internalType":"string","name":"_hash","type":"string"},{"internalType":"uint256","name":"amount","type":"uint256"}],"name":"addBill","outputs":[],"stateMutability":"payable","type":"function"},{"inputs":[],"name":"admin","outputs":[{"internalType":"address","name":"","type":"address"}],"stateMutability":"view","type":"function"},{"inputs":[{"internalType":"uint256","name":"","type":"uint256"}],"name":"allDoctorsWallets","outputs":[{"internalType":"address","name":"","type":"address"}],"stateMutability":"view","type":"function"},{"inputs":[],"name":"allergies","outputs":[{"internalType":"string","name":"","type":"string"}],"stateMutability":"view","type":"function"},{"inputs":[],"name":"bloodgrp","outputs":[{"internalType":"string","name":"","type":"string"}],"stateMutability":"view","type":"function"},{"inputs":[],"name":"gender","outputs":[{"internalType":"string","name":"","type":"string"}],"stateMutability":"view","type":"function"},{"inputs":[],"name":"height","outputs":[{"internalType":"uint256","name":"","type":"uint256"}],"stateMutability":"view","type":"function"},{"inputs":[{"internalType":"address","name":"docadd","type":"address"}],"name":"isDoctor","outputs":[{"internalType":"bool","name":"","type":"bool"}],"stateMutability":"view","type":"function"},{"inputs":[],"name":"name","outputs":[{"internalType":"string","name":"","type":"string"}],"stateMutability":"view","type":"function"},{"inputs":[],"name":"passBill","outputs":[],"stateMutability":"payable","type":"function"},{"inputs":[{"internalType":"uint256","name":"","type":"uint256"}],"name":"passedBills","outputs":[{"internalType":"string","name":"","type":"string"}],"stateMutability":"view","type":"function"},{"inputs":[{"internalType":"uint256","name":"","type":"uint256"}],"name":"pendingBills","outputs":[{"internalType":"string","name":"","type":"string"}],"stateMutability":"view","type":"function"},{"inputs":[],"name":"pendingRefund","outputs":[{"internalType":"uint256","name":"","type":"uint256"}],"stateMutability":"view","type":"function"},{"inputs":[],"name":"pid","outputs":[{"internalType":"uint256","name":"","type":"uint256"}],"stateMutability":"view","type":"function"},{"inputs":[],"name":"walletid","outputs":[{"internalType":"address payable","name":"","type":"address"}],"stateMutability":"view","type":"function"},{"inputs":[],"name":"weight","outputs":[{"internalType":"uint256","name":"","type":"uint256"}],"stateMutability":"view","type":"function"}],"evm":{"bytecode":{"linkReferences":{},"object":"60806040523480156200001157600080fd5b5060405162001c6738038062001c6783398181016040528101906200003791906200061a565b89600090805190602001906200004f929190620002e8565b508860018190555087600290805190602001906200006f929190620002e8565b50866003908051906020019062000088929190620002e8565b5085600481905550846005819055508360069080519060200190620000af929190620002e8565b5082600b60006101000a81548173ffffffffffffffffffffffffffffffffffffffff021916908373ffffffffffffffffffffffffffffffffffffffff16021790555081600760006101000a81548173ffffffffffffffffffffffffffffffffffffffff021916908373ffffffffffffffffffffffffffffffffffffffff16021790555080600d60006101000a81548173ffffffffffffffffffffffffffffffffffffffff021916908373ffffffffffffffffffffffffffffffffffffffff160217905550600a730afd378421b04eb9dbf6dbd5ac59f48cf43c39129080600181540180825580915050600190039060005260206000200160009091909190916101000a81548173ffffffffffffffffffffffffffffffffffffffff021916908373ffffffffffffffffffffffffffffffffffffffff160217905550600a73c1497a7f53aaab192d5ff344887749cf9dce143c9080600181540180825580915050600190039060005260206000200160009091909190916101000a81548173ffffffffffffffffffffffffffffffffffffffff021916908373ffffffffffffffffffffffffffffffffffffffff160217905550600a7310237067d9a21ddb0381bf2f0bdeefab3020b29b9080600181540180825580915050600190039060005260206000200160009091909190916101000a81548173ffffffffffffffffffffffffffffffffffffffff021916908373ffffffffffffffffffffffffffffffffffffffff16021790555050505050505050505050620007f1565b828054620002f690620007bb565b90600052602060002090601f0160209004810192826200031a576000855562000366565b82601f106200033557805160ff191683800117855562000366565b8280016001018555821562000366579182015b828111156200036557825182559160200191906001019062000348565b5b50905062000375919062000379565b5090565b5b80821115620003945760008160009055506001016200037a565b5090565b6000604051905090565b600080fd5b600080fd5b600080fd5b600080fd5b6000601f19601f8301169050919050565b7f4e487b7100000000000000000000000000000000000000000000000000000000600052604160045260246000fd5b6200040182620003b6565b810181811067ffffffffffffffff82111715620004235762000422620003c7565b5b80604052505050565b60006200043862000398565b9050620004468282620003f6565b919050565b600067ffffffffffffffff821115620004695762000468620003c7565b5b6200047482620003b6565b9050602081019050919050565b60005b83811015620004a157808201518184015260208101905062000484565b83811115620004b1576000848401525b50505050565b6000620004ce620004c8846200044b565b6200042c565b905082815260208101848484011115620004ed57620004ec620003b1565b5b620004fa84828562000481565b509392505050565b600082601f8301126200051a5762000519620003ac565b5b81516200052c848260208601620004b7565b91505092915050565b6000819050919050565b6200054a8162000535565b81146200055657600080fd5b50565b6000815190506200056a816200053f565b92915050565b600073ffffffffffffffffffffffffffffffffffffffff82169050919050565b60006200059d8262000570565b9050919050565b620005af8162000590565b8114620005bb57600080fd5b50565b600081519050620005cf81620005a4565b92915050565b6000620005e28262000570565b9050919050565b620005f481620005d5565b81146200060057600080fd5b50565b6000815190506200061481620005e9565b92915050565b6000806000806000806000806000806101408b8d031215620006415762000640620003a2565b5b60008b015167ffffffffffffffff811115620006625762000661620003a7565b5b620006708d828e0162000502565b9a50506020620006838d828e0162000559565b99505060408b015167ffffffffffffffff811115620006a757620006a6620003a7565b5b620006b58d828e0162000502565b98505060608b015167ffffffffffffffff811115620006d957620006d8620003a7565b5b620006e78d828e0162000502565b9750506080620006fa8d828e0162000559565b96505060a06200070d8d828e0162000559565b95505060c08b015167ffffffffffffffff811115620007315762000730620003a7565b5b6200073f8d828e0162000502565b94505060e0620007528d828e01620005be565b935050610100620007668d828e01620005be565b9250506101206200077a8d828e0162000603565b9150509295989b9194979a5092959850565b7f4e487b7100000000000000000000000000000000000000000000000000000000600052602260045260246000fd5b60006002820490506001821680620007d457607f821691505b60208210811415620007eb57620007ea6200078c565b5b50919050565b61146680620008016000396000f3fe6080604052600436106100fe5760003560e01c8063996440c611610095578063e0e184be11610064578063e0e184be1461031c578063eb4f25fa14610338578063f106845414610375578063f851a440146103a0578063fbef7192146103cb576100fe565b8063996440c61461024c5780639d47801414610289578063a1aab33f146102c6578063d20f248d146102f1576100fe565b806368cd03f6116100d157806368cd03f6146101c157806379caad86146101ec5780638c2f1c8c1461021757806393452a4c14610221576100fe565b806306fdde0314610103578063090f610b1461012e5780630ef2674314610159578063369cb95914610184575b600080fd5b34801561010f57600080fd5b506101186103f6565b6040516101259190610e92565b60405180910390f35b34801561013a57600080fd5b50610143610484565b6040516101509190610ecd565b60405180910390f35b34801561016557600080fd5b5061016e61048a565b60405161017b9190610ecd565b60405180910390f35b34801561019057600080fd5b506101ab60048036038101906101a69190610f28565b610490565b6040516101b89190610e92565b60405180910390f35b3480156101cd57600080fd5b506101d661053c565b6040516101e39190610f96565b60405180910390f35b3480156101f857600080fd5b50610201610562565b60405161020e9190610e92565b60405180910390f35b61021f6105f0565b005b34801561022d57600080fd5b50610236610816565b6040516102439190610e92565b60405180910390f35b34801561025857600080fd5b50610273600480360381019061026e9190610fdd565b6108a4565b6040516102809190611025565b60405180910390f35b34801561029557600080fd5b506102b060048036038101906102ab9190610f28565b610953565b6040516102bd9190610f96565b60405180910390f35b3480156102d257600080fd5b506102db610992565b6040516102e89190610ecd565b60405180910390f35b3480156102fd57600080fd5b50610306610998565b6040516103139190610e92565b60405180910390f35b61033660048036038101906103319190611175565b610a26565b005b34801561034457600080fd5b5061035f600480360381019061035a9190610f28565b610b07565b60405161036c9190610e92565b60405180910390f35b34801561038157600080fd5b5061038a610bb3565b6040516103979190610ecd565b60405180910390f35b3480156103ac57600080fd5b506103b5610bb9565b6040516103c29190610f96565b60405180910390f35b3480156103d757600080fd5b506103e0610bdf565b6040516103ed91906111f2565b60405180910390f35b600080546104039061123c565b80601f016020809104026020016040519081016040528092919081815260200182805461042f9061123c565b801561047c5780601f106104515761010080835404028352916020019161047c565b820191906000526020600020905b81548152906001019060200180831161045f57829003601f168201915b505050505081565b600c5481565b60045481565b600981815481106104a057600080fd5b9060005260206000200160009150905080546104bb9061123c565b80601f01602080910402602001604051908101604052809291908181526020018280546104e79061123c565b80156105345780601f1061050957610100808354040283529160200191610534565b820191906000526020600020905b81548152906001019060200180831161051757829003601f168201915b505050505081565b600b60009054906101000a900473ffffffffffffffffffffffffffffffffffffffff1681565b6002805461056f9061123c565b80601f016020809104026020016040519081016040528092919081815260200182805461059b9061123c565b80156105e85780601f106105bd576101008083540402835291602001916105e8565b820191906000526020600020905b8154815290600101906020018083116105cb57829003601f168201915b505050505081565b600b60009054906101000a900473ffffffffffffffffffffffffffffffffffffffff1673ffffffffffffffffffffffffffffffffffffffff163373ffffffffffffffffffffffffffffffffffffffff1614610680576040517f08c379a0000000000000000000000000000000000000000000000000000000008152600401610677906112ba565b60405180910390fd5b600d60009054906101000a900473ffffffffffffffffffffffffffffffffffffffff1673ffffffffffffffffffffffffffffffffffffffff166108fc600c549081150290604051600060405180830381858888f193505050501580156106ea573d6000803e3d6000fd5b5060005b60088054905081101561076b57600960088281548110610711576107106112da565b5b906000526020600020019080600181540180825580915050600190039060005260206000200160009091909190915090805461074c9061123c565b610757929190610c05565b50808061076390611338565b9150506106ee565b50600067ffffffffffffffff8111156107875761078661104a565b5b6040519080825280602002602001820160405280156107ba57816020015b60608152602001906001900390816107a55790505b50600890805190602001906107d0929190610c92565b507f5812d1d1defe497f04e4435407750ca253b84ba856e9057292bc0d13dac5397542600c54604051610804929190611381565b60405180910390a16000600c81905550565b600380546108239061123c565b80601f016020809104026020016040519081016040528092919081815260200182805461084f9061123c565b801561089c5780601f106108715761010080835404028352916020019161089c565b820191906000526020600020905b81548152906001019060200180831161087f57829003601f168201915b505050505081565b600080600090505b600a80549050811015610948578273ffffffffffffffffffffffffffffffffffffffff16600a82815481106108e4576108e36112da565b5b9060005260206000200160009054906101000a900473ffffffffffffffffffffffffffffffffffffffff1673ffffffffffffffffffffffffffffffffffffffff16141561093557600191505061094e565b808061094090611338565b9150506108ac565b50600090505b919050565b600a818154811061096357600080fd5b906000526020600020016000915054906101000a900473ffffffffffffffffffffffffffffffffffffffff1681565b60055481565b600680546109a59061123c565b80601f01602080910402602001604051908101604052809291908181526020018280546109d19061123c565b8015610a1e5780601f106109f357610100808354040283529160200191610a1e565b820191906000526020600020905b815481529060010190602001808311610a0157829003601f168201915b505050505081565b60011515610a33336108a4565b151514610a75576040517f08c379a0000000000000000000000000000000000000000000000000000000008152600401610a6c906112ba565b60405180910390fd5b600882908060018154018082558091505060019003906000526020600020016000909190919091509080519060200190610ab0929190610cf2565b5080600c6000828254610ac391906113aa565b925050819055507f675016af78705a2591da6c28a48f2ca9468ce65f3711e50acbc799a1a9eb9d844283604051610afb929190611400565b60405180910390a15050565b60088181548110610b1757600080fd5b906000526020600020016000915090508054610b329061123c565b80601f0160208091040260200160405190810160405280929190818152602001828054610b5e9061123c565b8015610bab5780601f10610b8057610100808354040283529160200191610bab565b820191906000526020600020905b815481529060010190602001808311610b8e57829003601f168201915b505050505081565b60015481565b600760009054906101000a900473ffffffffffffffffffffffffffffffffffffffff1681565b600d60009054906101000a900473ffffffffffffffffffffffffffffffffffffffff1681565b828054610c119061123c565b90600052602060002090601f016020900481019282610c335760008555610c81565b82601f10610c445780548555610c81565b82800160010185558215610c8157600052602060002091601f016020900482015b82811115610c80578254825591600101919060010190610c65565b5b509050610c8e9190610d78565b5090565b828054828255906000526020600020908101928215610ce1579160200282015b82811115610ce0578251829080519060200190610cd0929190610cf2565b5091602001919060010190610cb2565b5b509050610cee9190610d95565b5090565b828054610cfe9061123c565b90600052602060002090601f016020900481019282610d205760008555610d67565b82601f10610d3957805160ff1916838001178555610d67565b82800160010185558215610d67579182015b82811115610d66578251825591602001919060010190610d4b565b5b509050610d749190610d78565b5090565b5b80821115610d91576000816000905550600101610d79565b5090565b5b80821115610db55760008181610dac9190610db9565b50600101610d96565b5090565b508054610dc59061123c565b6000825580601f10610dd75750610df6565b601f016020900490600052602060002090810190610df59190610d78565b5b50565b600081519050919050565b600082825260208201905092915050565b60005b83811015610e33578082015181840152602081019050610e18565b83811115610e42576000848401525b50505050565b6000601f19601f8301169050919050565b6000610e6482610df9565b610e6e8185610e04565b9350610e7e818560208601610e15565b610e8781610e48565b840191505092915050565b60006020820190508181036000830152610eac8184610e59565b905092915050565b6000819050919050565b610ec781610eb4565b82525050565b6000602082019050610ee26000830184610ebe565b92915050565b6000604051905090565b600080fd5b600080fd5b610f0581610eb4565b8114610f1057600080fd5b50565b600081359050610f2281610efc565b92915050565b600060208284031215610f3e57610f3d610ef2565b5b6000610f4c84828501610f13565b91505092915050565b600073ffffffffffffffffffffffffffffffffffffffff82169050919050565b6000610f8082610f55565b9050919050565b610f9081610f75565b82525050565b6000602082019050610fab6000830184610f87565b92915050565b610fba81610f75565b8114610fc557600080fd5b50565b600081359050610fd781610fb1565b92915050565b600060208284031215610ff357610ff2610ef2565b5b600061100184828501610fc8565b91505092915050565b60008115159050919050565b61101f8161100a565b82525050565b600060208201905061103a6000830184611016565b92915050565b600080fd5b600080fd5b7f4e487b7100000000000000000000000000000000000000000000000000000000600052604160045260246000fd5b61108282610e48565b810181811067ffffffffffffffff821117156110a1576110a061104a565b5b80604052505050565b60006110b4610ee8565b90506110c08282611079565b919050565b600067ffffffffffffffff8211156110e0576110df61104a565b5b6110e982610e48565b9050602081019050919050565b82818337600083830152505050565b6000611118611113846110c5565b6110aa565b90508281526020810184848401111561113457611133611045565b5b61113f8482856110f6565b509392505050565b600082601f83011261115c5761115b611040565b5b813561116c848260208601611105565b91505092915050565b6000806040838503121561118c5761118b610ef2565b5b600083013567ffffffffffffffff8111156111aa576111a9610ef7565b5b6111b685828601611147565b92505060206111c785828601610f13565b9150509250929050565b60006111dc82610f55565b9050919050565b6111ec816111d1565b82525050565b600060208201905061120760008301846111e3565b92915050565b7f4e487b7100000000000000000000000000000000000000000000000000000000600052602260045260246000fd5b6000600282049050600182168061125457607f821691505b602082108114156112685761126761120d565b5b50919050565b7f596f75277265206e6f7420617574686f72697a65640000000000000000000000600082015250565b60006112a4601583610e04565b91506112af8261126e565b602082019050919050565b600060208201905081810360008301526112d381611297565b9050919050565b7f4e487b7100000000000000000000000000000000000000000000000000000000600052603260045260246000fd5b7f4e487b7100000000000000000000000000000000000000000000000000000000600052601160045260246000fd5b600061134382610eb4565b91507fffffffffffffffffffffffffffffffffffffffffffffffffffffffffffffffff82141561137657611375611309565b5b600182019050919050565b60006040820190506113966000830185610ebe565b6113a36020830184610ebe565b9392505050565b60006113b582610eb4565b91506113c083610eb4565b9250827fffffffffffffffffffffffffffffffffffffffffffffffffffffffffffffffff038211156113f5576113f4611309565b5b828201905092915050565b60006040820190506114156000830185610ebe565b81810360208301526114278184610e59565b9050939250505056fea264697066735822122017370bd00f79eb2986210e2e0490329451af8148efef8a0c937761a733d9f3be64736f6c634300080a0033","opcodes":"PUSH1 0x80 PUSH1 0x40 MSTORE CALLVALUE DUP1 ISZERO PUSH3 0x11 JUMPI PUSH1 0x0 DUP1 REVERT JUMPDEST POP PUSH1 0x40 MLOAD PUSH3 0x1C67 CODESIZE SUB DUP1 PUSH3 0x1C67 DUP4 CODECOPY DUP2 DUP2 ADD PUSH1 0x40 MSTORE DUP2 ADD SWAP1 PUSH3 0x37 SWAP2 SWAP1 PUSH3 0x61A JUMP JUMPDEST DUP10 PUSH1 0x0 SWAP1 DUP1 MLOAD SWAP1 PUSH1 0x20 ADD SWAP1 PUSH3 0x4F SWAP3 SWAP2 SWAP1 PUSH3 0x2E8 JUMP JUMPDEST POP DUP9 PUSH1 0x1 DUP2 SWAP1 SSTORE POP DUP8 PUSH1 0x2 SWAP1 DUP1 MLOAD SWAP1 PUSH1 0x20 ADD SWAP1 PUSH3 0x6F SWAP3 SWAP2 SWAP1 PUSH3 0x2E8 JUMP JUMPDEST POP DUP7 PUSH1 0x3 SWAP1 DUP1 MLOAD SWAP1 PUSH1 0x20 ADD SWAP1 PUSH3 0x88 SWAP3 SWAP2 SWAP1 PUSH3 0x2E8 JUMP JUMPDEST POP DUP6 PUSH1 0x4 DUP2 SWAP1 SSTORE POP DUP5 PUSH1 0x5 DUP2 SWAP1 SSTORE POP DUP4 PUSH1 0x6 SWAP1 DUP1 MLOAD SWAP1 PUSH1 0x20 ADD SWAP1 PUSH3 0xAF SWAP3 SWAP2 SWAP1 PUSH3 0x2E8 JUMP JUMPDEST POP DUP3 PUSH1 0xB PUSH1 0x0 PUSH2 0x100 EXP DUP2 SLOAD DUP2 PUSH20 0xFFFFFFFFFFFFFFFFFFFFFFFFFFFFFFFFFFFFFFFF MUL NOT AND SWAP1 DUP4 PUSH20 0xFFFFFFFFFFFFFFFFFFFFFFFFFFFFFFFFFFFFFFFF AND MUL OR SWAP1 SSTORE POP DUP2 PUSH1 0x7 PUSH1 0x0 PUSH2 0x100 EXP DUP2 SLOAD DUP2 PUSH20 0xFFFFFFFFFFFFFFFFFFFFFFFFFFFFFFFFFFFFFFFF MUL NOT AND SWAP1 DUP4 PUSH20 0xFFFFFFFFFFFFFFFFFFFFFFFFFFFFFFFFFFFFFFFF AND MUL OR SWAP1 SSTORE POP DUP1 PUSH1 0xD PUSH1 0x0 PUSH2 0x100 EXP DUP2 SLOAD DUP2 PUSH20 0xFFFFFFFFFFFFFFFFFFFFFFFFFFFFFFFFFFFFFFFF MUL NOT AND SWAP1 DUP4 PUSH20 0xFFFFFFFFFFFFFFFFFFFFFFFFFFFFFFFFFFFFFFFF AND MUL OR SWAP1 SSTORE POP PUSH1 0xA PUSH20 0xAFD378421B04EB9DBF6DBD5AC59F48CF43C3912 SWAP1 DUP1 PUSH1 0x1 DUP2 SLOAD ADD DUP1 DUP3 SSTORE DUP1 SWAP2 POP POP PUSH1 0x1 SWAP1 SUB SWAP1 PUSH1 0x0 MSTORE PUSH1 0x20 PUSH1 0x0 KECCAK256 ADD PUSH1 0x0 SWAP1 SWAP2 SWAP1 SWAP2 SWAP1 SWAP2 PUSH2 0x100 EXP DUP2 SLOAD DUP2 PUSH20 0xFFFFFFFFFFFFFFFFFFFFFFFFFFFFFFFFFFFFFFFF MUL NOT AND SWAP1 DUP4 PUSH20 0xFFFFFFFFFFFFFFFFFFFFFFFFFFFFFFFFFFFFFFFF AND MUL OR SWAP1 SSTORE POP PUSH1 0xA PUSH20 0xC1497A7F53AAAB192D5FF344887749CF9DCE143C SWAP1 DUP1 PUSH1 0x1 DUP2 SLOAD ADD DUP1 DUP3 SSTORE DUP1 SWAP2 POP POP PUSH1 0x1 SWAP1 SUB SWAP1 PUSH1 0x0 MSTORE PUSH1 0x20 PUSH1 0x0 KECCAK256 ADD PUSH1 0x0 SWAP1 SWAP2 SWAP1 SWAP2 SWAP1 SWAP2 PUSH2 0x100 EXP DUP2 SLOAD DUP2 PUSH20 0xFFFFFFFFFFFFFFFFFFFFFFFFFFFFFFFFFFFFFFFF MUL NOT AND SWAP1 DUP4 PUSH20 0xFFFFFFFFFFFFFFFFFFFFFFFFFFFFFFFFFFFFFFFF AND MUL OR SWAP1 SSTORE POP PUSH1 0xA PUSH20 0x10237067D9A21DDB0381BF2F0BDEEFAB3020B29B SWAP1 DUP1 PUSH1 0x1 DUP2 SLOAD ADD DUP1 DUP3 SSTORE DUP1 SWAP2 POP POP PUSH1 0x1 SWAP1 SUB SWAP1 PUSH1 0x0 MSTORE PUSH1 0x20 PUSH1 0x0 KECCAK256 ADD PUSH1 0x0 SWAP1 SWAP2 SWAP1 SWAP2 SWAP1 SWAP2 PUSH2 0x100 EXP DUP2 SLOAD DUP2 PUSH20 0xFFFFFFFFFFFFFFFFFFFFFFFFFFFFFFFFFFFFFFFF MUL NOT AND SWAP1 DUP4 PUSH20 0xFFFFFFFFFFFFFFFFFFFFFFFFFFFFFFFFFFFFFFFF AND MUL OR SWAP1 SSTORE POP POP POP POP POP POP POP POP POP POP POP PUSH3 0x7F1 JUMP JUMPDEST DUP3 DUP1 SLOAD PUSH3 0x2F6 SWAP1 PUSH3 0x7BB JUMP JUMPDEST SWAP1 PUSH1 0x0 MSTORE PUSH1 0x20 PUSH1 0x0 KECCAK256 SWAP1 PUSH1 0x1F ADD PUSH1 0x20 SWAP1 DIV DUP2 ADD SWAP3 DUP3 PUSH3 0x31A JUMPI PUSH1 0x0 DUP6 SSTORE PUSH3 0x366 JUMP JUMPDEST DUP3 PUSH1 0x1F LT PUSH3 0x335 JUMPI DUP1 MLOAD PUSH1 0xFF NOT AND DUP4 DUP1 ADD OR DUP6 SSTORE PUSH3 0x366 JUMP JUMPDEST DUP3 DUP1 ADD PUSH1 0x1 ADD DUP6 SSTORE DUP3 ISZERO PUSH3 0x366 JUMPI SWAP2 DUP3 ADD JUMPDEST DUP3 DUP2 GT ISZERO PUSH3 0x365 JUMPI DUP3 MLOAD DUP3 SSTORE SWAP2 PUSH1 0x20 ADD SWAP2 SWAP1 PUSH1 0x1 ADD SWAP1 PUSH3 0x348 JUMP JUMPDEST JUMPDEST POP SWAP1 POP PUSH3 0x375 SWAP2 SWAP1 PUSH3 0x379 JUMP JUMPDEST POP SWAP1 JUMP JUMPDEST JUMPDEST DUP1 DUP3 GT ISZERO PUSH3 0x394 JUMPI PUSH1 0x0 DUP2 PUSH1 0x0 SWAP1 SSTORE POP PUSH1 0x1 ADD PUSH3 0x37A JUMP JUMPDEST POP SWAP1 JUMP JUMPDEST PUSH1 0x0 PUSH1 0x40 MLOAD SWAP1 POP SWAP1 JUMP JUMPDEST PUSH1 0x0 DUP1 REVERT JUMPDEST PUSH1 0x0 DUP1 REVERT JUMPDEST PUSH1 0x0 DUP1 REVERT JUMPDEST PUSH1 0x0 DUP1 REVERT JUMPDEST PUSH1 0x0 PUSH1 0x1F NOT PUSH1 0x1F DUP4 ADD AND SWAP1 POP SWAP2 SWAP1 POP JUMP JUMPDEST PUSH32 0x4E487B7100000000000000000000000000000000000000000000000000000000 PUSH1 0x0 MSTORE PUSH1 0x41 PUSH1 0x4 MSTORE PUSH1 0x24 PUSH1 0x0 REVERT JUMPDEST PUSH3 0x401 DUP3 PUSH3 0x3B6 JUMP JUMPDEST DUP2 ADD DUP2 DUP2 LT PUSH8 0xFFFFFFFFFFFFFFFF DUP3 GT OR ISZERO PUSH3 0x423 JUMPI PUSH3 0x422 PUSH3 0x3C7 JUMP JUMPDEST JUMPDEST DUP1 PUSH1 0x40 MSTORE POP POP POP JUMP JUMPDEST PUSH1 0x0 PUSH3 0x438 PUSH3 0x398 JUMP JUMPDEST SWAP1 POP PUSH3 0x446 DUP3 DUP3 PUSH3 0x3F6 JUMP JUMPDEST SWAP2 SWAP1 POP JUMP JUMPDEST PUSH1 0x0 PUSH8 0xFFFFFFFFFFFFFFFF DUP3 GT ISZERO PUSH3 0x469 JUMPI PUSH3 0x468 PUSH3 0x3C7 JUMP JUMPDEST JUMPDEST PUSH3 0x474 DUP3 PUSH3 0x3B6 JUMP JUMPDEST SWAP1 POP PUSH1 0x20 DUP2 ADD SWAP1 POP SWAP2 SWAP1 POP JUMP JUMPDEST PUSH1 0x0 JUMPDEST DUP4 DUP2 LT ISZERO PUSH3 0x4A1 JUMPI DUP1 DUP3 ADD MLOAD DUP2 DUP5 ADD MSTORE PUSH1 0x20 DUP2 ADD SWAP1 POP PUSH3 0x484 JUMP JUMPDEST DUP4 DUP2 GT ISZERO PUSH3 0x4B1 JUMPI PUSH1 0x0 DUP5 DUP5 ADD MSTORE JUMPDEST POP POP POP POP JUMP JUMPDEST PUSH1 0x0 PUSH3 0x4CE PUSH3 0x4C8 DUP5 PUSH3 0x44B JUMP JUMPDEST PUSH3 0x42C JUMP JUMPDEST SWAP1 POP DUP3 DUP2 MSTORE PUSH1 0x20 DUP2 ADD DUP5 DUP5 DUP5 ADD GT ISZERO PUSH3 0x4ED JUMPI PUSH3 0x4EC PUSH3 0x3B1 JUMP JUMPDEST JUMPDEST PUSH3 0x4FA DUP5 DUP3 DUP6 PUSH3 0x481 JUMP JUMPDEST POP SWAP4 SWAP3 POP POP POP JUMP JUMPDEST PUSH1 0x0 DUP3 PUSH1 0x1F DUP4 ADD SLT PUSH3 0x51A JUMPI PUSH3 0x519 PUSH3 0x3AC JUMP JUMPDEST JUMPDEST DUP2 MLOAD PUSH3 0x52C DUP5 DUP3 PUSH1 0x20 DUP7 ADD PUSH3 0x4B7 JUMP JUMPDEST SWAP2 POP POP SWAP3 SWAP2 POP POP JUMP JUMPDEST PUSH1 0x0 DUP2 SWAP1 POP SWAP2 SWAP1 POP JUMP JUMPDEST PUSH3 0x54A DUP2 PUSH3 0x535 JUMP JUMPDEST DUP2 EQ PUSH3 0x556 JUMPI PUSH1 0x0 DUP1 REVERT JUMPDEST POP JUMP JUMPDEST PUSH1 0x0 DUP2 MLOAD SWAP1 POP PUSH3 0x56A DUP2 PUSH3 0x53F JUMP JUMPDEST SWAP3 SWAP2 POP POP JUMP JUMPDEST PUSH1 0x0 PUSH20 0xFFFFFFFFFFFFFFFFFFFFFFFFFFFFFFFFFFFFFFFF DUP3 AND SWAP1 POP SWAP2 SWAP1 POP JUMP JUMPDEST PUSH1 0x0 PUSH3 0x59D DUP3 PUSH3 0x570 JUMP JUMPDEST SWAP1 POP SWAP2 SWAP1 POP JUMP JUMPDEST PUSH3 0x5AF DUP2 PUSH3 0x590 JUMP JUMPDEST DUP2 EQ PUSH3 0x5BB JUMPI PUSH1 0x0 DUP1 REVERT JUMPDEST POP JUMP JUMPDEST PUSH1 0x0 DUP2 MLOAD SWAP1 POP PUSH3 0x5CF DUP2 PUSH3 0x5A4 JUMP JUMPDEST SWAP3 SWAP2 POP POP JUMP JUMPDEST PUSH1 0x0 PUSH3 0x5E2 DUP3 PUSH3 0x570 JUMP JUMPDEST SWAP1 POP SWAP2 SWAP1 POP JUMP JUMPDEST PUSH3 0x5F4 DUP2 PUSH3 0x5D5 JUMP JUMPDEST DUP2 EQ PUSH3 0x600 JUMPI PUSH1 0x0 DUP1 REVERT JUMPDEST POP JUMP JUMPDEST PUSH1 0x0 DUP2 MLOAD SWAP1 POP PUSH3 0x614 DUP2 PUSH3 0x5E9 JUMP JUMPDEST SWAP3 SWAP2 POP POP JUMP JUMPDEST PUSH1 0x0 DUP1 PUSH1 0x0 DUP1 PUSH1 0x0 DUP1 PUSH1 0x0 DUP1 PUSH1 0x0 DUP1 PUSH2 0x140 DUP12 DUP14 SUB SLT ISZERO PUSH3 0x641 JUMPI PUSH3 0x640 PUSH3 0x3A2 JUMP JUMPDEST JUMPDEST PUSH1 0x0 DUP12 ADD MLOAD PUSH8 0xFFFFFFFFFFFFFFFF DUP2 GT ISZERO PUSH3 0x662 JUMPI PUSH3 0x661 PUSH3 0x3A7 JUMP JUMPDEST JUMPDEST PUSH3 0x670 DUP14 DUP3 DUP15 ADD PUSH3 0x502 JUMP JUMPDEST SWAP11 POP POP PUSH1 0x20 PUSH3 0x683 DUP14 DUP3 DUP15 ADD PUSH3 0x559 JUMP JUMPDEST SWAP10 POP POP PUSH1 0x40 DUP12 ADD MLOAD PUSH8 0xFFFFFFFFFFFFFFFF DUP2 GT ISZERO PUSH3 0x6A7 JUMPI PUSH3 0x6A6 PUSH3 0x3A7 JUMP JUMPDEST JUMPDEST PUSH3 0x6B5 DUP14 DUP3 DUP15 ADD PUSH3 0x502 JUMP JUMPDEST SWAP9 POP POP PUSH1 0x60 DUP12 ADD MLOAD PUSH8 0xFFFFFFFFFFFFFFFF DUP2 GT ISZERO PUSH3 0x6D9 JUMPI PUSH3 0x6D8 PUSH3 0x3A7 JUMP JUMPDEST JUMPDEST PUSH3 0x6E7 DUP14 DUP3 DUP15 ADD PUSH3 0x502 JUMP JUMPDEST SWAP8 POP POP PUSH1 0x80 PUSH3 0x6FA DUP14 DUP3 DUP15 ADD PUSH3 0x559 JUMP JUMPDEST SWAP7 POP POP PUSH1 0xA0 PUSH3 0x70D DUP14 DUP3 DUP15 ADD PUSH3 0x559 JUMP JUMPDEST SWAP6 POP POP PUSH1 0xC0 DUP12 ADD MLOAD PUSH8 0xFFFFFFFFFFFFFFFF DUP2 GT ISZERO PUSH3 0x731 JUMPI PUSH3 0x730 PUSH3 0x3A7 JUMP JUMPDEST JUMPDEST PUSH3 0x73F DUP14 DUP3 DUP15 ADD PUSH3 0x502 JUMP JUMPDEST SWAP5 POP POP PUSH1 0xE0 PUSH3 0x752 DUP14 DUP3 DUP15 ADD PUSH3 0x5BE JUMP JUMPDEST SWAP4 POP POP PUSH2 0x100 PUSH3 0x766 DUP14 DUP3 DUP15 ADD PUSH3 0x5BE JUMP JUMPDEST SWAP3 POP POP PUSH2 0x120 PUSH3 0x77A DUP14 DUP3 DUP15 ADD PUSH3 0x603 JUMP JUMPDEST SWAP2 POP POP SWAP3 SWAP6 SWAP9 SWAP12 SWAP2 SWAP5 SWAP8 SWAP11 POP SWAP3 SWAP6 SWAP9 POP JUMP JUMPDEST PUSH32 0x4E487B7100000000000000000000000000000000000000000000000000000000 PUSH1 0x0 MSTORE PUSH1 0x22 PUSH1 0x4 MSTORE PUSH1 0x24 PUSH1 0x0 REVERT JUMPDEST PUSH1 0x0 PUSH1 0x2 DUP3 DIV SWAP1 POP PUSH1 0x1 DUP3 AND DUP1 PUSH3 0x7D4 JUMPI PUSH1 0x7F DUP3 AND SWAP2 POP JUMPDEST PUSH1 0x20 DUP3 LT DUP2 EQ ISZERO PUSH3 0x7EB JUMPI PUSH3 0x7EA PUSH3 0x78C JUMP JUMPDEST JUMPDEST POP SWAP2 SWAP1 POP JUMP JUMPDEST PUSH2 0x1466 DUP1 PUSH3 0x801 PUSH1 0x0 CODECOPY PUSH1 0x0 RETURN INVALID PUSH1 0x80 PUSH1 0x40 MSTORE PUSH1 0x4 CALLDATASIZE LT PUSH2 0xFE JUMPI PUSH1 0x0 CALLDATALOAD PUSH1 0xE0 SHR DUP1 PUSH4 0x996440C6 GT PUSH2 0x95 JUMPI DUP1 PUSH4 0xE0E184BE GT PUSH2 0x64 JUMPI DUP1 PUSH4 0xE0E184BE EQ PUSH2 0x31C JUMPI DUP1 PUSH4 0xEB4F25FA EQ PUSH2 0x338 JUMPI DUP1 PUSH4 0xF1068454 EQ PUSH2 0x375 JUMPI DUP1 PUSH4 0xF851A440 EQ PUSH2 0x3A0 JUMPI DUP1 PUSH4 0xFBEF7192 EQ PUSH2 0x3CB JUMPI PUSH2 0xFE JUMP JUMPDEST DUP1 PUSH4 0x996440C6 EQ PUSH2 0x24C JUMPI DUP1 PUSH4 0x9D478014 EQ PUSH2 0x289 JUMPI DUP1 PUSH4 0xA1AAB33F EQ PUSH2 0x2C6 JUMPI DUP1 PUSH4 0xD20F248D EQ PUSH2 0x2F1 JUMPI PUSH2 0xFE JUMP JUMPDEST DUP1 PUSH4 0x68CD03F6 GT PUSH2 0xD1 JUMPI DUP1 PUSH4 0x68CD03F6 EQ PUSH2 0x1C1 JUMPI DUP1 PUSH4 0x79CAAD86 EQ PUSH2 0x1EC JUMPI DUP1 PUSH4 0x8C2F1C8C EQ PUSH2 0x217 JUMPI DUP1 PUSH4 0x93452A4C EQ PUSH2 0x221 JUMPI PUSH2 0xFE JUMP JUMPDEST DUP1 PUSH4 0x6FDDE03 EQ PUSH2 0x103 JUMPI DUP1 PUSH4 0x90F610B EQ PUSH2 0x12E JUMPI DUP1 PUSH4 0xEF26743 EQ PUSH2 0x159 JUMPI DUP1 PUSH4 0x369CB959 EQ PUSH2 0x184 JUMPI JUMPDEST PUSH1 0x0 DUP1 REVERT JUMPDEST CALLVALUE DUP1 ISZERO PUSH2 0x10F JUMPI PUSH1 0x0 DUP1 REVERT JUMPDEST POP PUSH2 0x118 PUSH2 0x3F6 JUMP JUMPDEST PUSH1 0x40 MLOAD PUSH2 0x125 SWAP2 SWAP1 PUSH2 0xE92 JUMP JUMPDEST PUSH1 0x40 MLOAD DUP1 SWAP2 SUB SWAP1 RETURN JUMPDEST CALLVALUE DUP1 ISZERO PUSH2 0x13A JUMPI PUSH1 0x0 DUP1 REVERT JUMPDEST POP PUSH2 0x143 PUSH2 0x484 JUMP JUMPDEST PUSH1 0x40 MLOAD PUSH2 0x150 SWAP2 SWAP1 PUSH2 0xECD JUMP JUMPDEST PUSH1 0x40 MLOAD DUP1 SWAP2 SUB SWAP1 RETURN JUMPDEST CALLVALUE DUP1 ISZERO PUSH2 0x165 JUMPI PUSH1 0x0 DUP1 REVERT JUMPDEST POP PUSH2 0x16E PUSH2 0x48A JUMP JUMPDEST PUSH1 0x40 MLOAD PUSH2 0x17B SWAP2 SWAP1 PUSH2 0xECD JUMP JUMPDEST PUSH1 0x40 MLOAD DUP1 SWAP2 SUB SWAP1 RETURN JUMPDEST CALLVALUE DUP1 ISZERO PUSH2 0x190 JUMPI PUSH1 0x0 DUP1 REVERT JUMPDEST POP PUSH2 0x1AB PUSH1 0x4 DUP1 CALLDATASIZE SUB DUP2 ADD SWAP1 PUSH2 0x1A6 SWAP2 SWAP1 PUSH2 0xF28 JUMP JUMPDEST PUSH2 0x490 JUMP JUMPDEST PUSH1 0x40 MLOAD PUSH2 0x1B8 SWAP2 SWAP1 PUSH2 0xE92 JUMP JUMPDEST PUSH1 0x40 MLOAD DUP1 SWAP2 SUB SWAP1 RETURN JUMPDEST CALLVALUE DUP1 ISZERO PUSH2 0x1CD JUMPI PUSH1 0x0 DUP1 REVERT JUMPDEST POP PUSH2 0x1D6 PUSH2 0x53C JUMP JUMPDEST PUSH1 0x40 MLOAD PUSH2 0x1E3 SWAP2 SWAP1 PUSH2 0xF96 JUMP JUMPDEST PUSH1 0x40 MLOAD DUP1 SWAP2 SUB SWAP1 RETURN JUMPDEST CALLVALUE DUP1 ISZERO PUSH2 0x1F8 JUMPI PUSH1 0x0 DUP1 REVERT JUMPDEST POP PUSH2 0x201 PUSH2 0x562 JUMP JUMPDEST PUSH1 0x40 MLOAD PUSH2 0x20E SWAP2 SWAP1 PUSH2 0xE92 JUMP JUMPDEST PUSH1 0x40 MLOAD DUP1 SWAP2 SUB SWAP1 RETURN JUMPDEST PUSH2 0x21F PUSH2 0x5F0 JUMP JUMPDEST STOP JUMPDEST CALLVALUE DUP1 ISZERO PUSH2 0x22D JUMPI PUSH1 0x0 DUP1 REVERT JUMPDEST POP PUSH2 0x236 PUSH2 0x816 JUMP JUMPDEST PUSH1 0x40 MLOAD PUSH2 0x243 SWAP2 SWAP1 PUSH2 0xE92 JUMP JUMPDEST PUSH1 0x40 MLOAD DUP1 SWAP2 SUB SWAP1 RETURN JUMPDEST CALLVALUE DUP1 ISZERO PUSH2 0x258 JUMPI PUSH1 0x0 DUP1 REVERT JUMPDEST POP PUSH2 0x273 PUSH1 0x4 DUP1 CALLDATASIZE SUB DUP2 ADD SWAP1 PUSH2 0x26E SWAP2 SWAP1 PUSH2 0xFDD JUMP JUMPDEST PUSH2 0x8A4 JUMP JUMPDEST PUSH1 0x40 MLOAD PUSH2 0x280 SWAP2 SWAP1 PUSH2 0x1025 JUMP JUMPDEST PUSH1 0x40 MLOAD DUP1 SWAP2 SUB SWAP1 RETURN JUMPDEST CALLVALUE DUP1 ISZERO PUSH2 0x295 JUMPI PUSH1 0x0 DUP1 REVERT JUMPDEST POP PUSH2 0x2B0 PUSH1 0x4 DUP1 CALLDATASIZE SUB DUP2 ADD SWAP1 PUSH2 0x2AB SWAP2 SWAP1 PUSH2 0xF28 JUMP JUMPDEST PUSH2 0x953 JUMP JUMPDEST PUSH1 0x40 MLOAD PUSH2 0x2BD SWAP2 SWAP1 PUSH2 0xF96 JUMP JUMPDEST PUSH1 0x40 MLOAD DUP1 SWAP2 SUB SWAP1 RETURN JUMPDEST CALLVALUE DUP1 ISZERO PUSH2 0x2D2 JUMPI PUSH1 0x0 DUP1 REVERT JUMPDEST POP PUSH2 0x2DB PUSH2 0x992 JUMP JUMPDEST PUSH1 0x40 MLOAD PUSH2 0x2E8 SWAP2 SWAP1 PUSH2 0xECD JUMP JUMPDEST PUSH1 0x40 MLOAD DUP1 SWAP2 SUB SWAP1 RETURN JUMPDEST CALLVALUE DUP1 ISZERO PUSH2 0x2FD JUMPI PUSH1 0x0 DUP1 REVERT JUMPDEST POP PUSH2 0x306 PUSH2 0x998 JUMP JUMPDEST PUSH1 0x40 MLOAD PUSH2 0x313 SWAP2 SWAP1 PUSH2 0xE92 JUMP JUMPDEST PUSH1 0x40 MLOAD DUP1 SWAP2 SUB SWAP1 RETURN JUMPDEST PUSH2 0x336 PUSH1 0x4 DUP1 CALLDATASIZE SUB DUP2 ADD SWAP1 PUSH2 0x331 SWAP2 SWAP1 PUSH2 0x1175 JUMP JUMPDEST PUSH2 0xA26 JUMP JUMPDEST STOP JUMPDEST CALLVALUE DUP1 ISZERO PUSH2 0x344 JUMPI PUSH1 0x0 DUP1 REVERT JUMPDEST POP PUSH2 0x35F PUSH1 0x4 DUP1 CALLDATASIZE SUB DUP2 ADD SWAP1 PUSH2 0x35A SWAP2 SWAP1 PUSH2 0xF28 JUMP JUMPDEST PUSH2 0xB07 JUMP JUMPDEST PUSH1 0x40 MLOAD PUSH2 0x36C SWAP2 SWAP1 PUSH2 0xE92 JUMP JUMPDEST PUSH1 0x40 MLOAD DUP1 SWAP2 SUB SWAP1 RETURN JUMPDEST CALLVALUE DUP1 ISZERO PUSH2 0x381 JUMPI PUSH1 0x0 DUP1 REVERT JUMPDEST POP PUSH2 0x38A PUSH2 0xBB3 JUMP JUMPDEST PUSH1 0x40 MLOAD PUSH2 0x397 SWAP2 SWAP1 PUSH2 0xECD JUMP JUMPDEST PUSH1 0x40 MLOAD DUP1 SWAP2 SUB SWAP1 RETURN JUMPDEST CALLVALUE DUP1 ISZERO PUSH2 0x3AC JUMPI PUSH1 0x0 DUP1 REVERT JUMPDEST POP PUSH2 0x3B5 PUSH2 0xBB9 JUMP JUMPDEST PUSH1 0x40 MLOAD PUSH2 0x3C2 SWAP2 SWAP1 PUSH2 0xF96 JUMP JUMPDEST PUSH1 0x40 MLOAD DUP1 SWAP2 SUB SWAP1 RETURN JUMPDEST CALLVALUE DUP1 ISZERO PUSH2 0x3D7 JUMPI PUSH1 0x0 DUP1 REVERT JUMPDEST POP PUSH2 0x3E0 PUSH2 0xBDF JUMP JUMPDEST PUSH1 0x40 MLOAD PUSH2 0x3ED SWAP2 SWAP1 PUSH2 0x11F2 JUMP JUMPDEST PUSH1 0x40 MLOAD DUP1 SWAP2 SUB SWAP1 RETURN JUMPDEST PUSH1 0x0 DUP1 SLOAD PUSH2 0x403 SWAP1 PUSH2 0x123C JUMP JUMPDEST DUP1 PUSH1 0x1F ADD PUSH1 0x20 DUP1 SWAP2 DIV MUL PUSH1 0x20 ADD PUSH1 0x40 MLOAD SWAP1 DUP2 ADD PUSH1 0x40 MSTORE DUP1 SWAP3 SWAP2 SWAP1 DUP2 DUP2 MSTORE PUSH1 0x20 ADD DUP3 DUP1 SLOAD PUSH2 0x42F SWAP1 PUSH2 0x123C JUMP JUMPDEST DUP1 ISZERO PUSH2 0x47C JUMPI DUP1 PUSH1 0x1F LT PUSH2 0x451 JUMPI PUSH2 0x100 DUP1 DUP4 SLOAD DIV MUL DUP4 MSTORE SWAP2 PUSH1 0x20 ADD SWAP2 PUSH2 0x47C JUMP JUMPDEST DUP3 ADD SWAP2 SWAP1 PUSH1 0x0 MSTORE PUSH1 0x20 PUSH1 0x0 KECCAK256 SWAP1 JUMPDEST DUP2 SLOAD DUP2 MSTORE SWAP1 PUSH1 0x1 ADD SWAP1 PUSH1 0x20 ADD DUP1 DUP4 GT PUSH2 0x45F JUMPI DUP3 SWAP1 SUB PUSH1 0x1F AND DUP3 ADD SWAP2 JUMPDEST POP POP POP POP POP DUP2 JUMP JUMPDEST PUSH1 0xC SLOAD DUP2 JUMP JUMPDEST PUSH1 0x4 SLOAD DUP2 JUMP JUMPDEST PUSH1 0x9 DUP2 DUP2 SLOAD DUP2 LT PUSH2 0x4A0 JUMPI PUSH1 0x0 DUP1 REVERT JUMPDEST SWAP1 PUSH1 0x0 MSTORE PUSH1 0x20 PUSH1 0x0 KECCAK256 ADD PUSH1 0x0 SWAP2 POP SWAP1 POP DUP1 SLOAD PUSH2 0x4BB SWAP1 PUSH2 0x123C JUMP JUMPDEST DUP1 PUSH1 0x1F ADD PUSH1 0x20 DUP1 SWAP2 DIV MUL PUSH1 0x20 ADD PUSH1 0x40 MLOAD SWAP1 DUP2 ADD PUSH1 0x40 MSTORE DUP1 SWAP3 SWAP2 SWAP1 DUP2 DUP2 MSTORE PUSH1 0x20 ADD DUP3 DUP1 SLOAD PUSH2 0x4E7 SWAP1 PUSH2 0x123C JUMP JUMPDEST DUP1 ISZERO PUSH2 0x534 JUMPI DUP1 PUSH1 0x1F LT PUSH2 0x509 JUMPI PUSH2 0x100 DUP1 DUP4 SLOAD DIV MUL DUP4 MSTORE SWAP2 PUSH1 0x20 ADD SWAP2 PUSH2 0x534 JUMP JUMPDEST DUP3 ADD SWAP2 SWAP1 PUSH1 0x0 MSTORE PUSH1 0x20 PUSH1 0x0 KECCAK256 SWAP1 JUMPDEST DUP2 SLOAD DUP2 MSTORE SWAP1 PUSH1 0x1 ADD SWAP1 PUSH1 0x20 ADD DUP1 DUP4 GT PUSH2 0x517 JUMPI DUP3 SWAP1 SUB PUSH1 0x1F AND DUP3 ADD SWAP2 JUMPDEST POP POP POP POP POP DUP2 JUMP JUMPDEST PUSH1 0xB PUSH1 0x0 SWAP1 SLOAD SWAP1 PUSH2 0x100 EXP SWAP1 DIV PUSH20 0xFFFFFFFFFFFFFFFFFFFFFFFFFFFFFFFFFFFFFFFF AND DUP2 JUMP JUMPDEST PUSH1 0x2 DUP1 SLOAD PUSH2 0x56F SWAP1 PUSH2 0x123C JUMP JUMPDEST DUP1 PUSH1 0x1F ADD PUSH1 0x20 DUP1 SWAP2 DIV MUL PUSH1 0x20 ADD PUSH1 0x40 MLOAD SWAP1 DUP2 ADD PUSH1 0x40 MSTORE DUP1 SWAP3 SWAP2 SWAP1 DUP2 DUP2 MSTORE PUSH1 0x20 ADD DUP3 DUP1 SLOAD PUSH2 0x59B SWAP1 PUSH2 0x123C JUMP JUMPDEST DUP1 ISZERO PUSH2 0x5E8 JUMPI DUP1 PUSH1 0x1F LT PUSH2 0x5BD JUMPI PUSH2 0x100 DUP1 DUP4 SLOAD DIV MUL DUP4 MSTORE SWAP2 PUSH1 0x20 ADD SWAP2 PUSH2 0x5E8 JUMP JUMPDEST DUP3 ADD SWAP2 SWAP1 PUSH1 0x0 MSTORE PUSH1 0x20 PUSH1 0x0 KECCAK256 SWAP1 JUMPDEST DUP2 SLOAD DUP2 MSTORE SWAP1 PUSH1 0x1 ADD SWAP1 PUSH1 0x20 ADD DUP1 DUP4 GT PUSH2 0x5CB JUMPI DUP3 SWAP1 SUB PUSH1 0x1F AND DUP3 ADD SWAP2 JUMPDEST POP POP POP POP POP DUP2 JUMP JUMPDEST PUSH1 0xB PUSH1 0x0 SWAP1 SLOAD SWAP1 PUSH2 0x100 EXP SWAP1 DIV PUSH20 0xFFFFFFFFFFFFFFFFFFFFFFFFFFFFFFFFFFFFFFFF AND PUSH20 0xFFFFFFFFFFFFFFFFFFFFFFFFFFFFFFFFFFFFFFFF AND CALLER PUSH20 0xFFFFFFFFFFFFFFFFFFFFFFFFFFFFFFFFFFFFFFFF AND EQ PUSH2 0x680 JUMPI PUSH1 0x40 MLOAD PUSH32 0x8C379A000000000000000000000000000000000000000000000000000000000 DUP2 MSTORE PUSH1 0x4 ADD PUSH2 0x677 SWAP1 PUSH2 0x12BA JUMP JUMPDEST PUSH1 0x40 MLOAD DUP1 SWAP2 SUB SWAP1 REVERT JUMPDEST PUSH1 0xD PUSH1 0x0 SWAP1 SLOAD SWAP1 PUSH2 0x100 EXP SWAP1 DIV PUSH20 0xFFFFFFFFFFFFFFFFFFFFFFFFFFFFFFFFFFFFFFFF AND PUSH20 0xFFFFFFFFFFFFFFFFFFFFFFFFFFFFFFFFFFFFFFFF AND PUSH2 0x8FC PUSH1 0xC SLOAD SWAP1 DUP2 ISZERO MUL SWAP1 PUSH1 0x40 MLOAD PUSH1 0x0 PUSH1 0x40 MLOAD DUP1 DUP4 SUB DUP2 DUP6 DUP9 DUP9 CALL SWAP4 POP POP POP POP ISZERO DUP1 ISZERO PUSH2 0x6EA JUMPI RETURNDATASIZE PUSH1 0x0 DUP1 RETURNDATACOPY RETURNDATASIZE PUSH1 0x0 REVERT JUMPDEST POP PUSH1 0x0 JUMPDEST PUSH1 0x8 DUP1 SLOAD SWAP1 POP DUP2 LT ISZERO PUSH2 0x76B JUMPI PUSH1 0x9 PUSH1 0x8 DUP3 DUP2 SLOAD DUP2 LT PUSH2 0x711 JUMPI PUSH2 0x710 PUSH2 0x12DA JUMP JUMPDEST JUMPDEST SWAP1 PUSH1 0x0 MSTORE PUSH1 0x20 PUSH1 0x0 KECCAK256 ADD SWAP1 DUP1 PUSH1 0x1 DUP2 SLOAD ADD DUP1 DUP3 SSTORE DUP1 SWAP2 POP POP PUSH1 0x1 SWAP1 SUB SWAP1 PUSH1 0x0 MSTORE PUSH1 0x20 PUSH1 0x0 KECCAK256 ADD PUSH1 0x0 SWAP1 SWAP2 SWAP1 SWAP2 SWAP1 SWAP2 POP SWAP1 DUP1 SLOAD PUSH2 0x74C SWAP1 PUSH2 0x123C JUMP JUMPDEST PUSH2 0x757 SWAP3 SWAP2 SWAP1 PUSH2 0xC05 JUMP JUMPDEST POP DUP1 DUP1 PUSH2 0x763 SWAP1 PUSH2 0x1338 JUMP JUMPDEST SWAP2 POP POP PUSH2 0x6EE JUMP JUMPDEST POP PUSH1 0x0 PUSH8 0xFFFFFFFFFFFFFFFF DUP2 GT ISZERO PUSH2 0x787 JUMPI PUSH2 0x786 PUSH2 0x104A JUMP JUMPDEST JUMPDEST PUSH1 0x40 MLOAD SWAP1 DUP1 DUP3 MSTORE DUP1 PUSH1 0x20 MUL PUSH1 0x20 ADD DUP3 ADD PUSH1 0x40 MSTORE DUP1 ISZERO PUSH2 0x7BA JUMPI DUP2 PUSH1 0x20 ADD JUMPDEST PUSH1 0x60 DUP2 MSTORE PUSH1 0x20 ADD SWAP1 PUSH1 0x1 SWAP1 SUB SWAP1 DUP2 PUSH2 0x7A5 JUMPI SWAP1 POP JUMPDEST POP PUSH1 0x8 SWAP1 DUP1 MLOAD SWAP1 PUSH1 0x20 ADD SWAP1 PUSH2 0x7D0 SWAP3 SWAP2 SWAP1 PUSH2 0xC92 JUMP JUMPDEST POP PUSH32 0x5812D1D1DEFE497F04E4435407750CA253B84BA856E9057292BC0D13DAC53975 TIMESTAMP PUSH1 0xC SLOAD PUSH1 0x40 MLOAD PUSH2 0x804 SWAP3 SWAP2 SWAP1 PUSH2 0x1381 JUMP JUMPDEST PUSH1 0x40 MLOAD DUP1 SWAP2 SUB SWAP1 LOG1 PUSH1 0x0 PUSH1 0xC DUP2 SWAP1 SSTORE POP JUMP JUMPDEST PUSH1 0x3 DUP1 SLOAD PUSH2 0x823 SWAP1 PUSH2 0x123C JUMP JUMPDEST DUP1 PUSH1 0x1F ADD PUSH1 0x20 DUP1 SWAP2 DIV MUL PUSH1 0x20 ADD PUSH1 0x40 MLOAD SWAP1 DUP2 ADD PUSH1 0x40 MSTORE DUP1 SWAP3 SWAP2 SWAP1 DUP2 DUP2 MSTORE PUSH1 0x20 ADD DUP3 DUP1 SLOAD PUSH2 0x84F SWAP1 PUSH2 0x123C JUMP JUMPDEST DUP1 ISZERO PUSH2 0x89C JUMPI DUP1 PUSH1 0x1F LT PUSH2 0x871 JUMPI PUSH2 0x100 DUP1 DUP4 SLOAD DIV MUL DUP4 MSTORE SWAP2 PUSH1 0x20 ADD SWAP2 PUSH2 0x89C JUMP JUMPDEST DUP3 ADD SWAP2 SWAP1 PUSH1 0x0 MSTORE PUSH1 0x20 PUSH1 0x0 KECCAK256 SWAP1 JUMPDEST DUP2 SLOAD DUP2 MSTORE SWAP1 PUSH1 0x1 ADD SWAP1 PUSH1 0x20 ADD DUP1 DUP4 GT PUSH2 0x87F JUMPI DUP3 SWAP1 SUB PUSH1 0x1F AND DUP3 ADD SWAP2 JUMPDEST POP POP POP POP POP DUP2 JUMP JUMPDEST PUSH1 0x0 DUP1 PUSH1 0x0 SWAP1 POP JUMPDEST PUSH1 0xA DUP1 SLOAD SWAP1 POP DUP2 LT ISZERO PUSH2 0x948 JUMPI DUP3 PUSH20 0xFFFFFFFFFFFFFFFFFFFFFFFFFFFFFFFFFFFFFFFF AND PUSH1 0xA DUP3 DUP2 SLOAD DUP2 LT PUSH2 0x8E4 JUMPI PUSH2 0x8E3 PUSH2 0x12DA JUMP JUMPDEST JUMPDEST SWAP1 PUSH1 0x0 MSTORE PUSH1 0x20 PUSH1 0x0 KECCAK256 ADD PUSH1 0x0 SWAP1 SLOAD SWAP1 PUSH2 0x100 EXP SWAP1 DIV PUSH20 0xFFFFFFFFFFFFFFFFFFFFFFFFFFFFFFFFFFFFFFFF AND PUSH20 0xFFFFFFFFFFFFFFFFFFFFFFFFFFFFFFFFFFFFFFFF AND EQ ISZERO PUSH2 0x935 JUMPI PUSH1 0x1 SWAP2 POP POP PUSH2 0x94E JUMP JUMPDEST DUP1 DUP1 PUSH2 0x940 SWAP1 PUSH2 0x1338 JUMP JUMPDEST SWAP2 POP POP PUSH2 0x8AC JUMP JUMPDEST POP PUSH1 0x0 SWAP1 POP JUMPDEST SWAP2 SWAP1 POP JUMP JUMPDEST PUSH1 0xA DUP2 DUP2 SLOAD DUP2 LT PUSH2 0x963 JUMPI PUSH1 0x0 DUP1 REVERT JUMPDEST SWAP1 PUSH1 0x0 MSTORE PUSH1 0x20 PUSH1 0x0 KECCAK256 ADD PUSH1 0x0 SWAP2 POP SLOAD SWAP1 PUSH2 0x100 EXP SWAP1 DIV PUSH20 0xFFFFFFFFFFFFFFFFFFFFFFFFFFFFFFFFFFFFFFFF AND DUP2 JUMP JUMPDEST PUSH1 0x5 SLOAD DUP2 JUMP JUMPDEST PUSH1 0x6 DUP1 SLOAD PUSH2 0x9A5 SWAP1 PUSH2 0x123C JUMP JUMPDEST DUP1 PUSH1 0x1F ADD PUSH1 0x20 DUP1 SWAP2 DIV MUL PUSH1 0x20 ADD PUSH1 0x40 MLOAD SWAP1 DUP2 ADD PUSH1 0x40 MSTORE DUP1 SWAP3 SWAP2 SWAP1 DUP2 DUP2 MSTORE PUSH1 0x20 ADD DUP3 DUP1 SLOAD PUSH2 0x9D1 SWAP1 PUSH2 0x123C JUMP JUMPDEST DUP1 ISZERO PUSH2 0xA1E JUMPI DUP1 PUSH1 0x1F LT PUSH2 0x9F3 JUMPI PUSH2 0x100 DUP1 DUP4 SLOAD DIV MUL DUP4 MSTORE SWAP2 PUSH1 0x20 ADD SWAP2 PUSH2 0xA1E JUMP JUMPDEST DUP3 ADD SWAP2 SWAP1 PUSH1 0x0 MSTORE PUSH1 0x20 PUSH1 0x0 KECCAK256 SWAP1 JUMPDEST DUP2 SLOAD DUP2 MSTORE SWAP1 PUSH1 0x1 ADD SWAP1 PUSH1 0x20 ADD DUP1 DUP4 GT PUSH2 0xA01 JUMPI DUP3 SWAP1 SUB PUSH1 0x1F AND DUP3 ADD SWAP2 JUMPDEST POP POP POP POP POP DUP2 JUMP JUMPDEST PUSH1 0x1 ISZERO ISZERO PUSH2 0xA33 CALLER PUSH2 0x8A4 JUMP JUMPDEST ISZERO ISZERO EQ PUSH2 0xA75 JUMPI PUSH1 0x40 MLOAD PUSH32 0x8C379A000000000000000000000000000000000000000000000000000000000 DUP2 MSTORE PUSH1 0x4 ADD PUSH2 0xA6C SWAP1 PUSH2 0x12BA JUMP JUMPDEST PUSH1 0x40 MLOAD DUP1 SWAP2 SUB SWAP1 REVERT JUMPDEST PUSH1 0x8 DUP3 SWAP1 DUP1 PUSH1 0x1 DUP2 SLOAD ADD DUP1 DUP3 SSTORE DUP1 SWAP2 POP POP PUSH1 0x1 SWAP1 SUB SWAP1 PUSH1 0x0 MSTORE PUSH1 0x20 PUSH1 0x0 KECCAK256 ADD PUSH1 0x0 SWAP1 SWAP2 SWAP1 SWAP2 SWAP1 SWAP2 POP SWAP1 DUP1 MLOAD SWAP1 PUSH1 0x20 ADD SWAP1 PUSH2 0xAB0 SWAP3 SWAP2 SWAP1 PUSH2 0xCF2 JUMP JUMPDEST POP DUP1 PUSH1 0xC PUSH1 0x0 DUP3 DUP3 SLOAD PUSH2 0xAC3 SWAP2 SWAP1 PUSH2 0x13AA JUMP JUMPDEST SWAP3 POP POP DUP2 SWAP1 SSTORE POP PUSH32 0x675016AF78705A2591DA6C28A48F2CA9468CE65F3711E50ACBC799A1A9EB9D84 TIMESTAMP DUP4 PUSH1 0x40 MLOAD PUSH2 0xAFB SWAP3 SWAP2 SWAP1 PUSH2 0x1400 JUMP JUMPDEST PUSH1 0x40 MLOAD DUP1 SWAP2 SUB SWAP1 LOG1 POP POP JUMP JUMPDEST PUSH1 0x8 DUP2 DUP2 SLOAD DUP2 LT PUSH2 0xB17 JUMPI PUSH1 0x0 DUP1 REVERT JUMPDEST SWAP1 PUSH1 0x0 MSTORE PUSH1 0x20 PUSH1 0x0 KECCAK256 ADD PUSH1 0x0 SWAP2 POP SWAP1 POP DUP1 SLOAD PUSH2 0xB32 SWAP1 PUSH2 0x123C JUMP JUMPDEST DUP1 PUSH1 0x1F ADD PUSH1 0x20 DUP1 SWAP2 DIV MUL PUSH1 0x20 ADD PUSH1 0x40 MLOAD SWAP1 DUP2 ADD PUSH1 0x40 MSTORE DUP1 SWAP3 SWAP2 SWAP1 DUP2 DUP2 MSTORE PUSH1 0x20 ADD DUP3 DUP1 SLOAD PUSH2 0xB5E SWAP1 PUSH2 0x123C JUMP JUMPDEST DUP1 ISZERO PUSH2 0xBAB JUMPI DUP1 PUSH1 0x1F LT PUSH2 0xB80 JUMPI PUSH2 0x100 DUP1 DUP4 SLOAD DIV MUL DUP4 MSTORE SWAP2 PUSH1 0x20 ADD SWAP2 PUSH2 0xBAB JUMP JUMPDEST DUP3 ADD SWAP2 SWAP1 PUSH1 0x0 MSTORE PUSH1 0x20 PUSH1 0x0 KECCAK256 SWAP1 JUMPDEST DUP2 SLOAD DUP2 MSTORE SWAP1 PUSH1 0x1 ADD SWAP1 PUSH1 0x20 ADD DUP1 DUP4 GT PUSH2 0xB8E JUMPI DUP3 SWAP1 SUB PUSH1 0x1F AND DUP3 ADD SWAP2 JUMPDEST POP POP POP POP POP DUP2 JUMP JUMPDEST PUSH1 0x1 SLOAD DUP2 JUMP JUMPDEST PUSH1 0x7 PUSH1 0x0 SWAP1 SLOAD SWAP1 PUSH2 0x100 EXP SWAP1 DIV PUSH20 0xFFFFFFFFFFFFFFFFFFFFFFFFFFFFFFFFFFFFFFFF AND DUP2 JUMP JUMPDEST PUSH1 0xD PUSH1 0x0 SWAP1 SLOAD SWAP1 PUSH2 0x100 EXP SWAP1 DIV PUSH20 0xFFFFFFFFFFFFFFFFFFFFFFFFFFFFFFFFFFFFFFFF AND DUP2 JUMP JUMPDEST DUP3 DUP1 SLOAD PUSH2 0xC11 SWAP1 PUSH2 0x123C JUMP JUMPDEST SWAP1 PUSH1 0x0 MSTORE PUSH1 0x20 PUSH1 0x0 KECCAK256 SWAP1 PUSH1 0x1F ADD PUSH1 0x20 SWAP1 DIV DUP2 ADD SWAP3 DUP3 PUSH2 0xC33 JUMPI PUSH1 0x0 DUP6 SSTORE PUSH2 0xC81 JUMP JUMPDEST DUP3 PUSH1 0x1F LT PUSH2 0xC44 JUMPI DUP1 SLOAD DUP6 SSTORE PUSH2 0xC81 JUMP JUMPDEST DUP3 DUP1 ADD PUSH1 0x1 ADD DUP6 SSTORE DUP3 ISZERO PUSH2 0xC81 JUMPI PUSH1 0x0 MSTORE PUSH1 0x20 PUSH1 0x0 KECCAK256 SWAP2 PUSH1 0x1F ADD PUSH1 0x20 SWAP1 DIV DUP3 ADD JUMPDEST DUP3 DUP2 GT ISZERO PUSH2 0xC80 JUMPI DUP3 SLOAD DUP3 SSTORE SWAP2 PUSH1 0x1 ADD SWAP2 SWAP1 PUSH1 0x1 ADD SWAP1 PUSH2 0xC65 JUMP JUMPDEST JUMPDEST POP SWAP1 POP PUSH2 0xC8E SWAP2 SWAP1 PUSH2 0xD78 JUMP JUMPDEST POP SWAP1 JUMP JUMPDEST DUP3 DUP1 SLOAD DUP3 DUP3 SSTORE SWAP1 PUSH1 0x0 MSTORE PUSH1 0x20 PUSH1 0x0 KECCAK256 SWAP1 DUP2 ADD SWAP3 DUP3 ISZERO PUSH2 0xCE1 JUMPI SWAP2 PUSH1 0x20 MUL DUP3 ADD JUMPDEST DUP3 DUP2 GT ISZERO PUSH2 0xCE0 JUMPI DUP3 MLOAD DUP3 SWAP1 DUP1 MLOAD SWAP1 PUSH1 0x20 ADD SWAP1 PUSH2 0xCD0 SWAP3 SWAP2 SWAP1 PUSH2 0xCF2 JUMP JUMPDEST POP SWAP2 PUSH1 0x20 ADD SWAP2 SWAP1 PUSH1 0x1 ADD SWAP1 PUSH2 0xCB2 JUMP JUMPDEST JUMPDEST POP SWAP1 POP PUSH2 0xCEE SWAP2 SWAP1 PUSH2 0xD95 JUMP JUMPDEST POP SWAP1 JUMP JUMPDEST DUP3 DUP1 SLOAD PUSH2 0xCFE SWAP1 PUSH2 0x123C JUMP JUMPDEST SWAP1 PUSH1 0x0 MSTORE PUSH1 0x20 PUSH1 0x0 KECCAK256 SWAP1 PUSH1 0x1F ADD PUSH1 0x20 SWAP1 DIV DUP2 ADD SWAP3 DUP3 PUSH2 0xD20 JUMPI PUSH1 0x0 DUP6 SSTORE PUSH2 0xD67 JUMP JUMPDEST DUP3 PUSH1 0x1F LT PUSH2 0xD39 JUMPI DUP1 MLOAD PUSH1 0xFF NOT AND DUP4 DUP1 ADD OR DUP6 SSTORE PUSH2 0xD67 JUMP JUMPDEST DUP3 DUP1 ADD PUSH1 0x1 ADD DUP6 SSTORE DUP3 ISZERO PUSH2 0xD67 JUMPI SWAP2 DUP3 ADD JUMPDEST DUP3 DUP2 GT ISZERO PUSH2 0xD66 JUMPI DUP3 MLOAD DUP3 SSTORE SWAP2 PUSH1 0x20 ADD SWAP2 SWAP1 PUSH1 0x1 ADD SWAP1 PUSH2 0xD4B JUMP JUMPDEST JUMPDEST POP SWAP1 POP PUSH2 0xD74 SWAP2 SWAP1 PUSH2 0xD78 JUMP JUMPDEST POP SWAP1 JUMP JUMPDEST JUMPDEST DUP1 DUP3 GT ISZERO PUSH2 0xD91 JUMPI PUSH1 0x0 DUP2 PUSH1 0x0 SWAP1 SSTORE POP PUSH1 0x1 ADD PUSH2 0xD79 JUMP JUMPDEST POP SWAP1 JUMP JUMPDEST JUMPDEST DUP1 DUP3 GT ISZERO PUSH2 0xDB5 JUMPI PUSH1 0x0 DUP2 DUP2 PUSH2 0xDAC SWAP2 SWAP1 PUSH2 0xDB9 JUMP JUMPDEST POP PUSH1 0x1 ADD PUSH2 0xD96 JUMP JUMPDEST POP SWAP1 JUMP JUMPDEST POP DUP1 SLOAD PUSH2 0xDC5 SWAP1 PUSH2 0x123C JUMP JUMPDEST PUSH1 0x0 DUP3 SSTORE DUP1 PUSH1 0x1F LT PUSH2 0xDD7 JUMPI POP PUSH2 0xDF6 JUMP JUMPDEST PUSH1 0x1F ADD PUSH1 0x20 SWAP1 DIV SWAP1 PUSH1 0x0 MSTORE PUSH1 0x20 PUSH1 0x0 KECCAK256 SWAP1 DUP2 ADD SWAP1 PUSH2 0xDF5 SWAP2 SWAP1 PUSH2 0xD78 JUMP JUMPDEST JUMPDEST POP JUMP JUMPDEST PUSH1 0x0 DUP2 MLOAD SWAP1 POP SWAP2 SWAP1 POP JUMP JUMPDEST PUSH1 0x0 DUP3 DUP3 MSTORE PUSH1 0x20 DUP3 ADD SWAP1 POP SWAP3 SWAP2 POP POP JUMP JUMPDEST PUSH1 0x0 JUMPDEST DUP4 DUP2 LT ISZERO PUSH2 0xE33 JUMPI DUP1 DUP3 ADD MLOAD DUP2 DUP5 ADD MSTORE PUSH1 0x20 DUP2 ADD SWAP1 POP PUSH2 0xE18 JUMP JUMPDEST DUP4 DUP2 GT ISZERO PUSH2 0xE42 JUMPI PUSH1 0x0 DUP5 DUP5 ADD MSTORE JUMPDEST POP POP POP POP JUMP JUMPDEST PUSH1 0x0 PUSH1 0x1F NOT PUSH1 0x1F DUP4 ADD AND SWAP1 POP SWAP2 SWAP1 POP JUMP JUMPDEST PUSH1 0x0 PUSH2 0xE64 DUP3 PUSH2 0xDF9 JUMP JUMPDEST PUSH2 0xE6E DUP2 DUP6 PUSH2 0xE04 JUMP JUMPDEST SWAP4 POP PUSH2 0xE7E DUP2 DUP6 PUSH1 0x20 DUP7 ADD PUSH2 0xE15 JUMP JUMPDEST PUSH2 0xE87 DUP2 PUSH2 0xE48 JUMP JUMPDEST DUP5 ADD SWAP2 POP POP SWAP3 SWAP2 POP POP JUMP JUMPDEST PUSH1 0x0 PUSH1 0x20 DUP3 ADD SWAP1 POP DUP2 DUP2 SUB PUSH1 0x0 DUP4 ADD MSTORE PUSH2 0xEAC DUP2 DUP5 PUSH2 0xE59 JUMP JUMPDEST SWAP1 POP SWAP3 SWAP2 POP POP JUMP JUMPDEST PUSH1 0x0 DUP2 SWAP1 POP SWAP2 SWAP1 POP JUMP JUMPDEST PUSH2 0xEC7 DUP2 PUSH2 0xEB4 JUMP JUMPDEST DUP3 MSTORE POP POP JUMP JUMPDEST PUSH1 0x0 PUSH1 0x20 DUP3 ADD SWAP1 POP PUSH2 0xEE2 PUSH1 0x0 DUP4 ADD DUP5 PUSH2 0xEBE JUMP JUMPDEST SWAP3 SWAP2 POP POP JUMP JUMPDEST PUSH1 0x0 PUSH1 0x40 MLOAD SWAP1 POP SWAP1 JUMP JUMPDEST PUSH1 0x0 DUP1 REVERT JUMPDEST PUSH1 0x0 DUP1 REVERT JUMPDEST PUSH2 0xF05 DUP2 PUSH2 0xEB4 JUMP JUMPDEST DUP2 EQ PUSH2 0xF10 JUMPI PUSH1 0x0 DUP1 REVERT JUMPDEST POP JUMP JUMPDEST PUSH1 0x0 DUP2 CALLDATALOAD SWAP1 POP PUSH2 0xF22 DUP2 PUSH2 0xEFC JUMP JUMPDEST SWAP3 SWAP2 POP POP JUMP JUMPDEST PUSH1 0x0 PUSH1 0x20 DUP3 DUP5 SUB SLT ISZERO PUSH2 0xF3E JUMPI PUSH2 0xF3D PUSH2 0xEF2 JUMP JUMPDEST JUMPDEST PUSH1 0x0 PUSH2 0xF4C DUP5 DUP3 DUP6 ADD PUSH2 0xF13 JUMP JUMPDEST SWAP2 POP POP SWAP3 SWAP2 POP POP JUMP JUMPDEST PUSH1 0x0 PUSH20 0xFFFFFFFFFFFFFFFFFFFFFFFFFFFFFFFFFFFFFFFF DUP3 AND SWAP1 POP SWAP2 SWAP1 POP JUMP JUMPDEST PUSH1 0x0 PUSH2 0xF80 DUP3 PUSH2 0xF55 JUMP JUMPDEST SWAP1 POP SWAP2 SWAP1 POP JUMP JUMPDEST PUSH2 0xF90 DUP2 PUSH2 0xF75 JUMP JUMPDEST DUP3 MSTORE POP POP JUMP JUMPDEST PUSH1 0x0 PUSH1 0x20 DUP3 ADD SWAP1 POP PUSH2 0xFAB PUSH1 0x0 DUP4 ADD DUP5 PUSH2 0xF87 JUMP JUMPDEST SWAP3 SWAP2 POP POP JUMP JUMPDEST PUSH2 0xFBA DUP2 PUSH2 0xF75 JUMP JUMPDEST DUP2 EQ PUSH2 0xFC5 JUMPI PUSH1 0x0 DUP1 REVERT JUMPDEST POP JUMP JUMPDEST PUSH1 0x0 DUP2 CALLDATALOAD SWAP1 POP PUSH2 0xFD7 DUP2 PUSH2 0xFB1 JUMP JUMPDEST SWAP3 SWAP2 POP POP JUMP JUMPDEST PUSH1 0x0 PUSH1 0x20 DUP3 DUP5 SUB SLT ISZERO PUSH2 0xFF3 JUMPI PUSH2 0xFF2 PUSH2 0xEF2 JUMP JUMPDEST JUMPDEST PUSH1 0x0 PUSH2 0x1001 DUP5 DUP3 DUP6 ADD PUSH2 0xFC8 JUMP JUMPDEST SWAP2 POP POP SWAP3 SWAP2 POP POP JUMP JUMPDEST PUSH1 0x0 DUP2 ISZERO ISZERO SWAP1 POP SWAP2 SWAP1 POP JUMP JUMPDEST PUSH2 0x101F DUP2 PUSH2 0x100A JUMP JUMPDEST DUP3 MSTORE POP POP JUMP JUMPDEST PUSH1 0x0 PUSH1 0x20 DUP3 ADD SWAP1 POP PUSH2 0x103A PUSH1 0x0 DUP4 ADD DUP5 PUSH2 0x1016 JUMP JUMPDEST SWAP3 SWAP2 POP POP JUMP JUMPDEST PUSH1 0x0 DUP1 REVERT JUMPDEST PUSH1 0x0 DUP1 REVERT JUMPDEST PUSH32 0x4E487B7100000000000000000000000000000000000000000000000000000000 PUSH1 0x0 MSTORE PUSH1 0x41 PUSH1 0x4 MSTORE PUSH1 0x24 PUSH1 0x0 REVERT JUMPDEST PUSH2 0x1082 DUP3 PUSH2 0xE48 JUMP JUMPDEST DUP2 ADD DUP2 DUP2 LT PUSH8 0xFFFFFFFFFFFFFFFF DUP3 GT OR ISZERO PUSH2 0x10A1 JUMPI PUSH2 0x10A0 PUSH2 0x104A JUMP JUMPDEST JUMPDEST DUP1 PUSH1 0x40 MSTORE POP POP POP JUMP JUMPDEST PUSH1 0x0 PUSH2 0x10B4 PUSH2 0xEE8 JUMP JUMPDEST SWAP1 POP PUSH2 0x10C0 DUP3 DUP3 PUSH2 0x1079 JUMP JUMPDEST SWAP2 SWAP1 POP JUMP JUMPDEST PUSH1 0x0 PUSH8 0xFFFFFFFFFFFFFFFF DUP3 GT ISZERO PUSH2 0x10E0 JUMPI PUSH2 0x10DF PUSH2 0x104A JUMP JUMPDEST JUMPDEST PUSH2 0x10E9 DUP3 PUSH2 0xE48 JUMP JUMPDEST SWAP1 POP PUSH1 0x20 DUP2 ADD SWAP1 POP SWAP2 SWAP1 POP JUMP JUMPDEST DUP3 DUP2 DUP4 CALLDATACOPY PUSH1 0x0 DUP4 DUP4 ADD MSTORE POP POP POP JUMP JUMPDEST PUSH1 0x0 PUSH2 0x1118 PUSH2 0x1113 DUP5 PUSH2 0x10C5 JUMP JUMPDEST PUSH2 0x10AA JUMP JUMPDEST SWAP1 POP DUP3 DUP2 MSTORE PUSH1 0x20 DUP2 ADD DUP5 DUP5 DUP5 ADD GT ISZERO PUSH2 0x1134 JUMPI PUSH2 0x1133 PUSH2 0x1045 JUMP JUMPDEST JUMPDEST PUSH2 0x113F DUP5 DUP3 DUP6 PUSH2 0x10F6 JUMP JUMPDEST POP SWAP4 SWAP3 POP POP POP JUMP JUMPDEST PUSH1 0x0 DUP3 PUSH1 0x1F DUP4 ADD SLT PUSH2 0x115C JUMPI PUSH2 0x115B PUSH2 0x1040 JUMP JUMPDEST JUMPDEST DUP2 CALLDATALOAD PUSH2 0x116C DUP5 DUP3 PUSH1 0x20 DUP7 ADD PUSH2 0x1105 JUMP JUMPDEST SWAP2 POP POP SWAP3 SWAP2 POP POP JUMP JUMPDEST PUSH1 0x0 DUP1 PUSH1 0x40 DUP4 DUP6 SUB SLT ISZERO PUSH2 0x118C JUMPI PUSH2 0x118B PUSH2 0xEF2 JUMP JUMPDEST JUMPDEST PUSH1 0x0 DUP4 ADD CALLDATALOAD PUSH8 0xFFFFFFFFFFFFFFFF DUP2 GT ISZERO PUSH2 0x11AA JUMPI PUSH2 0x11A9 PUSH2 0xEF7 JUMP JUMPDEST JUMPDEST PUSH2 0x11B6 DUP6 DUP3 DUP7 ADD PUSH2 0x1147 JUMP JUMPDEST SWAP3 POP POP PUSH1 0x20 PUSH2 0x11C7 DUP6 DUP3 DUP7 ADD PUSH2 0xF13 JUMP JUMPDEST SWAP2 POP POP SWAP3 POP SWAP3 SWAP1 POP JUMP JUMPDEST PUSH1 0x0 PUSH2 0x11DC DUP3 PUSH2 0xF55 JUMP JUMPDEST SWAP1 POP SWAP2 SWAP1 POP JUMP JUMPDEST PUSH2 0x11EC DUP2 PUSH2 0x11D1 JUMP JUMPDEST DUP3 MSTORE POP POP JUMP JUMPDEST PUSH1 0x0 PUSH1 0x20 DUP3 ADD SWAP1 POP PUSH2 0x1207 PUSH1 0x0 DUP4 ADD DUP5 PUSH2 0x11E3 JUMP JUMPDEST SWAP3 SWAP2 POP POP JUMP JUMPDEST PUSH32 0x4E487B7100000000000000000000000000000000000000000000000000000000 PUSH1 0x0 MSTORE PUSH1 0x22 PUSH1 0x4 MSTORE PUSH1 0x24 PUSH1 0x0 REVERT JUMPDEST PUSH1 0x0 PUSH1 0x2 DUP3 DIV SWAP1 POP PUSH1 0x1 DUP3 AND DUP1 PUSH2 0x1254 JUMPI PUSH1 0x7F DUP3 AND SWAP2 POP JUMPDEST PUSH1 0x20 DUP3 LT DUP2 EQ ISZERO PUSH2 0x1268 JUMPI PUSH2 0x1267 PUSH2 0x120D JUMP JUMPDEST JUMPDEST POP SWAP2 SWAP1 POP JUMP JUMPDEST PUSH32 0x596F75277265206E6F7420617574686F72697A65640000000000000000000000 PUSH1 0x0 DUP3 ADD MSTORE POP JUMP JUMPDEST PUSH1 0x0 PUSH2 0x12A4 PUSH1 0x15 DUP4 PUSH2 0xE04 JUMP JUMPDEST SWAP2 POP PUSH2 0x12AF DUP3 PUSH2 0x126E JUMP JUMPDEST PUSH1 0x20 DUP3 ADD SWAP1 POP SWAP2 SWAP1 POP JUMP JUMPDEST PUSH1 0x0 PUSH1 0x20 DUP3 ADD SWAP1 POP DUP2 DUP2 SUB PUSH1 0x0 DUP4 ADD MSTORE PUSH2 0x12D3 DUP2 PUSH2 0x1297 JUMP JUMPDEST SWAP1 POP SWAP2 SWAP1 POP JUMP JUMPDEST PUSH32 0x4E487B7100000000000000000000000000000000000000000000000000000000 PUSH1 0x0 MSTORE PUSH1 0x32 PUSH1 0x4 MSTORE PUSH1 0x24 PUSH1 0x0 REVERT JUMPDEST PUSH32 0x4E487B7100000000000000000000000000000000000000000000000000000000 PUSH1 0x0 MSTORE PUSH1 0x11 PUSH1 0x4 MSTORE PUSH1 0x24 PUSH1 0x0 REVERT JUMPDEST PUSH1 0x0 PUSH2 0x1343 DUP3 PUSH2 0xEB4 JUMP JUMPDEST SWAP2 POP PUSH32 0xFFFFFFFFFFFFFFFFFFFFFFFFFFFFFFFFFFFFFFFFFFFFFFFFFFFFFFFFFFFFFFFF DUP3 EQ ISZERO PUSH2 0x1376 JUMPI PUSH2 0x1375 PUSH2 0x1309 JUMP JUMPDEST JUMPDEST PUSH1 0x1 DUP3 ADD SWAP1 POP SWAP2 SWAP1 POP JUMP JUMPDEST PUSH1 0x0 PUSH1 0x40 DUP3 ADD SWAP1 POP PUSH2 0x1396 PUSH1 0x0 DUP4 ADD DUP6 PUSH2 0xEBE JUMP JUMPDEST PUSH2 0x13A3 PUSH1 0x20 DUP4 ADD DUP5 PUSH2 0xEBE JUMP JUMPDEST SWAP4 SWAP3 POP POP POP JUMP JUMPDEST PUSH1 0x0 PUSH2 0x13B5 DUP3 PUSH2 0xEB4 JUMP JUMPDEST SWAP2 POP PUSH2 0x13C0 DUP4 PUSH2 0xEB4 JUMP JUMPDEST SWAP3 POP DUP3 PUSH32 0xFFFFFFFFFFFFFFFFFFFFFFFFFFFFFFFFFFFFFFFFFFFFFFFFFFFFFFFFFFFFFFFF SUB DUP3 GT ISZERO PUSH2 0x13F5 JUMPI PUSH2 0x13F4 PUSH2 0x1309 JUMP JUMPDEST JUMPDEST DUP3 DUP3 ADD SWAP1 POP SWAP3 SWAP2 POP POP JUMP JUMPDEST PUSH1 0x0 PUSH1 0x40 DUP3 ADD SWAP1 POP PUSH2 0x1415 PUSH1 0x0 DUP4 ADD DUP6 PUSH2 0xEBE JUMP JUMPDEST DUP2 DUP2 SUB PUSH1 0x20 DUP4 ADD MSTORE PUSH2 0x1427 DUP2 DUP5 PUSH2 0xE59 JUMP JUMPDEST SWAP1 POP SWAP4 SWAP3 POP POP POP JUMP INVALID LOG2 PUSH5 0x6970667358 0x22 SLT KECCAK256 OR CALLDATACOPY SIGNEXTEND 0xD0 0xF PUSH26 0xEB2986210E2E0490329451AF8148EFEF8A0C937761A733D9F3BE PUSH5 0x736F6C6343 STOP ADDMOD EXP STOP CALLER "},"methodIdentifiers":{"accounts()":"68cd03f6","addBill(string,uint256)":"e0e184be","admin()":"f851a440","allDoctorsWallets(uint256)":"9d478014","allergies()":"93452a4c","bloodgrp()":"d20f248d","gender()":"79caad86","height()":"0ef26743","isDoctor(address)":"996440c6","name()":"06fdde03","passBill()":"8c2f1c8c","passedBills(uint256)":"369cb959","pendingBills(uint256)":"eb4f25fa","pendingRefund()":"090f610b","pid()":"f1068454","walletid()":"fbef7192","weight()":"a1aab33f"}}}}}