{
  "_format": "hh-sol-artifact-1",
  "contractName": "Doctor",
  "sourceName": "contracts/MediLedger.sol",
  "abi": [
    {
      "inputs": [
        {
          "internalType": "string",
          "name": "_name",
          "type": "string"
        },
        {
          "internalType": "uint256",
          "name": "_did",
          "type": "uint256"
        },
        {
          "internalType": "address",
          "name": "_walletid",
          "type": "address"
        }
      ],
      "stateMutability": "nonpayable",
      "type": "constructor"
    },
    {
      "inputs": [],
      "name": "name",
      "outputs": [
        {
          "internalType": "string",
          "name": "",
          "type": "string"
        }
      ],
      "stateMutability": "view",
      "type": "function"
    },
    {
      "inputs": [],
      "name": "walletid",
      "outputs": [
        {
          "internalType": "address",
          "name": "",
          "type": "address"
        }
      ],
      "stateMutability": "view",
      "type": "function"
    }
  ],
  "bytecode": "0x608060405234801561001057600080fd5b506040516107063803806107068339818101604052810190610032919061034e565b8260009080519060200190610048929190610099565b508160018190555080600260006101000a81548173ffffffffffffffffffffffffffffffffffffffff021916908373ffffffffffffffffffffffffffffffffffffffff16021790555050505061041e565b8280546100a5906103ec565b90600052602060002090601f0160209004810192826100c7576000855561010e565b82601f106100e057805160ff191683800117855561010e565b8280016001018555821561010e579182015b8281111561010d5782518255916020019190600101906100f2565b5b50905061011b919061011f565b5090565b5b80821115610138576000816000905550600101610120565b5090565b6000604051905090565b600080fd5b600080fd5b600080fd5b600080fd5b6000601f19601f8301169050919050565b7f4e487b7100000000000000000000000000000000000000000000000000000000600052604160045260246000fd5b6101a38261015a565b810181811067ffffffffffffffff821117156101c2576101c161016b565b5b80604052505050565b60006101d561013c565b90506101e1828261019a565b919050565b600067ffffffffffffffff8211156102015761020061016b565b5b61020a8261015a565b9050602081019050919050565b60005b8381101561023557808201518184015260208101905061021a565b83811115610244576000848401525b50505050565b600061025d610258846101e6565b6101cb565b90508281526020810184848401111561027957610278610155565b5b610284848285610217565b509392505050565b600082601f8301126102a1576102a0610150565b5b81516102b184826020860161024a565b91505092915050565b6000819050919050565b6102cd816102ba565b81146102d857600080fd5b50565b6000815190506102ea816102c4565b92915050565b600073ffffffffffffffffffffffffffffffffffffffff82169050919050565b600061031b826102f0565b9050919050565b61032b81610310565b811461033657600080fd5b50565b60008151905061034881610322565b92915050565b60008060006060848603121561036757610366610146565b5b600084015167ffffffffffffffff8111156103855761038461014b565b5b6103918682870161028c565b93505060206103a2868287016102db565b92505060406103b386828701610339565b9150509250925092565b7f4e487b7100000000000000000000000000000000000000000000000000000000600052602260045260246000fd5b6000600282049050600182168061040457607f821691505b60208210811415610418576104176103bd565b5b50919050565b6102d98061042d6000396000f3fe608060405234801561001057600080fd5b50600436106100365760003560e01c806306fdde031461003b578063fbef719214610059575b600080fd5b610043610077565b60405161005091906101c4565b60405180910390f35b610061610105565b60405161006e9190610227565b60405180910390f35b6000805461008490610271565b80601f01602080910402602001604051908101604052809291908181526020018280546100b090610271565b80156100fd5780601f106100d2576101008083540402835291602001916100fd565b820191906000526020600020905b8154815290600101906020018083116100e057829003601f168201915b505050505081565b600260009054906101000a900473ffffffffffffffffffffffffffffffffffffffff1681565b600081519050919050565b600082825260208201905092915050565b60005b8381101561016557808201518184015260208101905061014a565b83811115610174576000848401525b50505050565b6000601f19601f8301169050919050565b60006101968261012b565b6101a08185610136565b93506101b0818560208601610147565b6101b98161017a565b840191505092915050565b600060208201905081810360008301526101de818461018b565b905092915050565b600073ffffffffffffffffffffffffffffffffffffffff82169050919050565b6000610211826101e6565b9050919050565b61022181610206565b82525050565b600060208201905061023c6000830184610218565b92915050565b7f4e487b7100000000000000000000000000000000000000000000000000000000600052602260045260246000fd5b6000600282049050600182168061028957607f821691505b6020821081141561029d5761029c610242565b5b5091905056fea26469706673582212204a6a7bae46164319347e616b93d083673b851e4f58f63f62629fb894052ee37f64736f6c634300080a0033",
  "linkReferences": {},
  "deployedLinkReferences": {}
}