{
  "_format": "hh-sol-artifact-1",
  "contractName": "MediLedger",
  "sourceName": "contracts/MediLedger.sol",
  "abi": [
    {
      "inputs": [],
      "stateMutability": "nonpayable",
      "type": "constructor"
    },
    {
      "anonymous": false,
      "inputs": [
        {
          "indexed": true,
          "internalType": "string",
          "name": "did",
          "type": "string"
        },
        {
          "indexed": false,
          "internalType": "string",
          "name": "name",
          "type": "string"
        },
        {
          "indexed": false,
          "internalType": "address",
          "name": "contractAddress",
          "type": "address"
        },
        {
          "indexed": false,
          "internalType": "address",
          "name": "daddress",
          "type": "address"
        }
      ],
      "name": "allDoctor",
      "type": "event"
    },
    {
      "anonymous": false,
      "inputs": [
        {
          "indexed": true,
          "internalType": "string",
          "name": "fid",
          "type": "string"
        },
        {
          "indexed": false,
          "internalType": "string",
          "name": "name",
          "type": "string"
        },
        {
          "indexed": false,
          "internalType": "address",
          "name": "contractAddress",
          "type": "address"
        },
        {
          "indexed": false,
          "internalType": "address",
          "name": "paddress",
          "type": "address"
        }
      ],
      "name": "allPatient",
      "type": "event"
    },
    {
      "inputs": [],
      "name": "accounts",
      "outputs": [
        {
          "internalType": "address",
          "name": "",
          "type": "address"
        }
      ],
      "stateMutability": "view",
      "type": "function"
    },
    {
      "inputs": [
        {
          "internalType": "string",
          "name": "name",
          "type": "string"
        },
        {
          "internalType": "string",
          "name": "did",
          "type": "string"
        },
        {
          "internalType": "string",
          "name": "walletid",
          "type": "string"
        }
      ],
      "name": "addDoctor",
      "outputs": [],
      "stateMutability": "nonpayable",
      "type": "function"
    },
    {
      "inputs": [
        {
          "internalType": "address",
          "name": "wallet",
          "type": "address"
        }
      ],
      "name": "addDoctorWallet",
      "outputs": [],
      "stateMutability": "nonpayable",
      "type": "function"
    },
    {
      "inputs": [
        {
          "internalType": "string",
          "name": "_name",
          "type": "string"
        },
        {
          "internalType": "string",
          "name": "_fid",
          "type": "string"
        },
        {
          "internalType": "string",
          "name": "walletid",
          "type": "string"
        }
      ],
      "name": "addPatient",
      "outputs": [],
      "stateMutability": "nonpayable",
      "type": "function"
    },
    {
      "inputs": [],
      "name": "admin",
      "outputs": [
        {
          "internalType": "address",
          "name": "",
          "type": "address"
        }
      ],
      "stateMutability": "view",
      "type": "function"
    },
    {
      "inputs": [
        {
          "internalType": "uint256",
          "name": "",
          "type": "uint256"
        }
      ],
      "name": "allDoctorsWallets",
      "outputs": [
        {
          "internalType": "address",
          "name": "",
          "type": "address"
        }
      ],
      "stateMutability": "view",
      "type": "function"
    }
  ],
  "bytecode": "0x608060405234801561001057600080fd5b5033600160006101000a81548173ffffffffffffffffffffffffffffffffffffffff021916908373ffffffffffffffffffffffffffffffffffffffff16021790555073dd870fa1b7c4700f2bd7f44238821c26f7392148600260006101000a81548173ffffffffffffffffffffffffffffffffffffffff021916908373ffffffffffffffffffffffffffffffffffffffff160217905550612e2e806100b66000396000f3fe60806040523480156200001157600080fd5b50600436106200006a5760003560e01c80630c380fc9146200006f5780635911bc2d146200008f57806368cd03f614620000af5780639d47801414620000d1578063c0adb5d01462000107578063f851a4401462000127575b600080fd5b6200008d600480360381019062000087919062000633565b62000149565b005b620000ad6004803603810190620000a7919062000633565b62000241565b005b620000b9620003af565b604051620000c8919062000731565b60405180910390f35b620000ef6004803603810190620000e9919062000789565b620003d5565b604051620000fe919062000731565b60405180910390f35b6200012560048036038101906200011f9190620007ec565b62000415565b005b620001316200047b565b60405162000140919062000731565b60405180910390f35b600081620001579062000889565b60601c905060008484600260009054906101000a900473ffffffffffffffffffffffffffffffffffffffff16600160009054906101000a900473ffffffffffffffffffffffffffffffffffffffff1685604051620001b590620004a1565b620001c5959493929190620009b1565b604051809103906000f080158015620001e2573d6000803e3d6000fd5b50905083604051620001f5919062000a5e565b60405180910390207f9554b88d9c819ef1b682f1f968daf8f00752d267e901b3ad5a8e30764b3b7c40868385604051620002329392919062000a77565b60405180910390a25050505050565b600160009054906101000a900473ffffffffffffffffffffffffffffffffffffffff1673ffffffffffffffffffffffffffffffffffffffff163373ffffffffffffffffffffffffffffffffffffffff16146200029c57600080fd5b600081620002aa9062000889565b60601c90506000848483604051620002c290620004af565b620002d09392919062000abb565b604051809103906000f080158015620002ed573d6000803e3d6000fd5b5090506000829080600181540180825580915050600190039060005260206000200160009091909190916101000a81548173ffffffffffffffffffffffffffffffffffffffff021916908373ffffffffffffffffffffffffffffffffffffffff1602179055508360405162000363919062000a5e565b60405180910390207fde6c860a00d5551bfe3fa2170d4179672b11394eec1b45cd6b1c6f97820add72868385604051620003a09392919062000a77565b60405180910390a25050505050565b600260009054906101000a900473ffffffffffffffffffffffffffffffffffffffff1681565b60008181548110620003e657600080fd5b906000526020600020016000915054906101000a900473ffffffffffffffffffffffffffffffffffffffff1681565b6000819080600181540180825580915050600190039060005260206000200160009091909190916101000a81548173ffffffffffffffffffffffffffffffffffffffff021916908373ffffffffffffffffffffffffffffffffffffffff16021790555050565b600160009054906101000a900473ffffffffffffffffffffffffffffffffffffffff1681565b611aee8062000b0783390190565b61080480620025f583390190565b6000604051905090565b600080fd5b600080fd5b600080fd5b600080fd5b6000601f19601f8301169050919050565b7f4e487b7100000000000000000000000000000000000000000000000000000000600052604160045260246000fd5b6200052682620004db565b810181811067ffffffffffffffff82111715620005485762000547620004ec565b5b80604052505050565b60006200055d620004bd565b90506200056b82826200051b565b919050565b600067ffffffffffffffff8211156200058e576200058d620004ec565b5b6200059982620004db565b9050602081019050919050565b82818337600083830152505050565b6000620005cc620005c68462000570565b62000551565b905082815260208101848484011115620005eb57620005ea620004d6565b5b620005f8848285620005a6565b509392505050565b600082601f830112620006185762000617620004d1565b5b81356200062a848260208601620005b5565b91505092915050565b6000806000606084860312156200064f576200064e620004c7565b5b600084013567ffffffffffffffff81111562000670576200066f620004cc565b5b6200067e8682870162000600565b935050602084013567ffffffffffffffff811115620006a257620006a1620004cc565b5b620006b08682870162000600565b925050604084013567ffffffffffffffff811115620006d457620006d3620004cc565b5b620006e28682870162000600565b9150509250925092565b600073ffffffffffffffffffffffffffffffffffffffff82169050919050565b60006200071982620006ec565b9050919050565b6200072b816200070c565b82525050565b600060208201905062000748600083018462000720565b92915050565b6000819050919050565b62000763816200074e565b81146200076f57600080fd5b50565b600081359050620007838162000758565b92915050565b600060208284031215620007a257620007a1620004c7565b5b6000620007b28482850162000772565b91505092915050565b620007c6816200070c565b8114620007d257600080fd5b50565b600081359050620007e681620007bb565b92915050565b600060208284031215620008055762000804620004c7565b5b60006200081584828501620007d5565b91505092915050565b600081519050919050565b6000819050602082019050919050565b60007fffffffffffffffffffffffffffffffffffffffff00000000000000000000000082169050919050565b600062000873825162000839565b80915050919050565b600082821b905092915050565b600062000896826200081e565b82620008a28462000829565b9050620008af8162000865565b92506014821015620008f257620008ed7fffffffffffffffffffffffffffffffffffffffff000000000000000000000000836014036008026200087c565b831692505b5050919050565b600081519050919050565b600082825260208201905092915050565b60005b838110156200093557808201518184015260208101905062000918565b8381111562000945576000848401525b50505050565b60006200095882620008f9565b62000964818562000904565b93506200097681856020860162000915565b6200098181620004db565b840191505092915050565b60006200099982620006ec565b9050919050565b620009ab816200098c565b82525050565b600060a0820190508181036000830152620009cd81886200094b565b90508181036020830152620009e381876200094b565b9050620009f4604083018662000720565b62000a03606083018562000720565b62000a126080830184620009a0565b9695505050505050565b600081905092915050565b600062000a3482620008f9565b62000a40818562000a1c565b935062000a5281856020860162000915565b80840191505092915050565b600062000a6c828462000a27565b915081905092915050565b6000606082019050818103600083015262000a9381866200094b565b905062000aa4602083018562000720565b62000ab3604083018462000720565b949350505050565b6000606082019050818103600083015262000ad781866200094b565b9050818103602083015262000aed81856200094b565b905062000afe604083018462000720565b94935050505056fe60806040523480156200001157600080fd5b5060405162001aee38038062001aee83398181016040528101906200003791906200042e565b84600190805190602001906200004f92919062000137565b5083600290805190602001906200006892919062000137565b5082600660006101000a81548173ffffffffffffffffffffffffffffffffffffffff021916908373ffffffffffffffffffffffffffffffffffffffff16021790555081600360006101000a81548173ffffffffffffffffffffffffffffffffffffffff021916908373ffffffffffffffffffffffffffffffffffffffff16021790555080600860006101000a81548173ffffffffffffffffffffffffffffffffffffffff021916908373ffffffffffffffffffffffffffffffffffffffff160217905550505050505062000559565b828054620001459062000523565b90600052602060002090601f016020900481019282620001695760008555620001b5565b82601f106200018457805160ff1916838001178555620001b5565b82800160010185558215620001b5579182015b82811115620001b457825182559160200191906001019062000197565b5b509050620001c49190620001c8565b5090565b5b80821115620001e3576000816000905550600101620001c9565b5090565b6000604051905090565b600080fd5b600080fd5b600080fd5b600080fd5b6000601f19601f8301169050919050565b7f4e487b7100000000000000000000000000000000000000000000000000000000600052604160045260246000fd5b620002508262000205565b810181811067ffffffffffffffff8211171562000272576200027162000216565b5b80604052505050565b600062000287620001e7565b905062000295828262000245565b919050565b600067ffffffffffffffff821115620002b857620002b762000216565b5b620002c38262000205565b9050602081019050919050565b60005b83811015620002f0578082015181840152602081019050620002d3565b8381111562000300576000848401525b50505050565b60006200031d62000317846200029a565b6200027b565b9050828152602081018484840111156200033c576200033b62000200565b5b62000349848285620002d0565b509392505050565b600082601f830112620003695762000368620001fb565b5b81516200037b84826020860162000306565b91505092915050565b600073ffffffffffffffffffffffffffffffffffffffff82169050919050565b6000620003b18262000384565b9050919050565b620003c381620003a4565b8114620003cf57600080fd5b50565b600081519050620003e381620003b8565b92915050565b6000620003f68262000384565b9050919050565b6200040881620003e9565b81146200041457600080fd5b50565b6000815190506200042881620003fd565b92915050565b600080600080600060a086880312156200044d576200044c620001f1565b5b600086015167ffffffffffffffff8111156200046e576200046d620001f6565b5b6200047c8882890162000351565b955050602086015167ffffffffffffffff811115620004a0576200049f620001f6565b5b620004ae8882890162000351565b9450506040620004c188828901620003d2565b9350506060620004d488828901620003d2565b9250506080620004e78882890162000417565b9150509295509295909350565b7f4e487b7100000000000000000000000000000000000000000000000000000000600052602260045260246000fd5b600060028204905060018216806200053c57607f821691505b60208210811415620005535762000552620004f4565b5b50919050565b61158580620005696000396000f3fe6080604052600436106100f35760003560e01c80639d4780141161008a578063eb4f25fa11610059578063eb4f25fa1461030d578063f10684541461034a578063f851a44014610375578063fbef7192146103a0576100f3565b80639d47801414610253578063c0adb5d014610290578063c5babf4f146102b9578063e0e184be146102e4576100f3565b80635e6c7f48116100c65780635e6c7f48146101b657806368cd03f6146101e15780638c2f1c8c1461020c578063996440c614610216576100f3565b806306fdde03146100f8578063090f610b14610123578063369cb9591461014e57806352d173a41461018b575b600080fd5b34801561010457600080fd5b5061010d6103cb565b60405161011a9190610eef565b60405180910390f35b34801561012f57600080fd5b50610138610459565b6040516101459190610f2a565b60405180910390f35b34801561015a57600080fd5b5061017560048036038101906101709190610f85565b61045f565b6040516101829190610eef565b60405180910390f35b34801561019757600080fd5b506101a061050b565b6040516101ad91906110be565b60405180910390f35b3480156101c257600080fd5b506101cb6105e4565b6040516101d89190610f2a565b60405180910390f35b3480156101ed57600080fd5b506101f66105ee565b6040516102039190611121565b60405180910390f35b610214610614565b005b34801561022257600080fd5b5061023d60048036038101906102389190611168565b610804565b60405161024a91906111b0565b60405180910390f35b34801561025f57600080fd5b5061027a60048036038101906102759190610f85565b6108b3565b6040516102879190611121565b60405180910390f35b34801561029c57600080fd5b506102b760048036038101906102b29190611168565b6108f2565b005b3480156102c557600080fd5b506102ce610958565b6040516102db91906110be565b60405180910390f35b3480156102f057600080fd5b5061030b60048036038101906103069190611300565b610a31565b005b34801561031957600080fd5b50610334600480360381019061032f9190610f85565b610adc565b6040516103419190610eef565b60405180910390f35b34801561035657600080fd5b5061035f610b88565b60405161036c9190610eef565b60405180910390f35b34801561038157600080fd5b5061038a610c16565b6040516103979190611121565b60405180910390f35b3480156103ac57600080fd5b506103b5610c3c565b6040516103c2919061137d565b60405180910390f35b600180546103d8906113c7565b80601f0160208091040260200160405190810160405280929190818152602001828054610404906113c7565b80156104515780601f1061042657610100808354040283529160200191610451565b820191906000526020600020905b81548152906001019060200180831161043457829003601f168201915b505050505081565b60075481565b6005818154811061046f57600080fd5b90600052602060002001600091509050805461048a906113c7565b80601f01602080910402602001604051908101604052809291908181526020018280546104b6906113c7565b80156105035780601f106104d857610100808354040283529160200191610503565b820191906000526020600020905b8154815290600101906020018083116104e657829003601f168201915b505050505081565b60606004805480602002602001604051908101604052809291908181526020016000905b828210156105db57838290600052602060002001805461054e906113c7565b80601f016020809104026020016040519081016040528092919081815260200182805461057a906113c7565b80156105c75780601f1061059c576101008083540402835291602001916105c7565b820191906000526020600020905b8154815290600101906020018083116105aa57829003601f168201915b50505050508152602001906001019061052f565b50505050905090565b6000600754905090565b600660009054906101000a900473ffffffffffffffffffffffffffffffffffffffff1681565b600660009054906101000a900473ffffffffffffffffffffffffffffffffffffffff1673ffffffffffffffffffffffffffffffffffffffff163373ffffffffffffffffffffffffffffffffffffffff161461066e57600080fd5b600860009054906101000a900473ffffffffffffffffffffffffffffffffffffffff1673ffffffffffffffffffffffffffffffffffffffff166108fc6007549081150290604051600060405180830381858888f193505050501580156106d8573d6000803e3d6000fd5b5060005b600480549050811015610759576005600482815481106106ff576106fe6113f9565b5b906000526020600020019080600181540180825580915050600190039060005260206000200160009091909190915090805461073a906113c7565b610745929190610c62565b50808061075190611457565b9150506106dc565b50600067ffffffffffffffff811115610775576107746111d5565b5b6040519080825280602002602001820160405280156107a857816020015b60608152602001906001900390816107935790505b50600490805190602001906107be929190610cef565b507f5812d1d1defe497f04e4435407750ca253b84ba856e9057292bc0d13dac53975426007546040516107f29291906114a0565b60405180910390a16000600781905550565b600080600090505b6000805490508110156108a8578273ffffffffffffffffffffffffffffffffffffffff1660008281548110610844576108436113f9565b5b9060005260206000200160009054906101000a900473ffffffffffffffffffffffffffffffffffffffff1673ffffffffffffffffffffffffffffffffffffffff1614156108955760019150506108ae565b80806108a090611457565b91505061080c565b50600090505b919050565b600081815481106108c357600080fd5b906000526020600020016000915054906101000a900473ffffffffffffffffffffffffffffffffffffffff1681565b6000819080600181540180825580915050600190039060005260206000200160009091909190916101000a81548173ffffffffffffffffffffffffffffffffffffffff021916908373ffffffffffffffffffffffffffffffffffffffff16021790555050565b60606005805480602002602001604051908101604052809291908181526020016000905b82821015610a2857838290600052602060002001805461099b906113c7565b80601f01602080910402602001604051908101604052809291908181526020018280546109c7906113c7565b8015610a145780601f106109e957610100808354040283529160200191610a14565b820191906000526020600020905b8154815290600101906020018083116109f757829003601f168201915b50505050508152602001906001019061097c565b50505050905090565b60011515610a3e33610804565b151514610a4a57600080fd5b600482908060018154018082558091505060019003906000526020600020016000909190919091509080519060200190610a85929190610d4f565b508060076000828254610a9891906114c9565b925050819055507f675016af78705a2591da6c28a48f2ca9468ce65f3711e50acbc799a1a9eb9d844283604051610ad092919061151f565b60405180910390a15050565b60048181548110610aec57600080fd5b906000526020600020016000915090508054610b07906113c7565b80601f0160208091040260200160405190810160405280929190818152602001828054610b33906113c7565b8015610b805780601f10610b5557610100808354040283529160200191610b80565b820191906000526020600020905b815481529060010190602001808311610b6357829003601f168201915b505050505081565b60028054610b95906113c7565b80601f0160208091040260200160405190810160405280929190818152602001828054610bc1906113c7565b8015610c0e5780601f10610be357610100808354040283529160200191610c0e565b820191906000526020600020905b815481529060010190602001808311610bf157829003601f168201915b505050505081565b600360009054906101000a900473ffffffffffffffffffffffffffffffffffffffff1681565b600860009054906101000a900473ffffffffffffffffffffffffffffffffffffffff1681565b828054610c6e906113c7565b90600052602060002090601f016020900481019282610c905760008555610cde565b82601f10610ca15780548555610cde565b82800160010185558215610cde57600052602060002091601f016020900482015b82811115610cdd578254825591600101919060010190610cc2565b5b509050610ceb9190610dd5565b5090565b828054828255906000526020600020908101928215610d3e579160200282015b82811115610d3d578251829080519060200190610d2d929190610d4f565b5091602001919060010190610d0f565b5b509050610d4b9190610df2565b5090565b828054610d5b906113c7565b90600052602060002090601f016020900481019282610d7d5760008555610dc4565b82601f10610d9657805160ff1916838001178555610dc4565b82800160010185558215610dc4579182015b82811115610dc3578251825591602001919060010190610da8565b5b509050610dd19190610dd5565b5090565b5b80821115610dee576000816000905550600101610dd6565b5090565b5b80821115610e125760008181610e099190610e16565b50600101610df3565b5090565b508054610e22906113c7565b6000825580601f10610e345750610e53565b601f016020900490600052602060002090810190610e529190610dd5565b5b50565b600081519050919050565b600082825260208201905092915050565b60005b83811015610e90578082015181840152602081019050610e75565b83811115610e9f576000848401525b50505050565b6000601f19601f8301169050919050565b6000610ec182610e56565b610ecb8185610e61565b9350610edb818560208601610e72565b610ee481610ea5565b840191505092915050565b60006020820190508181036000830152610f098184610eb6565b905092915050565b6000819050919050565b610f2481610f11565b82525050565b6000602082019050610f3f6000830184610f1b565b92915050565b6000604051905090565b600080fd5b600080fd5b610f6281610f11565b8114610f6d57600080fd5b50565b600081359050610f7f81610f59565b92915050565b600060208284031215610f9b57610f9a610f4f565b5b6000610fa984828501610f70565b91505092915050565b600081519050919050565b600082825260208201905092915050565b6000819050602082019050919050565b600082825260208201905092915050565b6000610ffa82610e56565b6110048185610fde565b9350611014818560208601610e72565b61101d81610ea5565b840191505092915050565b60006110348383610fef565b905092915050565b6000602082019050919050565b600061105482610fb2565b61105e8185610fbd565b93508360208202850161107085610fce565b8060005b858110156110ac578484038952815161108d8582611028565b94506110988361103c565b925060208a01995050600181019050611074565b50829750879550505050505092915050565b600060208201905081810360008301526110d88184611049565b905092915050565b600073ffffffffffffffffffffffffffffffffffffffff82169050919050565b600061110b826110e0565b9050919050565b61111b81611100565b82525050565b60006020820190506111366000830184611112565b92915050565b61114581611100565b811461115057600080fd5b50565b6000813590506111628161113c565b92915050565b60006020828403121561117e5761117d610f4f565b5b600061118c84828501611153565b91505092915050565b60008115159050919050565b6111aa81611195565b82525050565b60006020820190506111c560008301846111a1565b92915050565b600080fd5b600080fd5b7f4e487b7100000000000000000000000000000000000000000000000000000000600052604160045260246000fd5b61120d82610ea5565b810181811067ffffffffffffffff8211171561122c5761122b6111d5565b5b80604052505050565b600061123f610f45565b905061124b8282611204565b919050565b600067ffffffffffffffff82111561126b5761126a6111d5565b5b61127482610ea5565b9050602081019050919050565b82818337600083830152505050565b60006112a361129e84611250565b611235565b9050828152602081018484840111156112bf576112be6111d0565b5b6112ca848285611281565b509392505050565b600082601f8301126112e7576112e66111cb565b5b81356112f7848260208601611290565b91505092915050565b6000806040838503121561131757611316610f4f565b5b600083013567ffffffffffffffff81111561133557611334610f54565b5b611341858286016112d2565b925050602061135285828601610f70565b9150509250929050565b6000611367826110e0565b9050919050565b6113778161135c565b82525050565b6000602082019050611392600083018461136e565b92915050565b7f4e487b7100000000000000000000000000000000000000000000000000000000600052602260045260246000fd5b600060028204905060018216806113df57607f821691505b602082108114156113f3576113f2611398565b5b50919050565b7f4e487b7100000000000000000000000000000000000000000000000000000000600052603260045260246000fd5b7f4e487b7100000000000000000000000000000000000000000000000000000000600052601160045260246000fd5b600061146282610f11565b91507fffffffffffffffffffffffffffffffffffffffffffffffffffffffffffffffff82141561149557611494611428565b5b600182019050919050565b60006040820190506114b56000830185610f1b565b6114c26020830184610f1b565b9392505050565b60006114d482610f11565b91506114df83610f11565b9250827fffffffffffffffffffffffffffffffffffffffffffffffffffffffffffffffff0382111561151457611513611428565b5b828201905092915050565b60006040820190506115346000830185610f1b565b81810360208301526115468184610eb6565b9050939250505056fea26469706673582212204a18fb79b0bda990ffd06e1bca5a4e89fcfb052a1278bedec33f17201c97dbd964736f6c634300080a003360806040523480156200001157600080fd5b506040516200080438038062000804833981810160405281019062000037919062000365565b82600090805190602001906200004f929190620000b3565b50816001908051906020019062000068929190620000b3565b5080600260006101000a81548173ffffffffffffffffffffffffffffffffffffffff021916908373ffffffffffffffffffffffffffffffffffffffff16021790555050505062000464565b828054620000c1906200042e565b90600052602060002090601f016020900481019282620000e5576000855562000131565b82601f106200010057805160ff191683800117855562000131565b8280016001018555821562000131579182015b828111156200013057825182559160200191906001019062000113565b5b50905062000140919062000144565b5090565b5b808211156200015f57600081600090555060010162000145565b5090565b6000604051905090565b600080fd5b600080fd5b600080fd5b600080fd5b6000601f19601f8301169050919050565b7f4e487b7100000000000000000000000000000000000000000000000000000000600052604160045260246000fd5b620001cc8262000181565b810181811067ffffffffffffffff82111715620001ee57620001ed62000192565b5b80604052505050565b60006200020362000163565b9050620002118282620001c1565b919050565b600067ffffffffffffffff82111562000234576200023362000192565b5b6200023f8262000181565b9050602081019050919050565b60005b838110156200026c5780820151818401526020810190506200024f565b838111156200027c576000848401525b50505050565b600062000299620002938462000216565b620001f7565b905082815260208101848484011115620002b857620002b76200017c565b5b620002c58482856200024c565b509392505050565b600082601f830112620002e557620002e462000177565b5b8151620002f784826020860162000282565b91505092915050565b600073ffffffffffffffffffffffffffffffffffffffff82169050919050565b60006200032d8262000300565b9050919050565b6200033f8162000320565b81146200034b57600080fd5b50565b6000815190506200035f8162000334565b92915050565b6000806000606084860312156200038157620003806200016d565b5b600084015167ffffffffffffffff811115620003a257620003a162000172565b5b620003b086828701620002cd565b935050602084015167ffffffffffffffff811115620003d457620003d362000172565b5b620003e286828701620002cd565b9250506040620003f5868287016200034e565b9150509250925092565b7f4e487b7100000000000000000000000000000000000000000000000000000000600052602260045260246000fd5b600060028204905060018216806200044757607f821691505b602082108114156200045e576200045d620003ff565b5b50919050565b61039080620004746000396000f3fe608060405234801561001057600080fd5b50600436106100415760003560e01c806306fdde0314610046578063e6fcc84b14610064578063fbef719214610082575b600080fd5b61004e6100a0565b60405161005b919061027b565b60405180910390f35b61006c61012e565b604051610079919061027b565b60405180910390f35b61008a6101bc565b60405161009791906102de565b60405180910390f35b600080546100ad90610328565b80601f01602080910402602001604051908101604052809291908181526020018280546100d990610328565b80156101265780601f106100fb57610100808354040283529160200191610126565b820191906000526020600020905b81548152906001019060200180831161010957829003601f168201915b505050505081565b6001805461013b90610328565b80601f016020809104026020016040519081016040528092919081815260200182805461016790610328565b80156101b45780601f10610189576101008083540402835291602001916101b4565b820191906000526020600020905b81548152906001019060200180831161019757829003601f168201915b505050505081565b600260009054906101000a900473ffffffffffffffffffffffffffffffffffffffff1681565b600081519050919050565b600082825260208201905092915050565b60005b8381101561021c578082015181840152602081019050610201565b8381111561022b576000848401525b50505050565b6000601f19601f8301169050919050565b600061024d826101e2565b61025781856101ed565b93506102678185602086016101fe565b61027081610231565b840191505092915050565b600060208201905081810360008301526102958184610242565b905092915050565b600073ffffffffffffffffffffffffffffffffffffffff82169050919050565b60006102c88261029d565b9050919050565b6102d8816102bd565b82525050565b60006020820190506102f360008301846102cf565b92915050565b7f4e487b7100000000000000000000000000000000000000000000000000000000600052602260045260246000fd5b6000600282049050600182168061034057607f821691505b60208210811415610354576103536102f9565b5b5091905056fea2646970667358221220531b84581ef48576449ea280cad004e01c164a7342600ee17e74ba94e27f8cee64736f6c634300080a0033a2646970667358221220e6a23e4b0aebcfb95d28b1d8f3629d8c5dbf15dd5368bcd3f415317ac13a412c64736f6c634300080a0033",
  "linkReferences": {},
  "deployedLinkReferences": {}
}