{
  "_format": "hh-sol-artifact-1",
  "contractName": "MediLedger",
  "sourceName": "contracts/MediLedger.sol",
  "abi": [
    {
      "inputs": [],
      "stateMutability": "nonpayable",
      "type": "constructor"
    },
    {
      "anonymous": false,
      "inputs": [
        {
          "indexed": true,
          "internalType": "uint256",
          "name": "did",
          "type": "uint256"
        },
        {
          "indexed": false,
          "internalType": "string",
          "name": "name",
          "type": "string"
        },
        {
          "indexed": false,
          "internalType": "address",
          "name": "contractAddress",
          "type": "address"
        },
        {
          "indexed": false,
          "internalType": "address",
          "name": "daddress",
          "type": "address"
        }
      ],
      "name": "allDoctor",
      "type": "event"
    },
    {
      "anonymous": false,
      "inputs": [
        {
          "indexed": true,
          "internalType": "uint256",
          "name": "pid",
          "type": "uint256"
        },
        {
          "indexed": true,
          "internalType": "address",
          "name": "walletid",
          "type": "address"
        },
        {
          "indexed": false,
          "internalType": "address",
          "name": "contractAddress",
          "type": "address"
        },
        {
          "indexed": false,
          "internalType": "string",
          "name": "name",
          "type": "string"
        },
        {
          "indexed": false,
          "internalType": "string",
          "name": "gender",
          "type": "string"
        },
        {
          "indexed": false,
          "internalType": "string",
          "name": "allergies",
          "type": "string"
        },
        {
          "indexed": false,
          "internalType": "uint256",
          "name": "height",
          "type": "uint256"
        },
        {
          "indexed": false,
          "internalType": "uint256",
          "name": "weight",
          "type": "uint256"
        },
        {
          "indexed": false,
          "internalType": "string",
          "name": "bloodgrp",
          "type": "string"
        }
      ],
      "name": "allPatient",
      "type": "event"
    },
    {
      "inputs": [],
      "name": "accounts",
      "outputs": [
        {
          "internalType": "address",
          "name": "",
          "type": "address"
        }
      ],
      "stateMutability": "view",
      "type": "function"
    },
    {
      "inputs": [
        {
          "internalType": "string",
          "name": "name",
          "type": "string"
        },
        {
          "internalType": "uint256",
          "name": "did",
          "type": "uint256"
        },
        {
          "internalType": "address",
          "name": "walletid",
          "type": "address"
        }
      ],
      "name": "addDoctor",
      "outputs": [],
      "stateMutability": "nonpayable",
      "type": "function"
    },
    {
      "inputs": [
        {
          "internalType": "string",
          "name": "_name",
          "type": "string"
        },
        {
          "internalType": "uint256",
          "name": "_fid",
          "type": "uint256"
        },
        {
          "internalType": "string",
          "name": "_gender",
          "type": "string"
        },
        {
          "internalType": "string",
          "name": "_allergies",
          "type": "string"
        },
        {
          "internalType": "string",
          "name": "_bloodgrp",
          "type": "string"
        },
        {
          "internalType": "uint256",
          "name": "_height",
          "type": "uint256"
        },
        {
          "internalType": "uint256",
          "name": "_weight",
          "type": "uint256"
        },
        {
          "internalType": "address payable",
          "name": "_walletid",
          "type": "address"
        }
      ],
      "name": "addPatient",
      "outputs": [],
      "stateMutability": "nonpayable",
      "type": "function"
    },
    {
      "inputs": [],
      "name": "admin",
      "outputs": [
        {
          "internalType": "address",
          "name": "",
          "type": "address"
        }
      ],
      "stateMutability": "view",
      "type": "function"
    }
  ],
  "bytecode": "0x608060405234801561001057600080fd5b50336000806101000a81548173ffffffffffffffffffffffffffffffffffffffff021916908373ffffffffffffffffffffffffffffffffffffffff160217905550737814c6fd323a2eb88d257289682e3c2c8e945c82600160006101000a81548173ffffffffffffffffffffffffffffffffffffffff021916908373ffffffffffffffffffffffffffffffffffffffff160217905550612962806100b56000396000f3fe60806040523480156200001157600080fd5b5060043610620000525760003560e01c8063461603be146200005757806368cd03f614620000775780638dddcdfa1462000099578063f851a44014620000b9575b600080fd5b6200007560048036038101906200006f9190620005bf565b620000db565b005b62000081620001f1565b6040516200009091906200064b565b60405180910390f35b620000b76004803603810190620000b19190620006ad565b62000217565b005b620000c362000369565b604051620000d291906200064b565b60405180910390f35b60008054906101000a900473ffffffffffffffffffffffffffffffffffffffff1673ffffffffffffffffffffffffffffffffffffffff163373ffffffffffffffffffffffffffffffffffffffff16146200016c576040517f08c379a0000000000000000000000000000000000000000000000000000000008152600401620001639062000853565b60405180910390fd5b60008383836040516200017f906200038d565b6200018d9392919062000908565b604051809103906000f080158015620001aa573d6000803e3d6000fd5b509050827f035e701189d41fce6ea0103e298f7ec9281249daa7bbd511ab0f2da6f75c16d8858385604051620001e3939291906200094c565b60405180910390a250505050565b600160009054906101000a900473ffffffffffffffffffffffffffffffffffffffff1681565b60008054906101000a900473ffffffffffffffffffffffffffffffffffffffff1673ffffffffffffffffffffffffffffffffffffffff163373ffffffffffffffffffffffffffffffffffffffff16146200027057600080fd5b60008888888887878a600160009054906101000a900473ffffffffffffffffffffffffffffffffffffffff1660008054906101000a900473ffffffffffffffffffffffffffffffffffffffff168a604051620002cc906200039b565b620002e19a99989796959493929190620009a1565b604051809103906000f080158015620002fe573d6000803e3d6000fd5b5090508173ffffffffffffffffffffffffffffffffffffffff16887f1005f59c1850dac8d83bbff6a299e13a89854d417ad2a036510178f8d30e90c7838c8b8b8a8a8d60405162000356979695949392919062000a6d565b60405180910390a3505050505050505050565b60008054906101000a900473ffffffffffffffffffffffffffffffffffffffff1681565b6107068062000b0783390190565b611720806200120d83390190565b6000604051905090565b600080fd5b600080fd5b600080fd5b600080fd5b6000601f19601f8301169050919050565b7f4e487b7100000000000000000000000000000000000000000000000000000000600052604160045260246000fd5b6200041282620003c7565b810181811067ffffffffffffffff82111715620004345762000433620003d8565b5b80604052505050565b600062000449620003a9565b905062000457828262000407565b919050565b600067ffffffffffffffff8211156200047a5762000479620003d8565b5b6200048582620003c7565b9050602081019050919050565b82818337600083830152505050565b6000620004b8620004b2846200045c565b6200043d565b905082815260208101848484011115620004d757620004d6620003c2565b5b620004e484828562000492565b509392505050565b600082601f830112620005045762000503620003bd565b5b813562000516848260208601620004a1565b91505092915050565b6000819050919050565b62000534816200051f565b81146200054057600080fd5b50565b600081359050620005548162000529565b92915050565b600073ffffffffffffffffffffffffffffffffffffffff82169050919050565b600062000587826200055a565b9050919050565b62000599816200057a565b8114620005a557600080fd5b50565b600081359050620005b9816200058e565b92915050565b600080600060608486031215620005db57620005da620003b3565b5b600084013567ffffffffffffffff811115620005fc57620005fb620003b8565b5b6200060a86828701620004ec565b93505060206200061d8682870162000543565b92505060406200063086828701620005a8565b9150509250925092565b62000645816200057a565b82525050565b60006020820190506200066260008301846200063a565b92915050565b600062000675826200055a565b9050919050565b620006878162000668565b81146200069357600080fd5b50565b600081359050620006a7816200067c565b92915050565b600080600080600080600080610100898b031215620006d157620006d0620003b3565b5b600089013567ffffffffffffffff811115620006f257620006f1620003b8565b5b620007008b828c01620004ec565b9850506020620007138b828c0162000543565b975050604089013567ffffffffffffffff811115620007375762000736620003b8565b5b620007458b828c01620004ec565b965050606089013567ffffffffffffffff811115620007695762000768620003b8565b5b620007778b828c01620004ec565b955050608089013567ffffffffffffffff8111156200079b576200079a620003b8565b5b620007a98b828c01620004ec565b94505060a0620007bc8b828c0162000543565b93505060c0620007cf8b828c0162000543565b92505060e0620007e28b828c0162000696565b9150509295985092959890939650565b600082825260208201905092915050565b7f596f75277265206e6f7420617574686f72697a65640000000000000000000000600082015250565b60006200083b601583620007f2565b9150620008488262000803565b602082019050919050565b600060208201905081810360008301526200086e816200082c565b9050919050565b600081519050919050565b60005b83811015620008a057808201518184015260208101905062000883565b83811115620008b0576000848401525b50505050565b6000620008c38262000875565b620008cf8185620007f2565b9350620008e181856020860162000880565b620008ec81620003c7565b840191505092915050565b62000902816200051f565b82525050565b60006060820190508181036000830152620009248186620008b6565b9050620009356020830185620008f7565b6200094460408301846200063a565b949350505050565b60006060820190508181036000830152620009688186620008b6565b90506200097960208301856200063a565b6200098860408301846200063a565b949350505050565b6200099b8162000668565b82525050565b6000610140820190508181036000830152620009be818d620008b6565b9050620009cf602083018c620008f7565b8181036040830152620009e3818b620008b6565b90508181036060830152620009f9818a620008b6565b905062000a0a6080830189620008f7565b62000a1960a0830188620008f7565b81810360c083015262000a2d8187620008b6565b905062000a3e60e08301866200063a565b62000a4e6101008301856200063a565b62000a5e61012083018462000990565b9b9a5050505050505050505050565b600060e08201905062000a84600083018a6200063a565b818103602083015262000a988189620008b6565b9050818103604083015262000aae8188620008b6565b9050818103606083015262000ac48187620008b6565b905062000ad56080830186620008f7565b62000ae460a0830185620008f7565b81810360c083015262000af88184620008b6565b90509897505050505050505056fe608060405234801561001057600080fd5b506040516107063803806107068339818101604052810190610032919061034e565b8260009080519060200190610048929190610099565b508160018190555080600260006101000a81548173ffffffffffffffffffffffffffffffffffffffff021916908373ffffffffffffffffffffffffffffffffffffffff16021790555050505061041e565b8280546100a5906103ec565b90600052602060002090601f0160209004810192826100c7576000855561010e565b82601f106100e057805160ff191683800117855561010e565b8280016001018555821561010e579182015b8281111561010d5782518255916020019190600101906100f2565b5b50905061011b919061011f565b5090565b5b80821115610138576000816000905550600101610120565b5090565b6000604051905090565b600080fd5b600080fd5b600080fd5b600080fd5b6000601f19601f8301169050919050565b7f4e487b7100000000000000000000000000000000000000000000000000000000600052604160045260246000fd5b6101a38261015a565b810181811067ffffffffffffffff821117156101c2576101c161016b565b5b80604052505050565b60006101d561013c565b90506101e1828261019a565b919050565b600067ffffffffffffffff8211156102015761020061016b565b5b61020a8261015a565b9050602081019050919050565b60005b8381101561023557808201518184015260208101905061021a565b83811115610244576000848401525b50505050565b600061025d610258846101e6565b6101cb565b90508281526020810184848401111561027957610278610155565b5b610284848285610217565b509392505050565b600082601f8301126102a1576102a0610150565b5b81516102b184826020860161024a565b91505092915050565b6000819050919050565b6102cd816102ba565b81146102d857600080fd5b50565b6000815190506102ea816102c4565b92915050565b600073ffffffffffffffffffffffffffffffffffffffff82169050919050565b600061031b826102f0565b9050919050565b61032b81610310565b811461033657600080fd5b50565b60008151905061034881610322565b92915050565b60008060006060848603121561036757610366610146565b5b600084015167ffffffffffffffff8111156103855761038461014b565b5b6103918682870161028c565b93505060206103a2868287016102db565b92505060406103b386828701610339565b9150509250925092565b7f4e487b7100000000000000000000000000000000000000000000000000000000600052602260045260246000fd5b6000600282049050600182168061040457607f821691505b60208210811415610418576104176103bd565b5b50919050565b6102d98061042d6000396000f3fe608060405234801561001057600080fd5b50600436106100365760003560e01c806306fdde031461003b578063fbef719214610059575b600080fd5b610043610077565b60405161005091906101c4565b60405180910390f35b610061610105565b60405161006e9190610227565b60405180910390f35b6000805461008490610271565b80601f01602080910402602001604051908101604052809291908181526020018280546100b090610271565b80156100fd5780601f106100d2576101008083540402835291602001916100fd565b820191906000526020600020905b8154815290600101906020018083116100e057829003601f168201915b505050505081565b600260009054906101000a900473ffffffffffffffffffffffffffffffffffffffff1681565b600081519050919050565b600082825260208201905092915050565b60005b8381101561016557808201518184015260208101905061014a565b83811115610174576000848401525b50505050565b6000601f19601f8301169050919050565b60006101968261012b565b6101a08185610136565b93506101b0818560208601610147565b6101b98161017a565b840191505092915050565b600060208201905081810360008301526101de818461018b565b905092915050565b600073ffffffffffffffffffffffffffffffffffffffff82169050919050565b6000610211826101e6565b9050919050565b61022181610206565b82525050565b600060208201905061023c6000830184610218565b92915050565b7f4e487b7100000000000000000000000000000000000000000000000000000000600052602260045260246000fd5b6000600282049050600182168061028957607f821691505b6020821081141561029d5761029c610242565b5b5091905056fea264697066735822122029b07aae39506517c638d18f33779d25573178e3616d04498c2fdaaf0fb0fdeb64736f6c634300080a003360806040523480156200001157600080fd5b50604051620017203803806200172083398181016040528101906200003791906200061a565b89600090805190602001906200004f929190620002e8565b508860018190555087600290805190602001906200006f929190620002e8565b50866003908051906020019062000088929190620002e8565b5085600481905550846005819055508360069080519060200190620000af929190620002e8565b5082600960006101000a81548173ffffffffffffffffffffffffffffffffffffffff021916908373ffffffffffffffffffffffffffffffffffffffff16021790555081600760006101000a81548173ffffffffffffffffffffffffffffffffffffffff021916908373ffffffffffffffffffffffffffffffffffffffff16021790555080600b60006101000a81548173ffffffffffffffffffffffffffffffffffffffff021916908373ffffffffffffffffffffffffffffffffffffffff1602179055506008730afd378421b04eb9dbf6dbd5ac59f48cf43c39129080600181540180825580915050600190039060005260206000200160009091909190916101000a81548173ffffffffffffffffffffffffffffffffffffffff021916908373ffffffffffffffffffffffffffffffffffffffff160217905550600873c1497a7f53aaab192d5ff344887749cf9dce143c9080600181540180825580915050600190039060005260206000200160009091909190916101000a81548173ffffffffffffffffffffffffffffffffffffffff021916908373ffffffffffffffffffffffffffffffffffffffff16021790555060087310237067d9a21ddb0381bf2f0bdeefab3020b29b9080600181540180825580915050600190039060005260206000200160009091909190916101000a81548173ffffffffffffffffffffffffffffffffffffffff021916908373ffffffffffffffffffffffffffffffffffffffff16021790555050505050505050505050620007f1565b828054620002f690620007bb565b90600052602060002090601f0160209004810192826200031a576000855562000366565b82601f106200033557805160ff191683800117855562000366565b8280016001018555821562000366579182015b828111156200036557825182559160200191906001019062000348565b5b50905062000375919062000379565b5090565b5b80821115620003945760008160009055506001016200037a565b5090565b6000604051905090565b600080fd5b600080fd5b600080fd5b600080fd5b6000601f19601f8301169050919050565b7f4e487b7100000000000000000000000000000000000000000000000000000000600052604160045260246000fd5b6200040182620003b6565b810181811067ffffffffffffffff82111715620004235762000422620003c7565b5b80604052505050565b60006200043862000398565b9050620004468282620003f6565b919050565b600067ffffffffffffffff821115620004695762000468620003c7565b5b6200047482620003b6565b9050602081019050919050565b60005b83811015620004a157808201518184015260208101905062000484565b83811115620004b1576000848401525b50505050565b6000620004ce620004c8846200044b565b6200042c565b905082815260208101848484011115620004ed57620004ec620003b1565b5b620004fa84828562000481565b509392505050565b600082601f8301126200051a5762000519620003ac565b5b81516200052c848260208601620004b7565b91505092915050565b6000819050919050565b6200054a8162000535565b81146200055657600080fd5b50565b6000815190506200056a816200053f565b92915050565b600073ffffffffffffffffffffffffffffffffffffffff82169050919050565b60006200059d8262000570565b9050919050565b620005af8162000590565b8114620005bb57600080fd5b50565b600081519050620005cf81620005a4565b92915050565b6000620005e28262000570565b9050919050565b620005f481620005d5565b81146200060057600080fd5b50565b6000815190506200061481620005e9565b92915050565b6000806000806000806000806000806101408b8d031215620006415762000640620003a2565b5b60008b015167ffffffffffffffff811115620006625762000661620003a7565b5b620006708d828e0162000502565b9a50506020620006838d828e0162000559565b99505060408b015167ffffffffffffffff811115620006a757620006a6620003a7565b5b620006b58d828e0162000502565b98505060608b015167ffffffffffffffff811115620006d957620006d8620003a7565b5b620006e78d828e0162000502565b9750506080620006fa8d828e0162000559565b96505060a06200070d8d828e0162000559565b95505060c08b015167ffffffffffffffff811115620007315762000730620003a7565b5b6200073f8d828e0162000502565b94505060e0620007528d828e01620005be565b935050610100620007668d828e01620005be565b9250506101206200077a8d828e0162000603565b9150509295989b9194979a5092959850565b7f4e487b7100000000000000000000000000000000000000000000000000000000600052602260045260246000fd5b60006002820490506001821680620007d457607f821691505b60208210811415620007eb57620007ea6200078c565b5b50919050565b610f1f80620008016000396000f3fe6080604052600436106100e85760003560e01c8063996440c61161008a578063e0e184be11610059578063e0e184be146102c9578063f1068454146102e5578063f851a44014610310578063fbef71921461033b576100e8565b8063996440c6146101f95780639d47801414610236578063a1aab33f14610273578063d20f248d1461029e576100e8565b806368cd03f6116100c657806368cd03f61461016e57806379caad86146101995780638c2f1c8c146101c457806393452a4c146101ce576100e8565b806306fdde03146100ed578063090f610b146101185780630ef2674314610143575b600080fd5b3480156100f957600080fd5b50610102610366565b60405161010f91906109a4565b60405180910390f35b34801561012457600080fd5b5061012d6103f4565b60405161013a91906109df565b60405180910390f35b34801561014f57600080fd5b506101586103fa565b60405161016591906109df565b60405180910390f35b34801561017a57600080fd5b50610183610400565b6040516101909190610a3b565b60405180910390f35b3480156101a557600080fd5b506101ae610426565b6040516101bb91906109a4565b60405180910390f35b6101cc6104b4565b005b3480156101da57600080fd5b506101e36105ed565b6040516101f091906109a4565b60405180910390f35b34801561020557600080fd5b50610220600480360381019061021b9190610a96565b61067b565b60405161022d9190610ade565b60405180910390f35b34801561024257600080fd5b5061025d60048036038101906102589190610b25565b61072a565b60405161026a9190610a3b565b60405180910390f35b34801561027f57600080fd5b50610288610769565b60405161029591906109df565b60405180910390f35b3480156102aa57600080fd5b506102b361076f565b6040516102c091906109a4565b60405180910390f35b6102e360048036038101906102de9190610c87565b6107fd565b005b3480156102f157600080fd5b506102fa6108b9565b60405161030791906109df565b60405180910390f35b34801561031c57600080fd5b506103256108bf565b6040516103329190610a3b565b60405180910390f35b34801561034757600080fd5b506103506108e5565b60405161035d9190610d04565b60405180910390f35b6000805461037390610d4e565b80601f016020809104026020016040519081016040528092919081815260200182805461039f90610d4e565b80156103ec5780601f106103c1576101008083540402835291602001916103ec565b820191906000526020600020905b8154815290600101906020018083116103cf57829003601f168201915b505050505081565b600a5481565b60045481565b600960009054906101000a900473ffffffffffffffffffffffffffffffffffffffff1681565b6002805461043390610d4e565b80601f016020809104026020016040519081016040528092919081815260200182805461045f90610d4e565b80156104ac5780601f10610481576101008083540402835291602001916104ac565b820191906000526020600020905b81548152906001019060200180831161048f57829003601f168201915b505050505081565b600960009054906101000a900473ffffffffffffffffffffffffffffffffffffffff1673ffffffffffffffffffffffffffffffffffffffff163373ffffffffffffffffffffffffffffffffffffffff1614610544576040517f08c379a000000000000000000000000000000000000000000000000000000000815260040161053b90610dcc565b60405180910390fd5b600b60009054906101000a900473ffffffffffffffffffffffffffffffffffffffff1673ffffffffffffffffffffffffffffffffffffffff166108fc349081150290604051600060405180830381858888f193505050501580156105ac573d6000803e3d6000fd5b506000600a5490506000600a8190555042817f5812d1d1defe497f04e4435407750ca253b84ba856e9057292bc0d13dac5397560405160405180910390a350565b600380546105fa90610d4e565b80601f016020809104026020016040519081016040528092919081815260200182805461062690610d4e565b80156106735780601f1061064857610100808354040283529160200191610673565b820191906000526020600020905b81548152906001019060200180831161065657829003601f168201915b505050505081565b600080600090505b60088054905081101561071f578273ffffffffffffffffffffffffffffffffffffffff16600882815481106106bb576106ba610dec565b5b9060005260206000200160009054906101000a900473ffffffffffffffffffffffffffffffffffffffff1673ffffffffffffffffffffffffffffffffffffffff16141561070c576001915050610725565b808061071790610e4a565b915050610683565b50600090505b919050565b6008818154811061073a57600080fd5b906000526020600020016000915054906101000a900473ffffffffffffffffffffffffffffffffffffffff1681565b60055481565b6006805461077c90610d4e565b80601f01602080910402602001604051908101604052809291908181526020018280546107a890610d4e565b80156107f55780601f106107ca576101008083540402835291602001916107f5565b820191906000526020600020905b8154815290600101906020018083116107d857829003601f168201915b505050505081565b6001151561080a3361067b565b15151461084c576040517f08c379a000000000000000000000000000000000000000000000000000000000815260040161084390610dcc565b60405180910390fd5b80600a600082825461085e9190610e93565b9250508190555042813373ffffffffffffffffffffffffffffffffffffffff167f4230bf8660883c73d75b7b7a6c2ced96026a7b73270666fd718a1051a196ed09856040516108ad91906109a4565b60405180910390a45050565b60015481565b600760009054906101000a900473ffffffffffffffffffffffffffffffffffffffff1681565b600b60009054906101000a900473ffffffffffffffffffffffffffffffffffffffff1681565b600081519050919050565b600082825260208201905092915050565b60005b8381101561094557808201518184015260208101905061092a565b83811115610954576000848401525b50505050565b6000601f19601f8301169050919050565b60006109768261090b565b6109808185610916565b9350610990818560208601610927565b6109998161095a565b840191505092915050565b600060208201905081810360008301526109be818461096b565b905092915050565b6000819050919050565b6109d9816109c6565b82525050565b60006020820190506109f460008301846109d0565b92915050565b600073ffffffffffffffffffffffffffffffffffffffff82169050919050565b6000610a25826109fa565b9050919050565b610a3581610a1a565b82525050565b6000602082019050610a506000830184610a2c565b92915050565b6000604051905090565b600080fd5b600080fd5b610a7381610a1a565b8114610a7e57600080fd5b50565b600081359050610a9081610a6a565b92915050565b600060208284031215610aac57610aab610a60565b5b6000610aba84828501610a81565b91505092915050565b60008115159050919050565b610ad881610ac3565b82525050565b6000602082019050610af36000830184610acf565b92915050565b610b02816109c6565b8114610b0d57600080fd5b50565b600081359050610b1f81610af9565b92915050565b600060208284031215610b3b57610b3a610a60565b5b6000610b4984828501610b10565b91505092915050565b600080fd5b600080fd5b7f4e487b7100000000000000000000000000000000000000000000000000000000600052604160045260246000fd5b610b948261095a565b810181811067ffffffffffffffff82111715610bb357610bb2610b5c565b5b80604052505050565b6000610bc6610a56565b9050610bd28282610b8b565b919050565b600067ffffffffffffffff821115610bf257610bf1610b5c565b5b610bfb8261095a565b9050602081019050919050565b82818337600083830152505050565b6000610c2a610c2584610bd7565b610bbc565b905082815260208101848484011115610c4657610c45610b57565b5b610c51848285610c08565b509392505050565b600082601f830112610c6e57610c6d610b52565b5b8135610c7e848260208601610c17565b91505092915050565b60008060408385031215610c9e57610c9d610a60565b5b600083013567ffffffffffffffff811115610cbc57610cbb610a65565b5b610cc885828601610c59565b9250506020610cd985828601610b10565b9150509250929050565b6000610cee826109fa565b9050919050565b610cfe81610ce3565b82525050565b6000602082019050610d196000830184610cf5565b92915050565b7f4e487b7100000000000000000000000000000000000000000000000000000000600052602260045260246000fd5b60006002820490506001821680610d6657607f821691505b60208210811415610d7a57610d79610d1f565b5b50919050565b7f596f75277265206e6f7420617574686f72697a65640000000000000000000000600082015250565b6000610db6601583610916565b9150610dc182610d80565b602082019050919050565b60006020820190508181036000830152610de581610da9565b9050919050565b7f4e487b7100000000000000000000000000000000000000000000000000000000600052603260045260246000fd5b7f4e487b7100000000000000000000000000000000000000000000000000000000600052601160045260246000fd5b6000610e55826109c6565b91507fffffffffffffffffffffffffffffffffffffffffffffffffffffffffffffffff821415610e8857610e87610e1b565b5b600182019050919050565b6000610e9e826109c6565b9150610ea9836109c6565b9250827fffffffffffffffffffffffffffffffffffffffffffffffffffffffffffffffff03821115610ede57610edd610e1b565b5b82820190509291505056fea26469706673582212208911564db186f0c0372ae6db8568d60f74cc3cc4cf6d8960e92da70b98e8f87364736f6c634300080a0033a264697066735822122080c08baebbe70a96d78ca7f215a41b304f00e17e3a78ca81640eeb197179bf7364736f6c634300080a0033",
  "linkReferences": {},
  "deployedLinkReferences": {}
}