{
  "_format": "hh-sol-artifact-1",
  "contractName": "MediLedger",
  "sourceName": "contracts/MediLedger.sol",
  "abi": [
    {
      "inputs": [],
      "stateMutability": "nonpayable",
      "type": "constructor"
    },
    {
      "anonymous": false,
      "inputs": [
        {
          "indexed": true,
          "internalType": "uint256",
          "name": "did",
          "type": "uint256"
        },
        {
          "indexed": false,
          "internalType": "string",
          "name": "name",
          "type": "string"
        },
        {
          "indexed": false,
          "internalType": "address",
          "name": "contractAddress",
          "type": "address"
        },
        {
          "indexed": false,
          "internalType": "address",
          "name": "daddress",
          "type": "address"
        }
      ],
      "name": "allDoctor",
      "type": "event"
    },
    {
      "anonymous": false,
      "inputs": [
        {
          "indexed": true,
          "internalType": "uint256",
          "name": "pid",
          "type": "uint256"
        },
        {
          "indexed": true,
          "internalType": "address",
          "name": "walletid",
          "type": "address"
        },
        {
          "indexed": false,
          "internalType": "address",
          "name": "contractAddress",
          "type": "address"
        },
        {
          "indexed": false,
          "internalType": "string",
          "name": "name",
          "type": "string"
        },
        {
          "indexed": false,
          "internalType": "string",
          "name": "gender",
          "type": "string"
        },
        {
          "indexed": false,
          "internalType": "string",
          "name": "allergies",
          "type": "string"
        },
        {
          "indexed": false,
          "internalType": "uint256",
          "name": "height",
          "type": "uint256"
        },
        {
          "indexed": false,
          "internalType": "uint256",
          "name": "weight",
          "type": "uint256"
        },
        {
          "indexed": false,
          "internalType": "string",
          "name": "bloodgrp",
          "type": "string"
        }
      ],
      "name": "allPatient",
      "type": "event"
    },
    {
      "inputs": [],
      "name": "accounts",
      "outputs": [
        {
          "internalType": "address",
          "name": "",
          "type": "address"
        }
      ],
      "stateMutability": "view",
      "type": "function"
    },
    {
      "inputs": [
        {
          "internalType": "string",
          "name": "name",
          "type": "string"
        },
        {
          "internalType": "uint256",
          "name": "did",
          "type": "uint256"
        },
        {
          "internalType": "address",
          "name": "walletid",
          "type": "address"
        }
      ],
      "name": "addDoctor",
      "outputs": [],
      "stateMutability": "nonpayable",
      "type": "function"
    },
    {
      "inputs": [
        {
          "internalType": "address",
          "name": "wallet",
          "type": "address"
        }
      ],
      "name": "addDoctorWallet",
      "outputs": [],
      "stateMutability": "nonpayable",
      "type": "function"
    },
    {
      "inputs": [
        {
          "internalType": "string",
          "name": "_name",
          "type": "string"
        },
        {
          "internalType": "uint256",
          "name": "_fid",
          "type": "uint256"
        },
        {
          "internalType": "string",
          "name": "_gender",
          "type": "string"
        },
        {
          "internalType": "string",
          "name": "_allergies",
          "type": "string"
        },
        {
          "internalType": "string",
          "name": "_bloodgrp",
          "type": "string"
        },
        {
          "internalType": "uint256",
          "name": "_height",
          "type": "uint256"
        },
        {
          "internalType": "uint256",
          "name": "_weight",
          "type": "uint256"
        },
        {
          "internalType": "address payable",
          "name": "_walletid",
          "type": "address"
        }
      ],
      "name": "addPatient",
      "outputs": [],
      "stateMutability": "nonpayable",
      "type": "function"
    },
    {
      "inputs": [],
      "name": "admin",
      "outputs": [
        {
          "internalType": "address",
          "name": "",
          "type": "address"
        }
      ],
      "stateMutability": "view",
      "type": "function"
    },
    {
      "inputs": [
        {
          "internalType": "uint256",
          "name": "",
          "type": "uint256"
        }
      ],
      "name": "allDoctorsWallets",
      "outputs": [
        {
          "internalType": "address",
          "name": "",
          "type": "address"
        }
      ],
      "stateMutability": "view",
      "type": "function"
    },
    {
      "inputs": [
        {
          "internalType": "uint256",
          "name": "",
          "type": "uint256"
        }
      ],
      "name": "deployedPatients",
      "outputs": [
        {
          "internalType": "address",
          "name": "",
          "type": "address"
        }
      ],
      "stateMutability": "view",
      "type": "function"
    },
    {
      "inputs": [],
      "name": "getDeployedPatients",
      "outputs": [
        {
          "internalType": "address[]",
          "name": "",
          "type": "address[]"
        }
      ],
      "stateMutability": "view",
      "type": "function"
    },
    {
      "inputs": [],
      "name": "wid",
      "outputs": [
        {
          "internalType": "address",
          "name": "",
          "type": "address"
        }
      ],
      "stateMutability": "view",
      "type": "function"
    }
  ],
  "bytecode": "0x608060405234801561001057600080fd5b5033600160006101000a81548173ffffffffffffffffffffffffffffffffffffffff021916908373ffffffffffffffffffffffffffffffffffffffff160217905550737814c6fd323a2eb88d257289682e3c2c8e945c82600260006101000a81548173ffffffffffffffffffffffffffffffffffffffff021916908373ffffffffffffffffffffffffffffffffffffffff160217905550613655806100b66000396000f3fe60806040523480156200001157600080fd5b5060043610620000a05760003560e01c80639d478014116200006f5780639d4780141462000129578063b89158d8146200015f578063c0adb5d01462000181578063e6db802314620001a1578063f851a44014620001d757620000a0565b80632172225014620000a5578063461603be14620000c757806368cd03f614620000e75780638dddcdfa1462000109575b600080fd5b620000af620001f9565b604051620000be919062000833565b60405180910390f35b620000e56004803603810190620000df919062000a39565b62000289565b005b620000f162000404565b60405162000100919062000ac5565b60405180910390f35b62000127600480360381019062000121919062000b27565b6200042a565b005b62000147600480360381019062000141919062000c6c565b620005e3565b60405162000156919062000ac5565b60405180910390f35b6200016962000623565b60405162000178919062000ac5565b60405180910390f35b6200019f600480360381019062000199919062000c9e565b62000649565b005b620001bf6004803603810190620001b9919062000c6c565b620006af565b604051620001ce919062000ac5565b60405180910390f35b620001e1620006ef565b604051620001f0919062000ac5565b60405180910390f35b606060038054806020026020016040519081016040528092919081815260200182805480156200027f57602002820191906000526020600020905b8160009054906101000a900473ffffffffffffffffffffffffffffffffffffffff1673ffffffffffffffffffffffffffffffffffffffff168152602001906001019080831162000234575b5050505050905090565b600160009054906101000a900473ffffffffffffffffffffffffffffffffffffffff1673ffffffffffffffffffffffffffffffffffffffff163373ffffffffffffffffffffffffffffffffffffffff16146200031c576040517f08c379a0000000000000000000000000000000000000000000000000000000008152600401620003139062000d31565b60405180910390fd5b60008383836040516200032f9062000715565b6200033d9392919062000de6565b604051809103906000f0801580156200035a573d6000803e3d6000fd5b5090506000829080600181540180825580915050600190039060005260206000200160009091909190916101000a81548173ffffffffffffffffffffffffffffffffffffffff021916908373ffffffffffffffffffffffffffffffffffffffff160217905550827f035e701189d41fce6ea0103e298f7ec9281249daa7bbd511ab0f2da6f75c16d8858385604051620003f69392919062000e2a565b60405180910390a250505050565b600260009054906101000a900473ffffffffffffffffffffffffffffffffffffffff1681565b600160009054906101000a900473ffffffffffffffffffffffffffffffffffffffff1673ffffffffffffffffffffffffffffffffffffffff163373ffffffffffffffffffffffffffffffffffffffff16146200048557600080fd5b60008888888887878a600260009054906101000a900473ffffffffffffffffffffffffffffffffffffffff16600160009054906101000a900473ffffffffffffffffffffffffffffffffffffffff168a604051620004e39062000723565b620004f89a9998979695949392919062000e7f565b604051809103906000f08015801562000515573d6000803e3d6000fd5b5090506003819080600181540180825580915050600190039060005260206000200160009091909190916101000a81548173ffffffffffffffffffffffffffffffffffffffff021916908373ffffffffffffffffffffffffffffffffffffffff1602179055508173ffffffffffffffffffffffffffffffffffffffff16887f1005f59c1850dac8d83bbff6a299e13a89854d417ad2a036510178f8d30e90c7838c8b8b8a8a8d604051620005d0979695949392919062000f4b565b60405180910390a3505050505050505050565b60008181548110620005f457600080fd5b906000526020600020016000915054906101000a900473ffffffffffffffffffffffffffffffffffffffff1681565b600460009054906101000a900473ffffffffffffffffffffffffffffffffffffffff1681565b6000819080600181540180825580915050600190039060005260206000200160009091909190916101000a81548173ffffffffffffffffffffffffffffffffffffffff021916908373ffffffffffffffffffffffffffffffffffffffff16021790555050565b60038181548110620006c057600080fd5b906000526020600020016000915054906101000a900473ffffffffffffffffffffffffffffffffffffffff1681565b600160009054906101000a900473ffffffffffffffffffffffffffffffffffffffff1681565b6107068062000fe583390190565b611f3580620016eb83390190565b600081519050919050565b600082825260208201905092915050565b6000819050602082019050919050565b600073ffffffffffffffffffffffffffffffffffffffff82169050919050565b60006200078a826200075d565b9050919050565b6200079c816200077d565b82525050565b6000620007b0838362000791565b60208301905092915050565b6000602082019050919050565b6000620007d68262000731565b620007e281856200073c565b9350620007ef836200074d565b8060005b83811015620008265781516200080a8882620007a2565b97506200081783620007bc565b925050600181019050620007f3565b5085935050505092915050565b600060208201905081810360008301526200084f8184620007c9565b905092915050565b6000604051905090565b600080fd5b600080fd5b600080fd5b600080fd5b6000601f19601f8301169050919050565b7f4e487b7100000000000000000000000000000000000000000000000000000000600052604160045260246000fd5b620008c08262000875565b810181811067ffffffffffffffff82111715620008e257620008e162000886565b5b80604052505050565b6000620008f762000857565b9050620009058282620008b5565b919050565b600067ffffffffffffffff82111562000928576200092762000886565b5b620009338262000875565b9050602081019050919050565b82818337600083830152505050565b60006200096662000960846200090a565b620008eb565b90508281526020810184848401111562000985576200098462000870565b5b6200099284828562000940565b509392505050565b600082601f830112620009b257620009b16200086b565b5b8135620009c48482602086016200094f565b91505092915050565b6000819050919050565b620009e281620009cd565b8114620009ee57600080fd5b50565b60008135905062000a0281620009d7565b92915050565b62000a13816200077d565b811462000a1f57600080fd5b50565b60008135905062000a338162000a08565b92915050565b60008060006060848603121562000a555762000a5462000861565b5b600084013567ffffffffffffffff81111562000a765762000a7562000866565b5b62000a84868287016200099a565b935050602062000a9786828701620009f1565b925050604062000aaa8682870162000a22565b9150509250925092565b62000abf816200077d565b82525050565b600060208201905062000adc600083018462000ab4565b92915050565b600062000aef826200075d565b9050919050565b62000b018162000ae2565b811462000b0d57600080fd5b50565b60008135905062000b218162000af6565b92915050565b600080600080600080600080610100898b03121562000b4b5762000b4a62000861565b5b600089013567ffffffffffffffff81111562000b6c5762000b6b62000866565b5b62000b7a8b828c016200099a565b985050602062000b8d8b828c01620009f1565b975050604089013567ffffffffffffffff81111562000bb15762000bb062000866565b5b62000bbf8b828c016200099a565b965050606089013567ffffffffffffffff81111562000be35762000be262000866565b5b62000bf18b828c016200099a565b955050608089013567ffffffffffffffff81111562000c155762000c1462000866565b5b62000c238b828c016200099a565b94505060a062000c368b828c01620009f1565b93505060c062000c498b828c01620009f1565b92505060e062000c5c8b828c0162000b10565b9150509295985092959890939650565b60006020828403121562000c855762000c8462000861565b5b600062000c9584828501620009f1565b91505092915050565b60006020828403121562000cb75762000cb662000861565b5b600062000cc78482850162000a22565b91505092915050565b600082825260208201905092915050565b7f596f75277265206e6f7420617574686f72697a65640000000000000000000000600082015250565b600062000d1960158362000cd0565b915062000d268262000ce1565b602082019050919050565b6000602082019050818103600083015262000d4c8162000d0a565b9050919050565b600081519050919050565b60005b8381101562000d7e57808201518184015260208101905062000d61565b8381111562000d8e576000848401525b50505050565b600062000da18262000d53565b62000dad818562000cd0565b935062000dbf81856020860162000d5e565b62000dca8162000875565b840191505092915050565b62000de081620009cd565b82525050565b6000606082019050818103600083015262000e02818662000d94565b905062000e13602083018562000dd5565b62000e22604083018462000ab4565b949350505050565b6000606082019050818103600083015262000e46818662000d94565b905062000e57602083018562000ab4565b62000e66604083018462000ab4565b949350505050565b62000e798162000ae2565b82525050565b600061014082019050818103600083015262000e9c818d62000d94565b905062000ead602083018c62000dd5565b818103604083015262000ec1818b62000d94565b9050818103606083015262000ed7818a62000d94565b905062000ee8608083018962000dd5565b62000ef760a083018862000dd5565b81810360c083015262000f0b818762000d94565b905062000f1c60e083018662000ab4565b62000f2c61010083018562000ab4565b62000f3c61012083018462000e6e565b9b9a5050505050505050505050565b600060e08201905062000f62600083018a62000ab4565b818103602083015262000f76818962000d94565b9050818103604083015262000f8c818862000d94565b9050818103606083015262000fa2818762000d94565b905062000fb3608083018662000dd5565b62000fc260a083018562000dd5565b81810360c083015262000fd6818462000d94565b90509897505050505050505056fe608060405234801561001057600080fd5b506040516107063803806107068339818101604052810190610032919061034e565b8260009080519060200190610048929190610099565b508160018190555080600260006101000a81548173ffffffffffffffffffffffffffffffffffffffff021916908373ffffffffffffffffffffffffffffffffffffffff16021790555050505061041e565b8280546100a5906103ec565b90600052602060002090601f0160209004810192826100c7576000855561010e565b82601f106100e057805160ff191683800117855561010e565b8280016001018555821561010e579182015b8281111561010d5782518255916020019190600101906100f2565b5b50905061011b919061011f565b5090565b5b80821115610138576000816000905550600101610120565b5090565b6000604051905090565b600080fd5b600080fd5b600080fd5b600080fd5b6000601f19601f8301169050919050565b7f4e487b7100000000000000000000000000000000000000000000000000000000600052604160045260246000fd5b6101a38261015a565b810181811067ffffffffffffffff821117156101c2576101c161016b565b5b80604052505050565b60006101d561013c565b90506101e1828261019a565b919050565b600067ffffffffffffffff8211156102015761020061016b565b5b61020a8261015a565b9050602081019050919050565b60005b8381101561023557808201518184015260208101905061021a565b83811115610244576000848401525b50505050565b600061025d610258846101e6565b6101cb565b90508281526020810184848401111561027957610278610155565b5b610284848285610217565b509392505050565b600082601f8301126102a1576102a0610150565b5b81516102b184826020860161024a565b91505092915050565b6000819050919050565b6102cd816102ba565b81146102d857600080fd5b50565b6000815190506102ea816102c4565b92915050565b600073ffffffffffffffffffffffffffffffffffffffff82169050919050565b600061031b826102f0565b9050919050565b61032b81610310565b811461033657600080fd5b50565b60008151905061034881610322565b92915050565b60008060006060848603121561036757610366610146565b5b600084015167ffffffffffffffff8111156103855761038461014b565b5b6103918682870161028c565b93505060206103a2868287016102db565b92505060406103b386828701610339565b9150509250925092565b7f4e487b7100000000000000000000000000000000000000000000000000000000600052602260045260246000fd5b6000600282049050600182168061040457607f821691505b60208210811415610418576104176103bd565b5b50919050565b6102d98061042d6000396000f3fe608060405234801561001057600080fd5b50600436106100365760003560e01c806306fdde031461003b578063fbef719214610059575b600080fd5b610043610077565b60405161005091906101c4565b60405180910390f35b610061610105565b60405161006e9190610227565b60405180910390f35b6000805461008490610271565b80601f01602080910402602001604051908101604052809291908181526020018280546100b090610271565b80156100fd5780601f106100d2576101008083540402835291602001916100fd565b820191906000526020600020905b8154815290600101906020018083116100e057829003601f168201915b505050505081565b600260009054906101000a900473ffffffffffffffffffffffffffffffffffffffff1681565b600081519050919050565b600082825260208201905092915050565b60005b8381101561016557808201518184015260208101905061014a565b83811115610174576000848401525b50505050565b6000601f19601f8301169050919050565b60006101968261012b565b6101a08185610136565b93506101b0818560208601610147565b6101b98161017a565b840191505092915050565b600060208201905081810360008301526101de818461018b565b905092915050565b600073ffffffffffffffffffffffffffffffffffffffff82169050919050565b6000610211826101e6565b9050919050565b61022181610206565b82525050565b600060208201905061023c6000830184610218565b92915050565b7f4e487b7100000000000000000000000000000000000000000000000000000000600052602260045260246000fd5b6000600282049050600182168061028957607f821691505b6020821081141561029d5761029c610242565b5b5091905056fea2646970667358221220f0d9f026fe0d6f6ba7a26bf2601bed19aa5d78cff696eb24969043617091d58664736f6c634300080a003360806040523480156200001157600080fd5b5060405162001f3538038062001f358339818101604052810190620000379190620004b5565b89600190805190602001906200004f92919062000183565b508860028190555087600390805190602001906200006f92919062000183565b5086600490805190602001906200008892919062000183565b5085600581905550846006819055508360079080519060200190620000af92919062000183565b5082600b60006101000a81548173ffffffffffffffffffffffffffffffffffffffff021916908373ffffffffffffffffffffffffffffffffffffffff16021790555081600860006101000a81548173ffffffffffffffffffffffffffffffffffffffff021916908373ffffffffffffffffffffffffffffffffffffffff16021790555080600d60006101000a81548173ffffffffffffffffffffffffffffffffffffffff021916908373ffffffffffffffffffffffffffffffffffffffff160217905550505050505050505050506200068c565b828054620001919062000656565b90600052602060002090601f016020900481019282620001b5576000855562000201565b82601f10620001d057805160ff191683800117855562000201565b8280016001018555821562000201579182015b8281111562000200578251825591602001919060010190620001e3565b5b50905062000210919062000214565b5090565b5b808211156200022f57600081600090555060010162000215565b5090565b6000604051905090565b600080fd5b600080fd5b600080fd5b600080fd5b6000601f19601f8301169050919050565b7f4e487b7100000000000000000000000000000000000000000000000000000000600052604160045260246000fd5b6200029c8262000251565b810181811067ffffffffffffffff82111715620002be57620002bd62000262565b5b80604052505050565b6000620002d362000233565b9050620002e1828262000291565b919050565b600067ffffffffffffffff82111562000304576200030362000262565b5b6200030f8262000251565b9050602081019050919050565b60005b838110156200033c5780820151818401526020810190506200031f565b838111156200034c576000848401525b50505050565b6000620003696200036384620002e6565b620002c7565b9050828152602081018484840111156200038857620003876200024c565b5b620003958482856200031c565b509392505050565b600082601f830112620003b557620003b462000247565b5b8151620003c784826020860162000352565b91505092915050565b6000819050919050565b620003e581620003d0565b8114620003f157600080fd5b50565b6000815190506200040581620003da565b92915050565b600073ffffffffffffffffffffffffffffffffffffffff82169050919050565b600062000438826200040b565b9050919050565b6200044a816200042b565b81146200045657600080fd5b50565b6000815190506200046a816200043f565b92915050565b60006200047d826200040b565b9050919050565b6200048f8162000470565b81146200049b57600080fd5b50565b600081519050620004af8162000484565b92915050565b6000806000806000806000806000806101408b8d031215620004dc57620004db6200023d565b5b60008b015167ffffffffffffffff811115620004fd57620004fc62000242565b5b6200050b8d828e016200039d565b9a505060206200051e8d828e01620003f4565b99505060408b015167ffffffffffffffff81111562000542576200054162000242565b5b620005508d828e016200039d565b98505060608b015167ffffffffffffffff81111562000574576200057362000242565b5b620005828d828e016200039d565b9750506080620005958d828e01620003f4565b96505060a0620005a88d828e01620003f4565b95505060c08b015167ffffffffffffffff811115620005cc57620005cb62000242565b5b620005da8d828e016200039d565b94505060e0620005ed8d828e0162000459565b935050610100620006018d828e0162000459565b925050610120620006158d828e016200049e565b9150509295989b9194979a5092959850565b7f4e487b7100000000000000000000000000000000000000000000000000000000600052602260045260246000fd5b600060028204905060018216806200066f57607f821691505b6020821081141562000686576200068562000627565b5b50919050565b611899806200069c6000396000f3fe60806040526004361061012a5760003560e01c8063996440c6116100ab578063d20f248d1161006f578063d20f248d146103c7578063e0e184be146103f2578063eb4f25fa1461041b578063f106845414610458578063f851a44014610483578063fbef7192146104ae5761012a565b8063996440c6146102ce5780639d4780141461030b578063a1aab33f14610348578063c0adb5d014610373578063c5babf4f1461039c5761012a565b80635e6c7f48116100f25780635e6c7f481461021857806368cd03f61461024357806379caad861461026e5780638c2f1c8c1461029957806393452a4c146102a35761012a565b806306fdde031461012f578063090f610b1461015a5780630ef2674314610185578063369cb959146101b057806352d173a4146101ed575b600080fd5b34801561013b57600080fd5b506101446104d9565b6040516101519190611197565b60405180910390f35b34801561016657600080fd5b5061016f610567565b60405161017c91906111d2565b60405180910390f35b34801561019157600080fd5b5061019a61056d565b6040516101a791906111d2565b60405180910390f35b3480156101bc57600080fd5b506101d760048036038101906101d2919061122d565b610573565b6040516101e49190611197565b60405180910390f35b3480156101f957600080fd5b5061020261061f565b60405161020f9190611366565b60405180910390f35b34801561022457600080fd5b5061022d6106f8565b60405161023a91906111d2565b60405180910390f35b34801561024f57600080fd5b50610258610702565b60405161026591906113c9565b60405180910390f35b34801561027a57600080fd5b50610283610728565b6040516102909190611197565b60405180910390f35b6102a16107b6565b005b3480156102af57600080fd5b506102b86109dc565b6040516102c59190611197565b60405180910390f35b3480156102da57600080fd5b506102f560048036038101906102f09190611410565b610a6a565b6040516103029190611458565b60405180910390f35b34801561031757600080fd5b50610332600480360381019061032d919061122d565b610b19565b60405161033f91906113c9565b60405180910390f35b34801561035457600080fd5b5061035d610b58565b60405161036a91906111d2565b60405180910390f35b34801561037f57600080fd5b5061039a60048036038101906103959190611410565b610b5e565b005b3480156103a857600080fd5b506103b1610bc4565b6040516103be9190611366565b60405180910390f35b3480156103d357600080fd5b506103dc610c9d565b6040516103e99190611197565b60405180910390f35b3480156103fe57600080fd5b50610419600480360381019061041491906115a8565b610d2b565b005b34801561042757600080fd5b50610442600480360381019061043d919061122d565b610e0c565b60405161044f9190611197565b60405180910390f35b34801561046457600080fd5b5061046d610eb8565b60405161047a91906111d2565b60405180910390f35b34801561048f57600080fd5b50610498610ebe565b6040516104a591906113c9565b60405180910390f35b3480156104ba57600080fd5b506104c3610ee4565b6040516104d09190611625565b60405180910390f35b600180546104e69061166f565b80601f01602080910402602001604051908101604052809291908181526020018280546105129061166f565b801561055f5780601f106105345761010080835404028352916020019161055f565b820191906000526020600020905b81548152906001019060200180831161054257829003601f168201915b505050505081565b600c5481565b60055481565b600a818154811061058357600080fd5b90600052602060002001600091509050805461059e9061166f565b80601f01602080910402602001604051908101604052809291908181526020018280546105ca9061166f565b80156106175780601f106105ec57610100808354040283529160200191610617565b820191906000526020600020905b8154815290600101906020018083116105fa57829003601f168201915b505050505081565b60606009805480602002602001604051908101604052809291908181526020016000905b828210156106ef5783829060005260206000200180546106629061166f565b80601f016020809104026020016040519081016040528092919081815260200182805461068e9061166f565b80156106db5780601f106106b0576101008083540402835291602001916106db565b820191906000526020600020905b8154815290600101906020018083116106be57829003601f168201915b505050505081526020019060010190610643565b50505050905090565b6000600c54905090565b600b60009054906101000a900473ffffffffffffffffffffffffffffffffffffffff1681565b600380546107359061166f565b80601f01602080910402602001604051908101604052809291908181526020018280546107619061166f565b80156107ae5780601f10610783576101008083540402835291602001916107ae565b820191906000526020600020905b81548152906001019060200180831161079157829003601f168201915b505050505081565b600b60009054906101000a900473ffffffffffffffffffffffffffffffffffffffff1673ffffffffffffffffffffffffffffffffffffffff163373ffffffffffffffffffffffffffffffffffffffff1614610846576040517f08c379a000000000000000000000000000000000000000000000000000000000815260040161083d906116ed565b60405180910390fd5b600d60009054906101000a900473ffffffffffffffffffffffffffffffffffffffff1673ffffffffffffffffffffffffffffffffffffffff166108fc600c549081150290604051600060405180830381858888f193505050501580156108b0573d6000803e3d6000fd5b5060005b60098054905081101561093157600a600982815481106108d7576108d661170d565b5b90600052602060002001908060018154018082558091505060019003906000526020600020016000909190919091509080546109129061166f565b61091d929190610f0a565b5080806109299061176b565b9150506108b4565b50600067ffffffffffffffff81111561094d5761094c61147d565b5b60405190808252806020026020018201604052801561098057816020015b606081526020019060019003908161096b5790505b5060099080519060200190610996929190610f97565b507f5812d1d1defe497f04e4435407750ca253b84ba856e9057292bc0d13dac5397542600c546040516109ca9291906117b4565b60405180910390a16000600c81905550565b600480546109e99061166f565b80601f0160208091040260200160405190810160405280929190818152602001828054610a159061166f565b8015610a625780601f10610a3757610100808354040283529160200191610a62565b820191906000526020600020905b815481529060010190602001808311610a4557829003601f168201915b505050505081565b600080600090505b600080549050811015610b0e578273ffffffffffffffffffffffffffffffffffffffff1660008281548110610aaa57610aa961170d565b5b9060005260206000200160009054906101000a900473ffffffffffffffffffffffffffffffffffffffff1673ffffffffffffffffffffffffffffffffffffffff161415610afb576001915050610b14565b8080610b069061176b565b915050610a72565b50600090505b919050565b60008181548110610b2957600080fd5b906000526020600020016000915054906101000a900473ffffffffffffffffffffffffffffffffffffffff1681565b60065481565b6000819080600181540180825580915050600190039060005260206000200160009091909190916101000a81548173ffffffffffffffffffffffffffffffffffffffff021916908373ffffffffffffffffffffffffffffffffffffffff16021790555050565b6060600a805480602002602001604051908101604052809291908181526020016000905b82821015610c94578382906000526020600020018054610c079061166f565b80601f0160208091040260200160405190810160405280929190818152602001828054610c339061166f565b8015610c805780601f10610c5557610100808354040283529160200191610c80565b820191906000526020600020905b815481529060010190602001808311610c6357829003601f168201915b505050505081526020019060010190610be8565b50505050905090565b60078054610caa9061166f565b80601f0160208091040260200160405190810160405280929190818152602001828054610cd69061166f565b8015610d235780601f10610cf857610100808354040283529160200191610d23565b820191906000526020600020905b815481529060010190602001808311610d0657829003601f168201915b505050505081565b60011515610d3833610a6a565b151514610d7a576040517f08c379a0000000000000000000000000000000000000000000000000000000008152600401610d71906116ed565b60405180910390fd5b600982908060018154018082558091505060019003906000526020600020016000909190919091509080519060200190610db5929190610ff7565b5080600c6000828254610dc891906117dd565b925050819055507f675016af78705a2591da6c28a48f2ca9468ce65f3711e50acbc799a1a9eb9d844283604051610e00929190611833565b60405180910390a15050565b60098181548110610e1c57600080fd5b906000526020600020016000915090508054610e379061166f565b80601f0160208091040260200160405190810160405280929190818152602001828054610e639061166f565b8015610eb05780601f10610e8557610100808354040283529160200191610eb0565b820191906000526020600020905b815481529060010190602001808311610e9357829003601f168201915b505050505081565b60025481565b600860009054906101000a900473ffffffffffffffffffffffffffffffffffffffff1681565b600d60009054906101000a900473ffffffffffffffffffffffffffffffffffffffff1681565b828054610f169061166f565b90600052602060002090601f016020900481019282610f385760008555610f86565b82601f10610f495780548555610f86565b82800160010185558215610f8657600052602060002091601f016020900482015b82811115610f85578254825591600101919060010190610f6a565b5b509050610f93919061107d565b5090565b828054828255906000526020600020908101928215610fe6579160200282015b82811115610fe5578251829080519060200190610fd5929190610ff7565b5091602001919060010190610fb7565b5b509050610ff3919061109a565b5090565b8280546110039061166f565b90600052602060002090601f016020900481019282611025576000855561106c565b82601f1061103e57805160ff191683800117855561106c565b8280016001018555821561106c579182015b8281111561106b578251825591602001919060010190611050565b5b509050611079919061107d565b5090565b5b8082111561109657600081600090555060010161107e565b5090565b5b808211156110ba57600081816110b191906110be565b5060010161109b565b5090565b5080546110ca9061166f565b6000825580601f106110dc57506110fb565b601f0160209004906000526020600020908101906110fa919061107d565b5b50565b600081519050919050565b600082825260208201905092915050565b60005b8381101561113857808201518184015260208101905061111d565b83811115611147576000848401525b50505050565b6000601f19601f8301169050919050565b6000611169826110fe565b6111738185611109565b935061118381856020860161111a565b61118c8161114d565b840191505092915050565b600060208201905081810360008301526111b1818461115e565b905092915050565b6000819050919050565b6111cc816111b9565b82525050565b60006020820190506111e760008301846111c3565b92915050565b6000604051905090565b600080fd5b600080fd5b61120a816111b9565b811461121557600080fd5b50565b60008135905061122781611201565b92915050565b600060208284031215611243576112426111f7565b5b600061125184828501611218565b91505092915050565b600081519050919050565b600082825260208201905092915050565b6000819050602082019050919050565b600082825260208201905092915050565b60006112a2826110fe565b6112ac8185611286565b93506112bc81856020860161111a565b6112c58161114d565b840191505092915050565b60006112dc8383611297565b905092915050565b6000602082019050919050565b60006112fc8261125a565b6113068185611265565b93508360208202850161131885611276565b8060005b85811015611354578484038952815161133585826112d0565b9450611340836112e4565b925060208a0199505060018101905061131c565b50829750879550505050505092915050565b6000602082019050818103600083015261138081846112f1565b905092915050565b600073ffffffffffffffffffffffffffffffffffffffff82169050919050565b60006113b382611388565b9050919050565b6113c3816113a8565b82525050565b60006020820190506113de60008301846113ba565b92915050565b6113ed816113a8565b81146113f857600080fd5b50565b60008135905061140a816113e4565b92915050565b600060208284031215611426576114256111f7565b5b6000611434848285016113fb565b91505092915050565b60008115159050919050565b6114528161143d565b82525050565b600060208201905061146d6000830184611449565b92915050565b600080fd5b600080fd5b7f4e487b7100000000000000000000000000000000000000000000000000000000600052604160045260246000fd5b6114b58261114d565b810181811067ffffffffffffffff821117156114d4576114d361147d565b5b80604052505050565b60006114e76111ed565b90506114f382826114ac565b919050565b600067ffffffffffffffff8211156115135761151261147d565b5b61151c8261114d565b9050602081019050919050565b82818337600083830152505050565b600061154b611546846114f8565b6114dd565b90508281526020810184848401111561156757611566611478565b5b611572848285611529565b509392505050565b600082601f83011261158f5761158e611473565b5b813561159f848260208601611538565b91505092915050565b600080604083850312156115bf576115be6111f7565b5b600083013567ffffffffffffffff8111156115dd576115dc6111fc565b5b6115e98582860161157a565b92505060206115fa85828601611218565b9150509250929050565b600061160f82611388565b9050919050565b61161f81611604565b82525050565b600060208201905061163a6000830184611616565b92915050565b7f4e487b7100000000000000000000000000000000000000000000000000000000600052602260045260246000fd5b6000600282049050600182168061168757607f821691505b6020821081141561169b5761169a611640565b5b50919050565b7f596f75277265206e6f7420617574686f72697a65640000000000000000000000600082015250565b60006116d7601583611109565b91506116e2826116a1565b602082019050919050565b60006020820190508181036000830152611706816116ca565b9050919050565b7f4e487b7100000000000000000000000000000000000000000000000000000000600052603260045260246000fd5b7f4e487b7100000000000000000000000000000000000000000000000000000000600052601160045260246000fd5b6000611776826111b9565b91507fffffffffffffffffffffffffffffffffffffffffffffffffffffffffffffffff8214156117a9576117a861173c565b5b600182019050919050565b60006040820190506117c960008301856111c3565b6117d660208301846111c3565b9392505050565b60006117e8826111b9565b91506117f3836111b9565b9250827fffffffffffffffffffffffffffffffffffffffffffffffffffffffffffffffff038211156118285761182761173c565b5b828201905092915050565b600060408201905061184860008301856111c3565b818103602083015261185a818461115e565b9050939250505056fea2646970667358221220b9db0f6ca90a9815803d60c32f52c794df167330389276101c75e54f8c07265064736f6c634300080a0033a26469706673582212201a839e489305449b0c024c6632a921c6453f3f328d77058a7825249fed109b9764736f6c634300080a0033",
  "linkReferences": {},
  "deployedLinkReferences": {}
}