{
  "_format": "hh-sol-artifact-1",
  "contractName": "Patient",
  "sourceName": "contracts/MediLedger.sol",
  "abi": [
    {
      "inputs": [
        {
          "internalType": "string",
          "name": "_name",
          "type": "string"
        },
        {
          "internalType": "uint256",
          "name": "_fid",
          "type": "uint256"
        },
        {
          "internalType": "string",
          "name": "_gender",
          "type": "string"
        },
        {
          "internalType": "string",
          "name": "_allergies",
          "type": "string"
        },
        {
          "internalType": "uint256",
          "name": "_height",
          "type": "uint256"
        },
        {
          "internalType": "uint256",
          "name": "_weight",
          "type": "uint256"
        },
        {
          "internalType": "string",
          "name": "_bloodgrp",
          "type": "string"
        },
        {
          "internalType": "address",
          "name": "_accounts",
          "type": "address"
        },
        {
          "internalType": "address",
          "name": "_admin",
          "type": "address"
        },
        {
          "internalType": "address payable",
          "name": "_walletid",
          "type": "address"
        }
      ],
      "stateMutability": "nonpayable",
      "type": "constructor"
    },
    {
      "anonymous": false,
      "inputs": [
        {
          "indexed": false,
          "internalType": "uint256",
          "name": "timestamp",
          "type": "uint256"
        },
        {
          "indexed": false,
          "internalType": "string",
          "name": "hash",
          "type": "string"
        }
      ],
      "name": "allBills",
      "type": "event"
    },
    {
      "anonymous": false,
      "inputs": [
        {
          "indexed": false,
          "internalType": "uint256",
          "name": "timestamp",
          "type": "uint256"
        },
        {
          "indexed": false,
          "internalType": "uint256",
          "name": "amount",
          "type": "uint256"
        }
      ],
      "name": "refunds",
      "type": "event"
    },
    {
      "inputs": [],
      "name": "accounts",
      "outputs": [
        {
          "internalType": "address",
          "name": "",
          "type": "address"
        }
      ],
      "stateMutability": "view",
      "type": "function"
    },
    {
      "inputs": [
        {
          "internalType": "string",
          "name": "_hash",
          "type": "string"
        },
        {
          "internalType": "uint256",
          "name": "amount",
          "type": "uint256"
        }
      ],
      "name": "addBill",
      "outputs": [],
      "stateMutability": "nonpayable",
      "type": "function"
    },
    {
      "inputs": [
        {
          "internalType": "address",
          "name": "wallet",
          "type": "address"
        }
      ],
      "name": "addDoctorWallet",
      "outputs": [],
      "stateMutability": "nonpayable",
      "type": "function"
    },
    {
      "inputs": [],
      "name": "admin",
      "outputs": [
        {
          "internalType": "address",
          "name": "",
          "type": "address"
        }
      ],
      "stateMutability": "view",
      "type": "function"
    },
    {
      "inputs": [
        {
          "internalType": "uint256",
          "name": "",
          "type": "uint256"
        }
      ],
      "name": "allDoctorsWallets",
      "outputs": [
        {
          "internalType": "address",
          "name": "",
          "type": "address"
        }
      ],
      "stateMutability": "view",
      "type": "function"
    },
    {
      "inputs": [],
      "name": "allergies",
      "outputs": [
        {
          "internalType": "string",
          "name": "",
          "type": "string"
        }
      ],
      "stateMutability": "view",
      "type": "function"
    },
    {
      "inputs": [],
      "name": "bloodgrp",
      "outputs": [
        {
          "internalType": "string",
          "name": "",
          "type": "string"
        }
      ],
      "stateMutability": "view",
      "type": "function"
    },
    {
      "inputs": [],
      "name": "gender",
      "outputs": [
        {
          "internalType": "string",
          "name": "",
          "type": "string"
        }
      ],
      "stateMutability": "view",
      "type": "function"
    },
    {
      "inputs": [],
      "name": "getPassedBills",
      "outputs": [
        {
          "internalType": "string[]",
          "name": "",
          "type": "string[]"
        }
      ],
      "stateMutability": "view",
      "type": "function"
    },
    {
      "inputs": [],
      "name": "getPendingBills",
      "outputs": [
        {
          "internalType": "string[]",
          "name": "",
          "type": "string[]"
        }
      ],
      "stateMutability": "view",
      "type": "function"
    },
    {
      "inputs": [],
      "name": "getPendingRefund",
      "outputs": [
        {
          "internalType": "uint256",
          "name": "",
          "type": "uint256"
        }
      ],
      "stateMutability": "view",
      "type": "function"
    },
    {
      "inputs": [],
      "name": "height",
      "outputs": [
        {
          "internalType": "uint256",
          "name": "",
          "type": "uint256"
        }
      ],
      "stateMutability": "view",
      "type": "function"
    },
    {
      "inputs": [
        {
          "internalType": "address",
          "name": "docadd",
          "type": "address"
        }
      ],
      "name": "isDoctor",
      "outputs": [
        {
          "internalType": "bool",
          "name": "",
          "type": "bool"
        }
      ],
      "stateMutability": "view",
      "type": "function"
    },
    {
      "inputs": [],
      "name": "name",
      "outputs": [
        {
          "internalType": "string",
          "name": "",
          "type": "string"
        }
      ],
      "stateMutability": "view",
      "type": "function"
    },
    {
      "inputs": [],
      "name": "passBill",
      "outputs": [],
      "stateMutability": "payable",
      "type": "function"
    },
    {
      "inputs": [
        {
          "internalType": "uint256",
          "name": "",
          "type": "uint256"
        }
      ],
      "name": "passedBills",
      "outputs": [
        {
          "internalType": "string",
          "name": "",
          "type": "string"
        }
      ],
      "stateMutability": "view",
      "type": "function"
    },
    {
      "inputs": [
        {
          "internalType": "uint256",
          "name": "",
          "type": "uint256"
        }
      ],
      "name": "pendingBills",
      "outputs": [
        {
          "internalType": "string",
          "name": "",
          "type": "string"
        }
      ],
      "stateMutability": "view",
      "type": "function"
    },
    {
      "inputs": [],
      "name": "pendingRefund",
      "outputs": [
        {
          "internalType": "uint256",
          "name": "",
          "type": "uint256"
        }
      ],
      "stateMutability": "view",
      "type": "function"
    },
    {
      "inputs": [],
      "name": "pid",
      "outputs": [
        {
          "internalType": "uint256",
          "name": "",
          "type": "uint256"
        }
      ],
      "stateMutability": "view",
      "type": "function"
    },
    {
      "inputs": [],
      "name": "walletid",
      "outputs": [
        {
          "internalType": "address payable",
          "name": "",
          "type": "address"
        }
      ],
      "stateMutability": "view",
      "type": "function"
    },
    {
      "inputs": [],
      "name": "weight",
      "outputs": [
        {
          "internalType": "uint256",
          "name": "",
          "type": "uint256"
        }
      ],
      "stateMutability": "view",
      "type": "function"
    }
  ],
  "bytecode": "0x60806040523480156200001157600080fd5b5060405162001f3538038062001f358339818101604052810190620000379190620004b5565b89600190805190602001906200004f92919062000183565b508860028190555087600390805190602001906200006f92919062000183565b5086600490805190602001906200008892919062000183565b5085600581905550846006819055508360079080519060200190620000af92919062000183565b5082600b60006101000a81548173ffffffffffffffffffffffffffffffffffffffff021916908373ffffffffffffffffffffffffffffffffffffffff16021790555081600860006101000a81548173ffffffffffffffffffffffffffffffffffffffff021916908373ffffffffffffffffffffffffffffffffffffffff16021790555080600d60006101000a81548173ffffffffffffffffffffffffffffffffffffffff021916908373ffffffffffffffffffffffffffffffffffffffff160217905550505050505050505050506200068c565b828054620001919062000656565b90600052602060002090601f016020900481019282620001b5576000855562000201565b82601f10620001d057805160ff191683800117855562000201565b8280016001018555821562000201579182015b8281111562000200578251825591602001919060010190620001e3565b5b50905062000210919062000214565b5090565b5b808211156200022f57600081600090555060010162000215565b5090565b6000604051905090565b600080fd5b600080fd5b600080fd5b600080fd5b6000601f19601f8301169050919050565b7f4e487b7100000000000000000000000000000000000000000000000000000000600052604160045260246000fd5b6200029c8262000251565b810181811067ffffffffffffffff82111715620002be57620002bd62000262565b5b80604052505050565b6000620002d362000233565b9050620002e1828262000291565b919050565b600067ffffffffffffffff82111562000304576200030362000262565b5b6200030f8262000251565b9050602081019050919050565b60005b838110156200033c5780820151818401526020810190506200031f565b838111156200034c576000848401525b50505050565b6000620003696200036384620002e6565b620002c7565b9050828152602081018484840111156200038857620003876200024c565b5b620003958482856200031c565b509392505050565b600082601f830112620003b557620003b462000247565b5b8151620003c784826020860162000352565b91505092915050565b6000819050919050565b620003e581620003d0565b8114620003f157600080fd5b50565b6000815190506200040581620003da565b92915050565b600073ffffffffffffffffffffffffffffffffffffffff82169050919050565b600062000438826200040b565b9050919050565b6200044a816200042b565b81146200045657600080fd5b50565b6000815190506200046a816200043f565b92915050565b60006200047d826200040b565b9050919050565b6200048f8162000470565b81146200049b57600080fd5b50565b600081519050620004af8162000484565b92915050565b6000806000806000806000806000806101408b8d031215620004dc57620004db6200023d565b5b60008b015167ffffffffffffffff811115620004fd57620004fc62000242565b5b6200050b8d828e016200039d565b9a505060206200051e8d828e01620003f4565b99505060408b015167ffffffffffffffff81111562000542576200054162000242565b5b620005508d828e016200039d565b98505060608b015167ffffffffffffffff81111562000574576200057362000242565b5b620005828d828e016200039d565b9750506080620005958d828e01620003f4565b96505060a0620005a88d828e01620003f4565b95505060c08b015167ffffffffffffffff811115620005cc57620005cb62000242565b5b620005da8d828e016200039d565b94505060e0620005ed8d828e0162000459565b935050610100620006018d828e0162000459565b925050610120620006158d828e016200049e565b9150509295989b9194979a5092959850565b7f4e487b7100000000000000000000000000000000000000000000000000000000600052602260045260246000fd5b600060028204905060018216806200066f57607f821691505b6020821081141562000686576200068562000627565b5b50919050565b611899806200069c6000396000f3fe60806040526004361061012a5760003560e01c8063996440c6116100ab578063d20f248d1161006f578063d20f248d146103c7578063e0e184be146103f2578063eb4f25fa1461041b578063f106845414610458578063f851a44014610483578063fbef7192146104ae5761012a565b8063996440c6146102ce5780639d4780141461030b578063a1aab33f14610348578063c0adb5d014610373578063c5babf4f1461039c5761012a565b80635e6c7f48116100f25780635e6c7f481461021857806368cd03f61461024357806379caad861461026e5780638c2f1c8c1461029957806393452a4c146102a35761012a565b806306fdde031461012f578063090f610b1461015a5780630ef2674314610185578063369cb959146101b057806352d173a4146101ed575b600080fd5b34801561013b57600080fd5b506101446104d9565b6040516101519190611197565b60405180910390f35b34801561016657600080fd5b5061016f610567565b60405161017c91906111d2565b60405180910390f35b34801561019157600080fd5b5061019a61056d565b6040516101a791906111d2565b60405180910390f35b3480156101bc57600080fd5b506101d760048036038101906101d2919061122d565b610573565b6040516101e49190611197565b60405180910390f35b3480156101f957600080fd5b5061020261061f565b60405161020f9190611366565b60405180910390f35b34801561022457600080fd5b5061022d6106f8565b60405161023a91906111d2565b60405180910390f35b34801561024f57600080fd5b50610258610702565b60405161026591906113c9565b60405180910390f35b34801561027a57600080fd5b50610283610728565b6040516102909190611197565b60405180910390f35b6102a16107b6565b005b3480156102af57600080fd5b506102b86109dc565b6040516102c59190611197565b60405180910390f35b3480156102da57600080fd5b506102f560048036038101906102f09190611410565b610a6a565b6040516103029190611458565b60405180910390f35b34801561031757600080fd5b50610332600480360381019061032d919061122d565b610b19565b60405161033f91906113c9565b60405180910390f35b34801561035457600080fd5b5061035d610b58565b60405161036a91906111d2565b60405180910390f35b34801561037f57600080fd5b5061039a60048036038101906103959190611410565b610b5e565b005b3480156103a857600080fd5b506103b1610bc4565b6040516103be9190611366565b60405180910390f35b3480156103d357600080fd5b506103dc610c9d565b6040516103e99190611197565b60405180910390f35b3480156103fe57600080fd5b50610419600480360381019061041491906115a8565b610d2b565b005b34801561042757600080fd5b50610442600480360381019061043d919061122d565b610e0c565b60405161044f9190611197565b60405180910390f35b34801561046457600080fd5b5061046d610eb8565b60405161047a91906111d2565b60405180910390f35b34801561048f57600080fd5b50610498610ebe565b6040516104a591906113c9565b60405180910390f35b3480156104ba57600080fd5b506104c3610ee4565b6040516104d09190611625565b60405180910390f35b600180546104e69061166f565b80601f01602080910402602001604051908101604052809291908181526020018280546105129061166f565b801561055f5780601f106105345761010080835404028352916020019161055f565b820191906000526020600020905b81548152906001019060200180831161054257829003601f168201915b505050505081565b600c5481565b60055481565b600a818154811061058357600080fd5b90600052602060002001600091509050805461059e9061166f565b80601f01602080910402602001604051908101604052809291908181526020018280546105ca9061166f565b80156106175780601f106105ec57610100808354040283529160200191610617565b820191906000526020600020905b8154815290600101906020018083116105fa57829003601f168201915b505050505081565b60606009805480602002602001604051908101604052809291908181526020016000905b828210156106ef5783829060005260206000200180546106629061166f565b80601f016020809104026020016040519081016040528092919081815260200182805461068e9061166f565b80156106db5780601f106106b0576101008083540402835291602001916106db565b820191906000526020600020905b8154815290600101906020018083116106be57829003601f168201915b505050505081526020019060010190610643565b50505050905090565b6000600c54905090565b600b60009054906101000a900473ffffffffffffffffffffffffffffffffffffffff1681565b600380546107359061166f565b80601f01602080910402602001604051908101604052809291908181526020018280546107619061166f565b80156107ae5780601f10610783576101008083540402835291602001916107ae565b820191906000526020600020905b81548152906001019060200180831161079157829003601f168201915b505050505081565b600b60009054906101000a900473ffffffffffffffffffffffffffffffffffffffff1673ffffffffffffffffffffffffffffffffffffffff163373ffffffffffffffffffffffffffffffffffffffff1614610846576040517f08c379a000000000000000000000000000000000000000000000000000000000815260040161083d906116ed565b60405180910390fd5b600d60009054906101000a900473ffffffffffffffffffffffffffffffffffffffff1673ffffffffffffffffffffffffffffffffffffffff166108fc600c549081150290604051600060405180830381858888f193505050501580156108b0573d6000803e3d6000fd5b5060005b60098054905081101561093157600a600982815481106108d7576108d661170d565b5b90600052602060002001908060018154018082558091505060019003906000526020600020016000909190919091509080546109129061166f565b61091d929190610f0a565b5080806109299061176b565b9150506108b4565b50600067ffffffffffffffff81111561094d5761094c61147d565b5b60405190808252806020026020018201604052801561098057816020015b606081526020019060019003908161096b5790505b5060099080519060200190610996929190610f97565b507f5812d1d1defe497f04e4435407750ca253b84ba856e9057292bc0d13dac5397542600c546040516109ca9291906117b4565b60405180910390a16000600c81905550565b600480546109e99061166f565b80601f0160208091040260200160405190810160405280929190818152602001828054610a159061166f565b8015610a625780601f10610a3757610100808354040283529160200191610a62565b820191906000526020600020905b815481529060010190602001808311610a4557829003601f168201915b505050505081565b600080600090505b600080549050811015610b0e578273ffffffffffffffffffffffffffffffffffffffff1660008281548110610aaa57610aa961170d565b5b9060005260206000200160009054906101000a900473ffffffffffffffffffffffffffffffffffffffff1673ffffffffffffffffffffffffffffffffffffffff161415610afb576001915050610b14565b8080610b069061176b565b915050610a72565b50600090505b919050565b60008181548110610b2957600080fd5b906000526020600020016000915054906101000a900473ffffffffffffffffffffffffffffffffffffffff1681565b60065481565b6000819080600181540180825580915050600190039060005260206000200160009091909190916101000a81548173ffffffffffffffffffffffffffffffffffffffff021916908373ffffffffffffffffffffffffffffffffffffffff16021790555050565b6060600a805480602002602001604051908101604052809291908181526020016000905b82821015610c94578382906000526020600020018054610c079061166f565b80601f0160208091040260200160405190810160405280929190818152602001828054610c339061166f565b8015610c805780601f10610c5557610100808354040283529160200191610c80565b820191906000526020600020905b815481529060010190602001808311610c6357829003601f168201915b505050505081526020019060010190610be8565b50505050905090565b60078054610caa9061166f565b80601f0160208091040260200160405190810160405280929190818152602001828054610cd69061166f565b8015610d235780601f10610cf857610100808354040283529160200191610d23565b820191906000526020600020905b815481529060010190602001808311610d0657829003601f168201915b505050505081565b60011515610d3833610a6a565b151514610d7a576040517f08c379a0000000000000000000000000000000000000000000000000000000008152600401610d71906116ed565b60405180910390fd5b600982908060018154018082558091505060019003906000526020600020016000909190919091509080519060200190610db5929190610ff7565b5080600c6000828254610dc891906117dd565b925050819055507f675016af78705a2591da6c28a48f2ca9468ce65f3711e50acbc799a1a9eb9d844283604051610e00929190611833565b60405180910390a15050565b60098181548110610e1c57600080fd5b906000526020600020016000915090508054610e379061166f565b80601f0160208091040260200160405190810160405280929190818152602001828054610e639061166f565b8015610eb05780601f10610e8557610100808354040283529160200191610eb0565b820191906000526020600020905b815481529060010190602001808311610e9357829003601f168201915b505050505081565b60025481565b600860009054906101000a900473ffffffffffffffffffffffffffffffffffffffff1681565b600d60009054906101000a900473ffffffffffffffffffffffffffffffffffffffff1681565b828054610f169061166f565b90600052602060002090601f016020900481019282610f385760008555610f86565b82601f10610f495780548555610f86565b82800160010185558215610f8657600052602060002091601f016020900482015b82811115610f85578254825591600101919060010190610f6a565b5b509050610f93919061107d565b5090565b828054828255906000526020600020908101928215610fe6579160200282015b82811115610fe5578251829080519060200190610fd5929190610ff7565b5091602001919060010190610fb7565b5b509050610ff3919061109a565b5090565b8280546110039061166f565b90600052602060002090601f016020900481019282611025576000855561106c565b82601f1061103e57805160ff191683800117855561106c565b8280016001018555821561106c579182015b8281111561106b578251825591602001919060010190611050565b5b509050611079919061107d565b5090565b5b8082111561109657600081600090555060010161107e565b5090565b5b808211156110ba57600081816110b191906110be565b5060010161109b565b5090565b5080546110ca9061166f565b6000825580601f106110dc57506110fb565b601f0160209004906000526020600020908101906110fa919061107d565b5b50565b600081519050919050565b600082825260208201905092915050565b60005b8381101561113857808201518184015260208101905061111d565b83811115611147576000848401525b50505050565b6000601f19601f8301169050919050565b6000611169826110fe565b6111738185611109565b935061118381856020860161111a565b61118c8161114d565b840191505092915050565b600060208201905081810360008301526111b1818461115e565b905092915050565b6000819050919050565b6111cc816111b9565b82525050565b60006020820190506111e760008301846111c3565b92915050565b6000604051905090565b600080fd5b600080fd5b61120a816111b9565b811461121557600080fd5b50565b60008135905061122781611201565b92915050565b600060208284031215611243576112426111f7565b5b600061125184828501611218565b91505092915050565b600081519050919050565b600082825260208201905092915050565b6000819050602082019050919050565b600082825260208201905092915050565b60006112a2826110fe565b6112ac8185611286565b93506112bc81856020860161111a565b6112c58161114d565b840191505092915050565b60006112dc8383611297565b905092915050565b6000602082019050919050565b60006112fc8261125a565b6113068185611265565b93508360208202850161131885611276565b8060005b85811015611354578484038952815161133585826112d0565b9450611340836112e4565b925060208a0199505060018101905061131c565b50829750879550505050505092915050565b6000602082019050818103600083015261138081846112f1565b905092915050565b600073ffffffffffffffffffffffffffffffffffffffff82169050919050565b60006113b382611388565b9050919050565b6113c3816113a8565b82525050565b60006020820190506113de60008301846113ba565b92915050565b6113ed816113a8565b81146113f857600080fd5b50565b60008135905061140a816113e4565b92915050565b600060208284031215611426576114256111f7565b5b6000611434848285016113fb565b91505092915050565b60008115159050919050565b6114528161143d565b82525050565b600060208201905061146d6000830184611449565b92915050565b600080fd5b600080fd5b7f4e487b7100000000000000000000000000000000000000000000000000000000600052604160045260246000fd5b6114b58261114d565b810181811067ffffffffffffffff821117156114d4576114d361147d565b5b80604052505050565b60006114e76111ed565b90506114f382826114ac565b919050565b600067ffffffffffffffff8211156115135761151261147d565b5b61151c8261114d565b9050602081019050919050565b82818337600083830152505050565b600061154b611546846114f8565b6114dd565b90508281526020810184848401111561156757611566611478565b5b611572848285611529565b509392505050565b600082601f83011261158f5761158e611473565b5b813561159f848260208601611538565b91505092915050565b600080604083850312156115bf576115be6111f7565b5b600083013567ffffffffffffffff8111156115dd576115dc6111fc565b5b6115e98582860161157a565b92505060206115fa85828601611218565b9150509250929050565b600061160f82611388565b9050919050565b61161f81611604565b82525050565b600060208201905061163a6000830184611616565b92915050565b7f4e487b7100000000000000000000000000000000000000000000000000000000600052602260045260246000fd5b6000600282049050600182168061168757607f821691505b6020821081141561169b5761169a611640565b5b50919050565b7f596f75277265206e6f7420617574686f72697a65640000000000000000000000600082015250565b60006116d7601583611109565b91506116e2826116a1565b602082019050919050565b60006020820190508181036000830152611706816116ca565b9050919050565b7f4e487b7100000000000000000000000000000000000000000000000000000000600052603260045260246000fd5b7f4e487b7100000000000000000000000000000000000000000000000000000000600052601160045260246000fd5b6000611776826111b9565b91507fffffffffffffffffffffffffffffffffffffffffffffffffffffffffffffffff8214156117a9576117a861173c565b5b600182019050919050565b60006040820190506117c960008301856111c3565b6117d660208301846111c3565b9392505050565b60006117e8826111b9565b91506117f3836111b9565b9250827fffffffffffffffffffffffffffffffffffffffffffffffffffffffffffffffff038211156118285761182761173c565b5b828201905092915050565b600060408201905061184860008301856111c3565b818103602083015261185a818461115e565b9050939250505056fea2646970667358221220b9db0f6ca90a9815803d60c32f52c794df167330389276101c75e54f8c07265064736f6c634300080a0033",
  "linkReferences": {},
  "deployedLinkReferences": {}
}