{
  "_format": "hh-sol-artifact-1",
  "contractName": "Patient",
  "sourceName": "contracts/MediLedger.sol",
  "abi": [
    {
      "inputs": [
        {
          "internalType": "string",
          "name": "_name",
          "type": "string"
        },
        {
          "internalType": "uint256",
          "name": "_fid",
          "type": "uint256"
        },
        {
          "internalType": "string",
          "name": "_gender",
          "type": "string"
        },
        {
          "internalType": "string",
          "name": "_allergies",
          "type": "string"
        },
        {
          "internalType": "uint256",
          "name": "_height",
          "type": "uint256"
        },
        {
          "internalType": "uint256",
          "name": "_weight",
          "type": "uint256"
        },
        {
          "internalType": "string",
          "name": "_bloodgrp",
          "type": "string"
        },
        {
          "internalType": "address",
          "name": "_accounts",
          "type": "address"
        },
        {
          "internalType": "address",
          "name": "_admin",
          "type": "address"
        },
        {
          "internalType": "address payable",
          "name": "_walletid",
          "type": "address"
        }
      ],
      "stateMutability": "nonpayable",
      "type": "constructor"
    },
    {
      "anonymous": false,
      "inputs": [
        {
          "indexed": true,
          "internalType": "address",
          "name": "Doctor",
          "type": "address"
        },
        {
          "indexed": true,
          "internalType": "uint256",
          "name": "amount",
          "type": "uint256"
        },
        {
          "indexed": true,
          "internalType": "uint256",
          "name": "timestamp",
          "type": "uint256"
        },
        {
          "indexed": false,
          "internalType": "string",
          "name": "hash",
          "type": "string"
        }
      ],
      "name": "allBills",
      "type": "event"
    },
    {
      "anonymous": false,
      "inputs": [
        {
          "indexed": true,
          "internalType": "uint256",
          "name": "amount",
          "type": "uint256"
        },
        {
          "indexed": true,
          "internalType": "uint256",
          "name": "timestamp",
          "type": "uint256"
        }
      ],
      "name": "refunds",
      "type": "event"
    },
    {
      "inputs": [],
      "name": "accounts",
      "outputs": [
        {
          "internalType": "address",
          "name": "",
          "type": "address"
        }
      ],
      "stateMutability": "view",
      "type": "function"
    },
    {
      "inputs": [
        {
          "internalType": "string",
          "name": "_hash",
          "type": "string"
        },
        {
          "internalType": "uint256",
          "name": "amount",
          "type": "uint256"
        }
      ],
      "name": "addBill",
      "outputs": [],
      "stateMutability": "payable",
      "type": "function"
    },
    {
      "inputs": [],
      "name": "admin",
      "outputs": [
        {
          "internalType": "address",
          "name": "",
          "type": "address"
        }
      ],
      "stateMutability": "view",
      "type": "function"
    },
    {
      "inputs": [
        {
          "internalType": "uint256",
          "name": "",
          "type": "uint256"
        }
      ],
      "name": "allDoctorsWallets",
      "outputs": [
        {
          "internalType": "address",
          "name": "",
          "type": "address"
        }
      ],
      "stateMutability": "view",
      "type": "function"
    },
    {
      "inputs": [],
      "name": "allergies",
      "outputs": [
        {
          "internalType": "string",
          "name": "",
          "type": "string"
        }
      ],
      "stateMutability": "view",
      "type": "function"
    },
    {
      "inputs": [],
      "name": "bloodgrp",
      "outputs": [
        {
          "internalType": "string",
          "name": "",
          "type": "string"
        }
      ],
      "stateMutability": "view",
      "type": "function"
    },
    {
      "inputs": [],
      "name": "gender",
      "outputs": [
        {
          "internalType": "string",
          "name": "",
          "type": "string"
        }
      ],
      "stateMutability": "view",
      "type": "function"
    },
    {
      "inputs": [],
      "name": "height",
      "outputs": [
        {
          "internalType": "uint256",
          "name": "",
          "type": "uint256"
        }
      ],
      "stateMutability": "view",
      "type": "function"
    },
    {
      "inputs": [
        {
          "internalType": "address",
          "name": "docadd",
          "type": "address"
        }
      ],
      "name": "isDoctor",
      "outputs": [
        {
          "internalType": "bool",
          "name": "",
          "type": "bool"
        }
      ],
      "stateMutability": "view",
      "type": "function"
    },
    {
      "inputs": [],
      "name": "name",
      "outputs": [
        {
          "internalType": "string",
          "name": "",
          "type": "string"
        }
      ],
      "stateMutability": "view",
      "type": "function"
    },
    {
      "inputs": [],
      "name": "passBill",
      "outputs": [],
      "stateMutability": "payable",
      "type": "function"
    },
    {
      "inputs": [],
      "name": "pendingRefund",
      "outputs": [
        {
          "internalType": "uint256",
          "name": "",
          "type": "uint256"
        }
      ],
      "stateMutability": "view",
      "type": "function"
    },
    {
      "inputs": [],
      "name": "pid",
      "outputs": [
        {
          "internalType": "uint256",
          "name": "",
          "type": "uint256"
        }
      ],
      "stateMutability": "view",
      "type": "function"
    },
    {
      "inputs": [],
      "name": "walletid",
      "outputs": [
        {
          "internalType": "address payable",
          "name": "",
          "type": "address"
        }
      ],
      "stateMutability": "view",
      "type": "function"
    },
    {
      "inputs": [],
      "name": "weight",
      "outputs": [
        {
          "internalType": "uint256",
          "name": "",
          "type": "uint256"
        }
      ],
      "stateMutability": "view",
      "type": "function"
    }
  ],
  "bytecode": "0x60806040523480156200001157600080fd5b50604051620016323803806200163283398181016040528101906200003791906200052c565b89600090805190602001906200004f929190620001fa565b508860018190555087600290805190602001906200006f929190620001fa565b50866003908051906020019062000088929190620001fa565b5085600481905550846005819055508360069080519060200190620000af929190620001fa565b5082600960006101000a81548173ffffffffffffffffffffffffffffffffffffffff021916908373ffffffffffffffffffffffffffffffffffffffff16021790555081600760006101000a81548173ffffffffffffffffffffffffffffffffffffffff021916908373ffffffffffffffffffffffffffffffffffffffff16021790555080600b60006101000a81548173ffffffffffffffffffffffffffffffffffffffff021916908373ffffffffffffffffffffffffffffffffffffffff160217905550600873e3d5a0ee33bc9e9a047ac9d5d4418379e2e7c0099080600181540180825580915050600190039060005260206000200160009091909190916101000a81548173ffffffffffffffffffffffffffffffffffffffff021916908373ffffffffffffffffffffffffffffffffffffffff1602179055505050505050505050505062000703565b8280546200020890620006cd565b90600052602060002090601f0160209004810192826200022c576000855562000278565b82601f106200024757805160ff191683800117855562000278565b8280016001018555821562000278579182015b82811115620002775782518255916020019190600101906200025a565b5b5090506200028791906200028b565b5090565b5b80821115620002a65760008160009055506001016200028c565b5090565b6000604051905090565b600080fd5b600080fd5b600080fd5b600080fd5b6000601f19601f8301169050919050565b7f4e487b7100000000000000000000000000000000000000000000000000000000600052604160045260246000fd5b6200031382620002c8565b810181811067ffffffffffffffff82111715620003355762000334620002d9565b5b80604052505050565b60006200034a620002aa565b905062000358828262000308565b919050565b600067ffffffffffffffff8211156200037b576200037a620002d9565b5b6200038682620002c8565b9050602081019050919050565b60005b83811015620003b357808201518184015260208101905062000396565b83811115620003c3576000848401525b50505050565b6000620003e0620003da846200035d565b6200033e565b905082815260208101848484011115620003ff57620003fe620002c3565b5b6200040c84828562000393565b509392505050565b600082601f8301126200042c576200042b620002be565b5b81516200043e848260208601620003c9565b91505092915050565b6000819050919050565b6200045c8162000447565b81146200046857600080fd5b50565b6000815190506200047c8162000451565b92915050565b600073ffffffffffffffffffffffffffffffffffffffff82169050919050565b6000620004af8262000482565b9050919050565b620004c181620004a2565b8114620004cd57600080fd5b50565b600081519050620004e181620004b6565b92915050565b6000620004f48262000482565b9050919050565b6200050681620004e7565b81146200051257600080fd5b50565b6000815190506200052681620004fb565b92915050565b6000806000806000806000806000806101408b8d031215620005535762000552620002b4565b5b60008b015167ffffffffffffffff811115620005745762000573620002b9565b5b620005828d828e0162000414565b9a50506020620005958d828e016200046b565b99505060408b015167ffffffffffffffff811115620005b957620005b8620002b9565b5b620005c78d828e0162000414565b98505060608b015167ffffffffffffffff811115620005eb57620005ea620002b9565b5b620005f98d828e0162000414565b97505060806200060c8d828e016200046b565b96505060a06200061f8d828e016200046b565b95505060c08b015167ffffffffffffffff811115620006435762000642620002b9565b5b620006518d828e0162000414565b94505060e0620006648d828e01620004d0565b935050610100620006788d828e01620004d0565b9250506101206200068c8d828e0162000515565b9150509295989b9194979a5092959850565b7f4e487b7100000000000000000000000000000000000000000000000000000000600052602260045260246000fd5b60006002820490506001821680620006e657607f821691505b60208210811415620006fd57620006fc6200069e565b5b50919050565b610f1f80620007136000396000f3fe6080604052600436106100e85760003560e01c8063996440c61161008a578063e0e184be11610059578063e0e184be146102c9578063f1068454146102e5578063f851a44014610310578063fbef71921461033b576100e8565b8063996440c6146101f95780639d47801414610236578063a1aab33f14610273578063d20f248d1461029e576100e8565b806368cd03f6116100c657806368cd03f61461016e57806379caad86146101995780638c2f1c8c146101c457806393452a4c146101ce576100e8565b806306fdde03146100ed578063090f610b146101185780630ef2674314610143575b600080fd5b3480156100f957600080fd5b50610102610366565b60405161010f91906109a4565b60405180910390f35b34801561012457600080fd5b5061012d6103f4565b60405161013a91906109df565b60405180910390f35b34801561014f57600080fd5b506101586103fa565b60405161016591906109df565b60405180910390f35b34801561017a57600080fd5b50610183610400565b6040516101909190610a3b565b60405180910390f35b3480156101a557600080fd5b506101ae610426565b6040516101bb91906109a4565b60405180910390f35b6101cc6104b4565b005b3480156101da57600080fd5b506101e36105ed565b6040516101f091906109a4565b60405180910390f35b34801561020557600080fd5b50610220600480360381019061021b9190610a96565b61067b565b60405161022d9190610ade565b60405180910390f35b34801561024257600080fd5b5061025d60048036038101906102589190610b25565b61072a565b60405161026a9190610a3b565b60405180910390f35b34801561027f57600080fd5b50610288610769565b60405161029591906109df565b60405180910390f35b3480156102aa57600080fd5b506102b361076f565b6040516102c091906109a4565b60405180910390f35b6102e360048036038101906102de9190610c87565b6107fd565b005b3480156102f157600080fd5b506102fa6108b9565b60405161030791906109df565b60405180910390f35b34801561031c57600080fd5b506103256108bf565b6040516103329190610a3b565b60405180910390f35b34801561034757600080fd5b506103506108e5565b60405161035d9190610d04565b60405180910390f35b6000805461037390610d4e565b80601f016020809104026020016040519081016040528092919081815260200182805461039f90610d4e565b80156103ec5780601f106103c1576101008083540402835291602001916103ec565b820191906000526020600020905b8154815290600101906020018083116103cf57829003601f168201915b505050505081565b600a5481565b60045481565b600960009054906101000a900473ffffffffffffffffffffffffffffffffffffffff1681565b6002805461043390610d4e565b80601f016020809104026020016040519081016040528092919081815260200182805461045f90610d4e565b80156104ac5780601f10610481576101008083540402835291602001916104ac565b820191906000526020600020905b81548152906001019060200180831161048f57829003601f168201915b505050505081565b600960009054906101000a900473ffffffffffffffffffffffffffffffffffffffff1673ffffffffffffffffffffffffffffffffffffffff163373ffffffffffffffffffffffffffffffffffffffff1614610544576040517f08c379a000000000000000000000000000000000000000000000000000000000815260040161053b90610dcc565b60405180910390fd5b600b60009054906101000a900473ffffffffffffffffffffffffffffffffffffffff1673ffffffffffffffffffffffffffffffffffffffff166108fc349081150290604051600060405180830381858888f193505050501580156105ac573d6000803e3d6000fd5b506000600a5490506000600a8190555042817f5812d1d1defe497f04e4435407750ca253b84ba856e9057292bc0d13dac5397560405160405180910390a350565b600380546105fa90610d4e565b80601f016020809104026020016040519081016040528092919081815260200182805461062690610d4e565b80156106735780601f1061064857610100808354040283529160200191610673565b820191906000526020600020905b81548152906001019060200180831161065657829003601f168201915b505050505081565b600080600090505b60088054905081101561071f578273ffffffffffffffffffffffffffffffffffffffff16600882815481106106bb576106ba610dec565b5b9060005260206000200160009054906101000a900473ffffffffffffffffffffffffffffffffffffffff1673ffffffffffffffffffffffffffffffffffffffff16141561070c576001915050610725565b808061071790610e4a565b915050610683565b50600090505b919050565b6008818154811061073a57600080fd5b906000526020600020016000915054906101000a900473ffffffffffffffffffffffffffffffffffffffff1681565b60055481565b6006805461077c90610d4e565b80601f01602080910402602001604051908101604052809291908181526020018280546107a890610d4e565b80156107f55780601f106107ca576101008083540402835291602001916107f5565b820191906000526020600020905b8154815290600101906020018083116107d857829003601f168201915b505050505081565b6001151561080a3361067b565b15151461084c576040517f08c379a000000000000000000000000000000000000000000000000000000000815260040161084390610dcc565b60405180910390fd5b80600a600082825461085e9190610e93565b9250508190555042813373ffffffffffffffffffffffffffffffffffffffff167f4230bf8660883c73d75b7b7a6c2ced96026a7b73270666fd718a1051a196ed09856040516108ad91906109a4565b60405180910390a45050565b60015481565b600760009054906101000a900473ffffffffffffffffffffffffffffffffffffffff1681565b600b60009054906101000a900473ffffffffffffffffffffffffffffffffffffffff1681565b600081519050919050565b600082825260208201905092915050565b60005b8381101561094557808201518184015260208101905061092a565b83811115610954576000848401525b50505050565b6000601f19601f8301169050919050565b60006109768261090b565b6109808185610916565b9350610990818560208601610927565b6109998161095a565b840191505092915050565b600060208201905081810360008301526109be818461096b565b905092915050565b6000819050919050565b6109d9816109c6565b82525050565b60006020820190506109f460008301846109d0565b92915050565b600073ffffffffffffffffffffffffffffffffffffffff82169050919050565b6000610a25826109fa565b9050919050565b610a3581610a1a565b82525050565b6000602082019050610a506000830184610a2c565b92915050565b6000604051905090565b600080fd5b600080fd5b610a7381610a1a565b8114610a7e57600080fd5b50565b600081359050610a9081610a6a565b92915050565b600060208284031215610aac57610aab610a60565b5b6000610aba84828501610a81565b91505092915050565b60008115159050919050565b610ad881610ac3565b82525050565b6000602082019050610af36000830184610acf565b92915050565b610b02816109c6565b8114610b0d57600080fd5b50565b600081359050610b1f81610af9565b92915050565b600060208284031215610b3b57610b3a610a60565b5b6000610b4984828501610b10565b91505092915050565b600080fd5b600080fd5b7f4e487b7100000000000000000000000000000000000000000000000000000000600052604160045260246000fd5b610b948261095a565b810181811067ffffffffffffffff82111715610bb357610bb2610b5c565b5b80604052505050565b6000610bc6610a56565b9050610bd28282610b8b565b919050565b600067ffffffffffffffff821115610bf257610bf1610b5c565b5b610bfb8261095a565b9050602081019050919050565b82818337600083830152505050565b6000610c2a610c2584610bd7565b610bbc565b905082815260208101848484011115610c4657610c45610b57565b5b610c51848285610c08565b509392505050565b600082601f830112610c6e57610c6d610b52565b5b8135610c7e848260208601610c17565b91505092915050565b60008060408385031215610c9e57610c9d610a60565b5b600083013567ffffffffffffffff811115610cbc57610cbb610a65565b5b610cc885828601610c59565b9250506020610cd985828601610b10565b9150509250929050565b6000610cee826109fa565b9050919050565b610cfe81610ce3565b82525050565b6000602082019050610d196000830184610cf5565b92915050565b7f4e487b7100000000000000000000000000000000000000000000000000000000600052602260045260246000fd5b60006002820490506001821680610d6657607f821691505b60208210811415610d7a57610d79610d1f565b5b50919050565b7f596f75277265206e6f7420617574686f72697a65640000000000000000000000600082015250565b6000610db6601583610916565b9150610dc182610d80565b602082019050919050565b60006020820190508181036000830152610de581610da9565b9050919050565b7f4e487b7100000000000000000000000000000000000000000000000000000000600052603260045260246000fd5b7f4e487b7100000000000000000000000000000000000000000000000000000000600052601160045260246000fd5b6000610e55826109c6565b91507fffffffffffffffffffffffffffffffffffffffffffffffffffffffffffffffff821415610e8857610e87610e1b565b5b600182019050919050565b6000610e9e826109c6565b9150610ea9836109c6565b9250827fffffffffffffffffffffffffffffffffffffffffffffffffffffffffffffffff03821115610ede57610edd610e1b565b5b82820190509291505056fea2646970667358221220a544b10f46b0ea688ae34023ba62f97669ccbde9bc8791b3e1e02e86692eb3ed64736f6c634300080a0033",
  "linkReferences": {},
  "deployedLinkReferences": {}
}