{
  "_format": "hh-sol-artifact-1",
  "contractName": "Patient",
  "sourceName": "contracts/MediLedger.sol",
  "abi": [
    {
      "inputs": [
        {
          "internalType": "string",
          "name": "_name",
          "type": "string"
        },
        {
          "internalType": "uint256",
          "name": "_fid",
          "type": "uint256"
        },
        {
          "internalType": "string",
          "name": "_gender",
          "type": "string"
        },
        {
          "internalType": "string",
          "name": "_allergies",
          "type": "string"
        },
        {
          "internalType": "uint256",
          "name": "_height",
          "type": "uint256"
        },
        {
          "internalType": "uint256",
          "name": "_weight",
          "type": "uint256"
        },
        {
          "internalType": "string",
          "name": "_bloodgrp",
          "type": "string"
        },
        {
          "internalType": "address",
          "name": "_accounts",
          "type": "address"
        },
        {
          "internalType": "address",
          "name": "_admin",
          "type": "address"
        },
        {
          "internalType": "address payable",
          "name": "_walletid",
          "type": "address"
        }
      ],
      "stateMutability": "nonpayable",
      "type": "constructor"
    },
    {
      "anonymous": false,
      "inputs": [
        {
          "indexed": false,
          "internalType": "uint256",
          "name": "timestamp",
          "type": "uint256"
        },
        {
          "indexed": false,
          "internalType": "string",
          "name": "hash",
          "type": "string"
        }
      ],
      "name": "allBills",
      "type": "event"
    },
    {
      "anonymous": false,
      "inputs": [
        {
          "indexed": false,
          "internalType": "uint256",
          "name": "timestamp",
          "type": "uint256"
        },
        {
          "indexed": false,
          "internalType": "uint256",
          "name": "amount",
          "type": "uint256"
        }
      ],
      "name": "refunds",
      "type": "event"
    },
    {
      "inputs": [],
      "name": "accounts",
      "outputs": [
        {
          "internalType": "address",
          "name": "",
          "type": "address"
        }
      ],
      "stateMutability": "view",
      "type": "function"
    },
    {
      "inputs": [
        {
          "internalType": "string",
          "name": "_hash",
          "type": "string"
        },
        {
          "internalType": "uint256",
          "name": "amount",
          "type": "uint256"
        }
      ],
      "name": "addBill",
      "outputs": [],
      "stateMutability": "payable",
      "type": "function"
    },
    {
      "inputs": [],
      "name": "admin",
      "outputs": [
        {
          "internalType": "address",
          "name": "",
          "type": "address"
        }
      ],
      "stateMutability": "view",
      "type": "function"
    },
    {
      "inputs": [
        {
          "internalType": "uint256",
          "name": "",
          "type": "uint256"
        }
      ],
      "name": "allDoctorsWallets",
      "outputs": [
        {
          "internalType": "address",
          "name": "",
          "type": "address"
        }
      ],
      "stateMutability": "view",
      "type": "function"
    },
    {
      "inputs": [],
      "name": "allergies",
      "outputs": [
        {
          "internalType": "string",
          "name": "",
          "type": "string"
        }
      ],
      "stateMutability": "view",
      "type": "function"
    },
    {
      "inputs": [],
      "name": "bloodgrp",
      "outputs": [
        {
          "internalType": "string",
          "name": "",
          "type": "string"
        }
      ],
      "stateMutability": "view",
      "type": "function"
    },
    {
      "inputs": [],
      "name": "gender",
      "outputs": [
        {
          "internalType": "string",
          "name": "",
          "type": "string"
        }
      ],
      "stateMutability": "view",
      "type": "function"
    },
    {
      "inputs": [],
      "name": "height",
      "outputs": [
        {
          "internalType": "uint256",
          "name": "",
          "type": "uint256"
        }
      ],
      "stateMutability": "view",
      "type": "function"
    },
    {
      "inputs": [
        {
          "internalType": "address",
          "name": "docadd",
          "type": "address"
        }
      ],
      "name": "isDoctor",
      "outputs": [
        {
          "internalType": "bool",
          "name": "",
          "type": "bool"
        }
      ],
      "stateMutability": "view",
      "type": "function"
    },
    {
      "inputs": [],
      "name": "name",
      "outputs": [
        {
          "internalType": "string",
          "name": "",
          "type": "string"
        }
      ],
      "stateMutability": "view",
      "type": "function"
    },
    {
      "inputs": [],
      "name": "passBill",
      "outputs": [],
      "stateMutability": "payable",
      "type": "function"
    },
    {
      "inputs": [
        {
          "internalType": "uint256",
          "name": "",
          "type": "uint256"
        }
      ],
      "name": "passedBills",
      "outputs": [
        {
          "internalType": "string",
          "name": "",
          "type": "string"
        }
      ],
      "stateMutability": "view",
      "type": "function"
    },
    {
      "inputs": [
        {
          "internalType": "uint256",
          "name": "",
          "type": "uint256"
        }
      ],
      "name": "pendingBills",
      "outputs": [
        {
          "internalType": "string",
          "name": "",
          "type": "string"
        }
      ],
      "stateMutability": "view",
      "type": "function"
    },
    {
      "inputs": [],
      "name": "pendingRefund",
      "outputs": [
        {
          "internalType": "uint256",
          "name": "",
          "type": "uint256"
        }
      ],
      "stateMutability": "view",
      "type": "function"
    },
    {
      "inputs": [],
      "name": "pid",
      "outputs": [
        {
          "internalType": "uint256",
          "name": "",
          "type": "uint256"
        }
      ],
      "stateMutability": "view",
      "type": "function"
    },
    {
      "inputs": [],
      "name": "walletid",
      "outputs": [
        {
          "internalType": "address payable",
          "name": "",
          "type": "address"
        }
      ],
      "stateMutability": "view",
      "type": "function"
    },
    {
      "inputs": [],
      "name": "weight",
      "outputs": [
        {
          "internalType": "uint256",
          "name": "",
          "type": "uint256"
        }
      ],
      "stateMutability": "view",
      "type": "function"
    }
  ],
  "bytecode": "0x60806040523480156200001157600080fd5b5060405162001c6738038062001c6783398181016040528101906200003791906200061a565b89600090805190602001906200004f929190620002e8565b508860018190555087600290805190602001906200006f929190620002e8565b50866003908051906020019062000088929190620002e8565b5085600481905550846005819055508360069080519060200190620000af929190620002e8565b5082600b60006101000a81548173ffffffffffffffffffffffffffffffffffffffff021916908373ffffffffffffffffffffffffffffffffffffffff16021790555081600760006101000a81548173ffffffffffffffffffffffffffffffffffffffff021916908373ffffffffffffffffffffffffffffffffffffffff16021790555080600d60006101000a81548173ffffffffffffffffffffffffffffffffffffffff021916908373ffffffffffffffffffffffffffffffffffffffff160217905550600a730afd378421b04eb9dbf6dbd5ac59f48cf43c39129080600181540180825580915050600190039060005260206000200160009091909190916101000a81548173ffffffffffffffffffffffffffffffffffffffff021916908373ffffffffffffffffffffffffffffffffffffffff160217905550600a73c1497a7f53aaab192d5ff344887749cf9dce143c9080600181540180825580915050600190039060005260206000200160009091909190916101000a81548173ffffffffffffffffffffffffffffffffffffffff021916908373ffffffffffffffffffffffffffffffffffffffff160217905550600a7310237067d9a21ddb0381bf2f0bdeefab3020b29b9080600181540180825580915050600190039060005260206000200160009091909190916101000a81548173ffffffffffffffffffffffffffffffffffffffff021916908373ffffffffffffffffffffffffffffffffffffffff16021790555050505050505050505050620007f1565b828054620002f690620007bb565b90600052602060002090601f0160209004810192826200031a576000855562000366565b82601f106200033557805160ff191683800117855562000366565b8280016001018555821562000366579182015b828111156200036557825182559160200191906001019062000348565b5b50905062000375919062000379565b5090565b5b80821115620003945760008160009055506001016200037a565b5090565b6000604051905090565b600080fd5b600080fd5b600080fd5b600080fd5b6000601f19601f8301169050919050565b7f4e487b7100000000000000000000000000000000000000000000000000000000600052604160045260246000fd5b6200040182620003b6565b810181811067ffffffffffffffff82111715620004235762000422620003c7565b5b80604052505050565b60006200043862000398565b9050620004468282620003f6565b919050565b600067ffffffffffffffff821115620004695762000468620003c7565b5b6200047482620003b6565b9050602081019050919050565b60005b83811015620004a157808201518184015260208101905062000484565b83811115620004b1576000848401525b50505050565b6000620004ce620004c8846200044b565b6200042c565b905082815260208101848484011115620004ed57620004ec620003b1565b5b620004fa84828562000481565b509392505050565b600082601f8301126200051a5762000519620003ac565b5b81516200052c848260208601620004b7565b91505092915050565b6000819050919050565b6200054a8162000535565b81146200055657600080fd5b50565b6000815190506200056a816200053f565b92915050565b600073ffffffffffffffffffffffffffffffffffffffff82169050919050565b60006200059d8262000570565b9050919050565b620005af8162000590565b8114620005bb57600080fd5b50565b600081519050620005cf81620005a4565b92915050565b6000620005e28262000570565b9050919050565b620005f481620005d5565b81146200060057600080fd5b50565b6000815190506200061481620005e9565b92915050565b6000806000806000806000806000806101408b8d031215620006415762000640620003a2565b5b60008b015167ffffffffffffffff811115620006625762000661620003a7565b5b620006708d828e0162000502565b9a50506020620006838d828e0162000559565b99505060408b015167ffffffffffffffff811115620006a757620006a6620003a7565b5b620006b58d828e0162000502565b98505060608b015167ffffffffffffffff811115620006d957620006d8620003a7565b5b620006e78d828e0162000502565b9750506080620006fa8d828e0162000559565b96505060a06200070d8d828e0162000559565b95505060c08b015167ffffffffffffffff811115620007315762000730620003a7565b5b6200073f8d828e0162000502565b94505060e0620007528d828e01620005be565b935050610100620007668d828e01620005be565b9250506101206200077a8d828e0162000603565b9150509295989b9194979a5092959850565b7f4e487b7100000000000000000000000000000000000000000000000000000000600052602260045260246000fd5b60006002820490506001821680620007d457607f821691505b60208210811415620007eb57620007ea6200078c565b5b50919050565b61146680620008016000396000f3fe6080604052600436106100fe5760003560e01c8063996440c611610095578063e0e184be11610064578063e0e184be1461031c578063eb4f25fa14610338578063f106845414610375578063f851a440146103a0578063fbef7192146103cb576100fe565b8063996440c61461024c5780639d47801414610289578063a1aab33f146102c6578063d20f248d146102f1576100fe565b806368cd03f6116100d157806368cd03f6146101c157806379caad86146101ec5780638c2f1c8c1461021757806393452a4c14610221576100fe565b806306fdde0314610103578063090f610b1461012e5780630ef2674314610159578063369cb95914610184575b600080fd5b34801561010f57600080fd5b506101186103f6565b6040516101259190610e92565b60405180910390f35b34801561013a57600080fd5b50610143610484565b6040516101509190610ecd565b60405180910390f35b34801561016557600080fd5b5061016e61048a565b60405161017b9190610ecd565b60405180910390f35b34801561019057600080fd5b506101ab60048036038101906101a69190610f28565b610490565b6040516101b89190610e92565b60405180910390f35b3480156101cd57600080fd5b506101d661053c565b6040516101e39190610f96565b60405180910390f35b3480156101f857600080fd5b50610201610562565b60405161020e9190610e92565b60405180910390f35b61021f6105f0565b005b34801561022d57600080fd5b50610236610816565b6040516102439190610e92565b60405180910390f35b34801561025857600080fd5b50610273600480360381019061026e9190610fdd565b6108a4565b6040516102809190611025565b60405180910390f35b34801561029557600080fd5b506102b060048036038101906102ab9190610f28565b610953565b6040516102bd9190610f96565b60405180910390f35b3480156102d257600080fd5b506102db610992565b6040516102e89190610ecd565b60405180910390f35b3480156102fd57600080fd5b50610306610998565b6040516103139190610e92565b60405180910390f35b61033660048036038101906103319190611175565b610a26565b005b34801561034457600080fd5b5061035f600480360381019061035a9190610f28565b610b07565b60405161036c9190610e92565b60405180910390f35b34801561038157600080fd5b5061038a610bb3565b6040516103979190610ecd565b60405180910390f35b3480156103ac57600080fd5b506103b5610bb9565b6040516103c29190610f96565b60405180910390f35b3480156103d757600080fd5b506103e0610bdf565b6040516103ed91906111f2565b60405180910390f35b600080546104039061123c565b80601f016020809104026020016040519081016040528092919081815260200182805461042f9061123c565b801561047c5780601f106104515761010080835404028352916020019161047c565b820191906000526020600020905b81548152906001019060200180831161045f57829003601f168201915b505050505081565b600c5481565b60045481565b600981815481106104a057600080fd5b9060005260206000200160009150905080546104bb9061123c565b80601f01602080910402602001604051908101604052809291908181526020018280546104e79061123c565b80156105345780601f1061050957610100808354040283529160200191610534565b820191906000526020600020905b81548152906001019060200180831161051757829003601f168201915b505050505081565b600b60009054906101000a900473ffffffffffffffffffffffffffffffffffffffff1681565b6002805461056f9061123c565b80601f016020809104026020016040519081016040528092919081815260200182805461059b9061123c565b80156105e85780601f106105bd576101008083540402835291602001916105e8565b820191906000526020600020905b8154815290600101906020018083116105cb57829003601f168201915b505050505081565b600b60009054906101000a900473ffffffffffffffffffffffffffffffffffffffff1673ffffffffffffffffffffffffffffffffffffffff163373ffffffffffffffffffffffffffffffffffffffff1614610680576040517f08c379a0000000000000000000000000000000000000000000000000000000008152600401610677906112ba565b60405180910390fd5b600d60009054906101000a900473ffffffffffffffffffffffffffffffffffffffff1673ffffffffffffffffffffffffffffffffffffffff166108fc600c549081150290604051600060405180830381858888f193505050501580156106ea573d6000803e3d6000fd5b5060005b60088054905081101561076b57600960088281548110610711576107106112da565b5b906000526020600020019080600181540180825580915050600190039060005260206000200160009091909190915090805461074c9061123c565b610757929190610c05565b50808061076390611338565b9150506106ee565b50600067ffffffffffffffff8111156107875761078661104a565b5b6040519080825280602002602001820160405280156107ba57816020015b60608152602001906001900390816107a55790505b50600890805190602001906107d0929190610c92565b507f5812d1d1defe497f04e4435407750ca253b84ba856e9057292bc0d13dac5397542600c54604051610804929190611381565b60405180910390a16000600c81905550565b600380546108239061123c565b80601f016020809104026020016040519081016040528092919081815260200182805461084f9061123c565b801561089c5780601f106108715761010080835404028352916020019161089c565b820191906000526020600020905b81548152906001019060200180831161087f57829003601f168201915b505050505081565b600080600090505b600a80549050811015610948578273ffffffffffffffffffffffffffffffffffffffff16600a82815481106108e4576108e36112da565b5b9060005260206000200160009054906101000a900473ffffffffffffffffffffffffffffffffffffffff1673ffffffffffffffffffffffffffffffffffffffff16141561093557600191505061094e565b808061094090611338565b9150506108ac565b50600090505b919050565b600a818154811061096357600080fd5b906000526020600020016000915054906101000a900473ffffffffffffffffffffffffffffffffffffffff1681565b60055481565b600680546109a59061123c565b80601f01602080910402602001604051908101604052809291908181526020018280546109d19061123c565b8015610a1e5780601f106109f357610100808354040283529160200191610a1e565b820191906000526020600020905b815481529060010190602001808311610a0157829003601f168201915b505050505081565b60011515610a33336108a4565b151514610a75576040517f08c379a0000000000000000000000000000000000000000000000000000000008152600401610a6c906112ba565b60405180910390fd5b600882908060018154018082558091505060019003906000526020600020016000909190919091509080519060200190610ab0929190610cf2565b5080600c6000828254610ac391906113aa565b925050819055507f675016af78705a2591da6c28a48f2ca9468ce65f3711e50acbc799a1a9eb9d844283604051610afb929190611400565b60405180910390a15050565b60088181548110610b1757600080fd5b906000526020600020016000915090508054610b329061123c565b80601f0160208091040260200160405190810160405280929190818152602001828054610b5e9061123c565b8015610bab5780601f10610b8057610100808354040283529160200191610bab565b820191906000526020600020905b815481529060010190602001808311610b8e57829003601f168201915b505050505081565b60015481565b600760009054906101000a900473ffffffffffffffffffffffffffffffffffffffff1681565b600d60009054906101000a900473ffffffffffffffffffffffffffffffffffffffff1681565b828054610c119061123c565b90600052602060002090601f016020900481019282610c335760008555610c81565b82601f10610c445780548555610c81565b82800160010185558215610c8157600052602060002091601f016020900482015b82811115610c80578254825591600101919060010190610c65565b5b509050610c8e9190610d78565b5090565b828054828255906000526020600020908101928215610ce1579160200282015b82811115610ce0578251829080519060200190610cd0929190610cf2565b5091602001919060010190610cb2565b5b509050610cee9190610d95565b5090565b828054610cfe9061123c565b90600052602060002090601f016020900481019282610d205760008555610d67565b82601f10610d3957805160ff1916838001178555610d67565b82800160010185558215610d67579182015b82811115610d66578251825591602001919060010190610d4b565b5b509050610d749190610d78565b5090565b5b80821115610d91576000816000905550600101610d79565b5090565b5b80821115610db55760008181610dac9190610db9565b50600101610d96565b5090565b508054610dc59061123c565b6000825580601f10610dd75750610df6565b601f016020900490600052602060002090810190610df59190610d78565b5b50565b600081519050919050565b600082825260208201905092915050565b60005b83811015610e33578082015181840152602081019050610e18565b83811115610e42576000848401525b50505050565b6000601f19601f8301169050919050565b6000610e6482610df9565b610e6e8185610e04565b9350610e7e818560208601610e15565b610e8781610e48565b840191505092915050565b60006020820190508181036000830152610eac8184610e59565b905092915050565b6000819050919050565b610ec781610eb4565b82525050565b6000602082019050610ee26000830184610ebe565b92915050565b6000604051905090565b600080fd5b600080fd5b610f0581610eb4565b8114610f1057600080fd5b50565b600081359050610f2281610efc565b92915050565b600060208284031215610f3e57610f3d610ef2565b5b6000610f4c84828501610f13565b91505092915050565b600073ffffffffffffffffffffffffffffffffffffffff82169050919050565b6000610f8082610f55565b9050919050565b610f9081610f75565b82525050565b6000602082019050610fab6000830184610f87565b92915050565b610fba81610f75565b8114610fc557600080fd5b50565b600081359050610fd781610fb1565b92915050565b600060208284031215610ff357610ff2610ef2565b5b600061100184828501610fc8565b91505092915050565b60008115159050919050565b61101f8161100a565b82525050565b600060208201905061103a6000830184611016565b92915050565b600080fd5b600080fd5b7f4e487b7100000000000000000000000000000000000000000000000000000000600052604160045260246000fd5b61108282610e48565b810181811067ffffffffffffffff821117156110a1576110a061104a565b5b80604052505050565b60006110b4610ee8565b90506110c08282611079565b919050565b600067ffffffffffffffff8211156110e0576110df61104a565b5b6110e982610e48565b9050602081019050919050565b82818337600083830152505050565b6000611118611113846110c5565b6110aa565b90508281526020810184848401111561113457611133611045565b5b61113f8482856110f6565b509392505050565b600082601f83011261115c5761115b611040565b5b813561116c848260208601611105565b91505092915050565b6000806040838503121561118c5761118b610ef2565b5b600083013567ffffffffffffffff8111156111aa576111a9610ef7565b5b6111b685828601611147565b92505060206111c785828601610f13565b9150509250929050565b60006111dc82610f55565b9050919050565b6111ec816111d1565b82525050565b600060208201905061120760008301846111e3565b92915050565b7f4e487b7100000000000000000000000000000000000000000000000000000000600052602260045260246000fd5b6000600282049050600182168061125457607f821691505b602082108114156112685761126761120d565b5b50919050565b7f596f75277265206e6f7420617574686f72697a65640000000000000000000000600082015250565b60006112a4601583610e04565b91506112af8261126e565b602082019050919050565b600060208201905081810360008301526112d381611297565b9050919050565b7f4e487b7100000000000000000000000000000000000000000000000000000000600052603260045260246000fd5b7f4e487b7100000000000000000000000000000000000000000000000000000000600052601160045260246000fd5b600061134382610eb4565b91507fffffffffffffffffffffffffffffffffffffffffffffffffffffffffffffffff82141561137657611375611309565b5b600182019050919050565b60006040820190506113966000830185610ebe565b6113a36020830184610ebe565b9392505050565b60006113b582610eb4565b91506113c083610eb4565b9250827fffffffffffffffffffffffffffffffffffffffffffffffffffffffffffffffff038211156113f5576113f4611309565b5b828201905092915050565b60006040820190506114156000830185610ebe565b81810360208301526114278184610e59565b9050939250505056fea264697066735822122017370bd00f79eb2986210e2e0490329451af8148efef8a0c937761a733d9f3be64736f6c634300080a0033",
  "linkReferences": {},
  "deployedLinkReferences": {}
}