{
  "_format": "hh-sol-artifact-1",
  "contractName": "Patient",
  "sourceName": "contracts/MediLedger.sol",
  "abi": [
    {
      "inputs": [
        {
          "internalType": "string",
          "name": "_name",
          "type": "string"
        },
        {
          "internalType": "string",
          "name": "_fid",
          "type": "string"
        },
        {
          "internalType": "string",
          "name": "_gender",
          "type": "string"
        },
        {
          "internalType": "string",
          "name": "_allergies",
          "type": "string"
        },
        {
          "internalType": "uint256",
          "name": "_height",
          "type": "uint256"
        },
        {
          "internalType": "uint256",
          "name": "_weight",
          "type": "uint256"
        },
        {
          "internalType": "string",
          "name": "_bloodgrp",
          "type": "string"
        },
        {
          "internalType": "address",
          "name": "_accounts",
          "type": "address"
        },
        {
          "internalType": "address",
          "name": "_admin",
          "type": "address"
        },
        {
          "internalType": "address payable",
          "name": "_walletid",
          "type": "address"
        }
      ],
      "stateMutability": "nonpayable",
      "type": "constructor"
    },
    {
      "anonymous": false,
      "inputs": [
        {
          "indexed": false,
          "internalType": "uint256",
          "name": "timestamp",
          "type": "uint256"
        },
        {
          "indexed": false,
          "internalType": "string",
          "name": "hash",
          "type": "string"
        }
      ],
      "name": "allBills",
      "type": "event"
    },
    {
      "anonymous": false,
      "inputs": [
        {
          "indexed": false,
          "internalType": "uint256",
          "name": "timestamp",
          "type": "uint256"
        },
        {
          "indexed": false,
          "internalType": "uint256",
          "name": "amount",
          "type": "uint256"
        }
      ],
      "name": "refunds",
      "type": "event"
    },
    {
      "inputs": [],
      "name": "accounts",
      "outputs": [
        {
          "internalType": "address",
          "name": "",
          "type": "address"
        }
      ],
      "stateMutability": "view",
      "type": "function"
    },
    {
      "inputs": [
        {
          "internalType": "string",
          "name": "_hash",
          "type": "string"
        },
        {
          "internalType": "uint256",
          "name": "amount",
          "type": "uint256"
        }
      ],
      "name": "addBill",
      "outputs": [],
      "stateMutability": "nonpayable",
      "type": "function"
    },
    {
      "inputs": [
        {
          "internalType": "address",
          "name": "wallet",
          "type": "address"
        }
      ],
      "name": "addDoctorWallet",
      "outputs": [],
      "stateMutability": "nonpayable",
      "type": "function"
    },
    {
      "inputs": [],
      "name": "admin",
      "outputs": [
        {
          "internalType": "address",
          "name": "",
          "type": "address"
        }
      ],
      "stateMutability": "view",
      "type": "function"
    },
    {
      "inputs": [
        {
          "internalType": "uint256",
          "name": "",
          "type": "uint256"
        }
      ],
      "name": "allDoctorsWallets",
      "outputs": [
        {
          "internalType": "address",
          "name": "",
          "type": "address"
        }
      ],
      "stateMutability": "view",
      "type": "function"
    },
    {
      "inputs": [],
      "name": "allergies",
      "outputs": [
        {
          "internalType": "string",
          "name": "",
          "type": "string"
        }
      ],
      "stateMutability": "view",
      "type": "function"
    },
    {
      "inputs": [],
      "name": "bloodgrp",
      "outputs": [
        {
          "internalType": "string",
          "name": "",
          "type": "string"
        }
      ],
      "stateMutability": "view",
      "type": "function"
    },
    {
      "inputs": [],
      "name": "contact",
      "outputs": [
        {
          "internalType": "uint256",
          "name": "",
          "type": "uint256"
        }
      ],
      "stateMutability": "view",
      "type": "function"
    },
    {
      "inputs": [],
      "name": "dob",
      "outputs": [
        {
          "internalType": "string",
          "name": "",
          "type": "string"
        }
      ],
      "stateMutability": "view",
      "type": "function"
    },
    {
      "inputs": [],
      "name": "email",
      "outputs": [
        {
          "internalType": "string",
          "name": "",
          "type": "string"
        }
      ],
      "stateMutability": "view",
      "type": "function"
    },
    {
      "inputs": [],
      "name": "gender",
      "outputs": [
        {
          "internalType": "string",
          "name": "",
          "type": "string"
        }
      ],
      "stateMutability": "view",
      "type": "function"
    },
    {
      "inputs": [],
      "name": "getPassedBills",
      "outputs": [
        {
          "internalType": "string[]",
          "name": "",
          "type": "string[]"
        }
      ],
      "stateMutability": "view",
      "type": "function"
    },
    {
      "inputs": [],
      "name": "getPendingBills",
      "outputs": [
        {
          "internalType": "string[]",
          "name": "",
          "type": "string[]"
        }
      ],
      "stateMutability": "view",
      "type": "function"
    },
    {
      "inputs": [],
      "name": "getPendingRefund",
      "outputs": [
        {
          "internalType": "uint256",
          "name": "",
          "type": "uint256"
        }
      ],
      "stateMutability": "view",
      "type": "function"
    },
    {
      "inputs": [],
      "name": "height",
      "outputs": [
        {
          "internalType": "uint256",
          "name": "",
          "type": "uint256"
        }
      ],
      "stateMutability": "view",
      "type": "function"
    },
    {
      "inputs": [
        {
          "internalType": "address",
          "name": "docadd",
          "type": "address"
        }
      ],
      "name": "isDoctor",
      "outputs": [
        {
          "internalType": "bool",
          "name": "",
          "type": "bool"
        }
      ],
      "stateMutability": "view",
      "type": "function"
    },
    {
      "inputs": [],
      "name": "maritalStatus",
      "outputs": [
        {
          "internalType": "string",
          "name": "",
          "type": "string"
        }
      ],
      "stateMutability": "view",
      "type": "function"
    },
    {
      "inputs": [],
      "name": "name",
      "outputs": [
        {
          "internalType": "string",
          "name": "",
          "type": "string"
        }
      ],
      "stateMutability": "view",
      "type": "function"
    },
    {
      "inputs": [],
      "name": "passBill",
      "outputs": [],
      "stateMutability": "payable",
      "type": "function"
    },
    {
      "inputs": [
        {
          "internalType": "uint256",
          "name": "",
          "type": "uint256"
        }
      ],
      "name": "passedBills",
      "outputs": [
        {
          "internalType": "string",
          "name": "",
          "type": "string"
        }
      ],
      "stateMutability": "view",
      "type": "function"
    },
    {
      "inputs": [
        {
          "internalType": "uint256",
          "name": "",
          "type": "uint256"
        }
      ],
      "name": "pendingBills",
      "outputs": [
        {
          "internalType": "string",
          "name": "",
          "type": "string"
        }
      ],
      "stateMutability": "view",
      "type": "function"
    },
    {
      "inputs": [],
      "name": "pendingRefund",
      "outputs": [
        {
          "internalType": "uint256",
          "name": "",
          "type": "uint256"
        }
      ],
      "stateMutability": "view",
      "type": "function"
    },
    {
      "inputs": [],
      "name": "pid",
      "outputs": [
        {
          "internalType": "string",
          "name": "",
          "type": "string"
        }
      ],
      "stateMutability": "view",
      "type": "function"
    },
    {
      "inputs": [],
      "name": "walletid",
      "outputs": [
        {
          "internalType": "address payable",
          "name": "",
          "type": "address"
        }
      ],
      "stateMutability": "view",
      "type": "function"
    },
    {
      "inputs": [],
      "name": "weight",
      "outputs": [
        {
          "internalType": "uint256",
          "name": "",
          "type": "uint256"
        }
      ],
      "stateMutability": "view",
      "type": "function"
    }
  ],
  "bytecode": "0x60806040523480156200001157600080fd5b50604051620021ae380380620021ae8339818101604052810190620000379190620004c7565b89600190805190602001906200004f92919062000195565b5088600290805190602001906200006892919062000195565b5087600690805190602001906200008192919062000195565b5086600790805190602001906200009a92919062000195565b50856008819055508460098190555083600a9080519060200190620000c192919062000195565b5082600f60006101000a81548173ffffffffffffffffffffffffffffffffffffffff021916908373ffffffffffffffffffffffffffffffffffffffff16021790555081600c60006101000a81548173ffffffffffffffffffffffffffffffffffffffff021916908373ffffffffffffffffffffffffffffffffffffffff16021790555080601160006101000a81548173ffffffffffffffffffffffffffffffffffffffff021916908373ffffffffffffffffffffffffffffffffffffffff16021790555050505050505050505050620006bd565b828054620001a39062000687565b90600052602060002090601f016020900481019282620001c7576000855562000213565b82601f10620001e257805160ff191683800117855562000213565b8280016001018555821562000213579182015b8281111562000212578251825591602001919060010190620001f5565b5b50905062000222919062000226565b5090565b5b808211156200024157600081600090555060010162000227565b5090565b6000604051905090565b600080fd5b600080fd5b600080fd5b600080fd5b6000601f19601f8301169050919050565b7f4e487b7100000000000000000000000000000000000000000000000000000000600052604160045260246000fd5b620002ae8262000263565b810181811067ffffffffffffffff82111715620002d057620002cf62000274565b5b80604052505050565b6000620002e562000245565b9050620002f38282620002a3565b919050565b600067ffffffffffffffff82111562000316576200031562000274565b5b620003218262000263565b9050602081019050919050565b60005b838110156200034e57808201518184015260208101905062000331565b838111156200035e576000848401525b50505050565b60006200037b6200037584620002f8565b620002d9565b9050828152602081018484840111156200039a57620003996200025e565b5b620003a78482856200032e565b509392505050565b600082601f830112620003c757620003c662000259565b5b8151620003d984826020860162000364565b91505092915050565b6000819050919050565b620003f781620003e2565b81146200040357600080fd5b50565b6000815190506200041781620003ec565b92915050565b600073ffffffffffffffffffffffffffffffffffffffff82169050919050565b60006200044a826200041d565b9050919050565b6200045c816200043d565b81146200046857600080fd5b50565b6000815190506200047c8162000451565b92915050565b60006200048f826200041d565b9050919050565b620004a18162000482565b8114620004ad57600080fd5b50565b600081519050620004c18162000496565b92915050565b6000806000806000806000806000806101408b8d031215620004ee57620004ed6200024f565b5b60008b015167ffffffffffffffff8111156200050f576200050e62000254565b5b6200051d8d828e01620003af565b9a505060208b015167ffffffffffffffff81111562000541576200054062000254565b5b6200054f8d828e01620003af565b99505060408b015167ffffffffffffffff81111562000573576200057262000254565b5b620005818d828e01620003af565b98505060608b015167ffffffffffffffff811115620005a557620005a462000254565b5b620005b38d828e01620003af565b9750506080620005c68d828e0162000406565b96505060a0620005d98d828e0162000406565b95505060c08b015167ffffffffffffffff811115620005fd57620005fc62000254565b5b6200060b8d828e01620003af565b94505060e06200061e8d828e016200046b565b935050610100620006328d828e016200046b565b925050610120620006468d828e01620004b0565b9150509295989b9194979a5092959850565b7f4e487b7100000000000000000000000000000000000000000000000000000000600052602260045260246000fd5b60006002820490506001821680620006a057607f821691505b60208210811415620006b757620006b662000658565b5b50919050565b611ae180620006cd6000396000f3fe6080604052600436106101665760003560e01c806393452a4c116100d1578063ce4d6fdf1161008a578063eb4f25fa11610064578063eb4f25fa14610503578063f106845414610540578063f851a4401461056b578063fbef71921461059657610166565b8063ce4d6fdf14610484578063d20f248d146104af578063e0e184be146104da57610166565b806393452a4c14610360578063996440c61461038b5780639d478014146103c8578063a1aab33f14610405578063c0adb5d014610430578063c5babf4f1461045957610166565b806352d173a41161012357806352d173a41461027f5780635e6c7f48146102aa57806368cd03f6146102d557806379caad8614610300578063820e93f51461032b5780638c2f1c8c1461035657610166565b806306fdde031461016b578063090f610b146101965780630ef26743146101c1578063166b0053146101ec57806333a8c45a14610217578063369cb95914610242575b600080fd5b34801561017757600080fd5b506101806105c1565b60405161018d919061144b565b60405180910390f35b3480156101a257600080fd5b506101ab61064f565b6040516101b89190611486565b60405180910390f35b3480156101cd57600080fd5b506101d6610655565b6040516101e39190611486565b60405180910390f35b3480156101f857600080fd5b5061020161065b565b60405161020e919061144b565b60405180910390f35b34801561022357600080fd5b5061022c6106e9565b6040516102399190611486565b60405180910390f35b34801561024e57600080fd5b50610269600480360381019061026491906114e1565b6106ef565b604051610276919061144b565b60405180910390f35b34801561028b57600080fd5b5061029461079b565b6040516102a1919061161a565b60405180910390f35b3480156102b657600080fd5b506102bf610874565b6040516102cc9190611486565b60405180910390f35b3480156102e157600080fd5b506102ea61087e565b6040516102f7919061167d565b60405180910390f35b34801561030c57600080fd5b506103156108a4565b604051610322919061144b565b60405180910390f35b34801561033757600080fd5b50610340610932565b60405161034d919061144b565b60405180910390f35b61035e6109c0565b005b34801561036c57600080fd5b50610375610bb0565b604051610382919061144b565b60405180910390f35b34801561039757600080fd5b506103b260048036038101906103ad91906116c4565b610c3e565b6040516103bf919061170c565b60405180910390f35b3480156103d457600080fd5b506103ef60048036038101906103ea91906114e1565b610ced565b6040516103fc919061167d565b60405180910390f35b34801561041157600080fd5b5061041a610d2c565b6040516104279190611486565b60405180910390f35b34801561043c57600080fd5b50610457600480360381019061045291906116c4565b610d32565b005b34801561046557600080fd5b5061046e610d98565b60405161047b919061161a565b60405180910390f35b34801561049057600080fd5b50610499610e71565b6040516104a6919061144b565b60405180910390f35b3480156104bb57600080fd5b506104c4610eff565b6040516104d1919061144b565b60405180910390f35b3480156104e657600080fd5b5061050160048036038101906104fc919061185c565b610f8d565b005b34801561050f57600080fd5b5061052a600480360381019061052591906114e1565b611038565b604051610537919061144b565b60405180910390f35b34801561054c57600080fd5b506105556110e4565b604051610562919061144b565b60405180910390f35b34801561057757600080fd5b50610580611172565b60405161058d919061167d565b60405180910390f35b3480156105a257600080fd5b506105ab611198565b6040516105b891906118d9565b60405180910390f35b600180546105ce90611923565b80601f01602080910402602001604051908101604052809291908181526020018280546105fa90611923565b80156106475780601f1061061c57610100808354040283529160200191610647565b820191906000526020600020905b81548152906001019060200180831161062a57829003601f168201915b505050505081565b60105481565b60085481565b6004805461066890611923565b80601f016020809104026020016040519081016040528092919081815260200182805461069490611923565b80156106e15780601f106106b6576101008083540402835291602001916106e1565b820191906000526020600020905b8154815290600101906020018083116106c457829003601f168201915b505050505081565b60055481565b600e81815481106106ff57600080fd5b90600052602060002001600091509050805461071a90611923565b80601f016020809104026020016040519081016040528092919081815260200182805461074690611923565b80156107935780601f1061076857610100808354040283529160200191610793565b820191906000526020600020905b81548152906001019060200180831161077657829003601f168201915b505050505081565b6060600d805480602002602001604051908101604052809291908181526020016000905b8282101561086b5783829060005260206000200180546107de90611923565b80601f016020809104026020016040519081016040528092919081815260200182805461080a90611923565b80156108575780601f1061082c57610100808354040283529160200191610857565b820191906000526020600020905b81548152906001019060200180831161083a57829003601f168201915b5050505050815260200190600101906107bf565b50505050905090565b6000601054905090565b600f60009054906101000a900473ffffffffffffffffffffffffffffffffffffffff1681565b600680546108b190611923565b80601f01602080910402602001604051908101604052809291908181526020018280546108dd90611923565b801561092a5780601f106108ff5761010080835404028352916020019161092a565b820191906000526020600020905b81548152906001019060200180831161090d57829003601f168201915b505050505081565b6003805461093f90611923565b80601f016020809104026020016040519081016040528092919081815260200182805461096b90611923565b80156109b85780601f1061098d576101008083540402835291602001916109b8565b820191906000526020600020905b81548152906001019060200180831161099b57829003601f168201915b505050505081565b600f60009054906101000a900473ffffffffffffffffffffffffffffffffffffffff1673ffffffffffffffffffffffffffffffffffffffff163373ffffffffffffffffffffffffffffffffffffffff1614610a1a57600080fd5b601160009054906101000a900473ffffffffffffffffffffffffffffffffffffffff1673ffffffffffffffffffffffffffffffffffffffff166108fc6010549081150290604051600060405180830381858888f19350505050158015610a84573d6000803e3d6000fd5b5060005b600d80549050811015610b0557600e600d8281548110610aab57610aaa611955565b5b9060005260206000200190806001815401808255809150506001900390600052602060002001600090919091909150908054610ae690611923565b610af19291906111be565b508080610afd906119b3565b915050610a88565b50600067ffffffffffffffff811115610b2157610b20611731565b5b604051908082528060200260200182016040528015610b5457816020015b6060815260200190600190039081610b3f5790505b50600d9080519060200190610b6a92919061124b565b507f5812d1d1defe497f04e4435407750ca253b84ba856e9057292bc0d13dac5397542601054604051610b9e9291906119fc565b60405180910390a16000601081905550565b60078054610bbd90611923565b80601f0160208091040260200160405190810160405280929190818152602001828054610be990611923565b8015610c365780601f10610c0b57610100808354040283529160200191610c36565b820191906000526020600020905b815481529060010190602001808311610c1957829003601f168201915b505050505081565b600080600090505b600080549050811015610ce2578273ffffffffffffffffffffffffffffffffffffffff1660008281548110610c7e57610c7d611955565b5b9060005260206000200160009054906101000a900473ffffffffffffffffffffffffffffffffffffffff1673ffffffffffffffffffffffffffffffffffffffff161415610ccf576001915050610ce8565b8080610cda906119b3565b915050610c46565b50600090505b919050565b60008181548110610cfd57600080fd5b906000526020600020016000915054906101000a900473ffffffffffffffffffffffffffffffffffffffff1681565b60095481565b6000819080600181540180825580915050600190039060005260206000200160009091909190916101000a81548173ffffffffffffffffffffffffffffffffffffffff021916908373ffffffffffffffffffffffffffffffffffffffff16021790555050565b6060600e805480602002602001604051908101604052809291908181526020016000905b82821015610e68578382906000526020600020018054610ddb90611923565b80601f0160208091040260200160405190810160405280929190818152602001828054610e0790611923565b8015610e545780601f10610e2957610100808354040283529160200191610e54565b820191906000526020600020905b815481529060010190602001808311610e3757829003601f168201915b505050505081526020019060010190610dbc565b50505050905090565b600b8054610e7e90611923565b80601f0160208091040260200160405190810160405280929190818152602001828054610eaa90611923565b8015610ef75780601f10610ecc57610100808354040283529160200191610ef7565b820191906000526020600020905b815481529060010190602001808311610eda57829003601f168201915b505050505081565b600a8054610f0c90611923565b80601f0160208091040260200160405190810160405280929190818152602001828054610f3890611923565b8015610f855780601f10610f5a57610100808354040283529160200191610f85565b820191906000526020600020905b815481529060010190602001808311610f6857829003601f168201915b505050505081565b60011515610f9a33610c3e565b151514610fa657600080fd5b600d82908060018154018082558091505060019003906000526020600020016000909190919091509080519060200190610fe19291906112ab565b508060106000828254610ff49190611a25565b925050819055507f675016af78705a2591da6c28a48f2ca9468ce65f3711e50acbc799a1a9eb9d84428360405161102c929190611a7b565b60405180910390a15050565b600d818154811061104857600080fd5b90600052602060002001600091509050805461106390611923565b80601f016020809104026020016040519081016040528092919081815260200182805461108f90611923565b80156110dc5780601f106110b1576101008083540402835291602001916110dc565b820191906000526020600020905b8154815290600101906020018083116110bf57829003601f168201915b505050505081565b600280546110f190611923565b80601f016020809104026020016040519081016040528092919081815260200182805461111d90611923565b801561116a5780601f1061113f5761010080835404028352916020019161116a565b820191906000526020600020905b81548152906001019060200180831161114d57829003601f168201915b505050505081565b600c60009054906101000a900473ffffffffffffffffffffffffffffffffffffffff1681565b601160009054906101000a900473ffffffffffffffffffffffffffffffffffffffff1681565b8280546111ca90611923565b90600052602060002090601f0160209004810192826111ec576000855561123a565b82601f106111fd578054855561123a565b8280016001018555821561123a57600052602060002091601f016020900482015b8281111561123957825482559160010191906001019061121e565b5b5090506112479190611331565b5090565b82805482825590600052602060002090810192821561129a579160200282015b828111156112995782518290805190602001906112899291906112ab565b509160200191906001019061126b565b5b5090506112a7919061134e565b5090565b8280546112b790611923565b90600052602060002090601f0160209004810192826112d95760008555611320565b82601f106112f257805160ff1916838001178555611320565b82800160010185558215611320579182015b8281111561131f578251825591602001919060010190611304565b5b50905061132d9190611331565b5090565b5b8082111561134a576000816000905550600101611332565b5090565b5b8082111561136e57600081816113659190611372565b5060010161134f565b5090565b50805461137e90611923565b6000825580601f1061139057506113af565b601f0160209004906000526020600020908101906113ae9190611331565b5b50565b600081519050919050565b600082825260208201905092915050565b60005b838110156113ec5780820151818401526020810190506113d1565b838111156113fb576000848401525b50505050565b6000601f19601f8301169050919050565b600061141d826113b2565b61142781856113bd565b93506114378185602086016113ce565b61144081611401565b840191505092915050565b600060208201905081810360008301526114658184611412565b905092915050565b6000819050919050565b6114808161146d565b82525050565b600060208201905061149b6000830184611477565b92915050565b6000604051905090565b600080fd5b600080fd5b6114be8161146d565b81146114c957600080fd5b50565b6000813590506114db816114b5565b92915050565b6000602082840312156114f7576114f66114ab565b5b6000611505848285016114cc565b91505092915050565b600081519050919050565b600082825260208201905092915050565b6000819050602082019050919050565b600082825260208201905092915050565b6000611556826113b2565b611560818561153a565b93506115708185602086016113ce565b61157981611401565b840191505092915050565b6000611590838361154b565b905092915050565b6000602082019050919050565b60006115b08261150e565b6115ba8185611519565b9350836020820285016115cc8561152a565b8060005b8581101561160857848403895281516115e98582611584565b94506115f483611598565b925060208a019950506001810190506115d0565b50829750879550505050505092915050565b6000602082019050818103600083015261163481846115a5565b905092915050565b600073ffffffffffffffffffffffffffffffffffffffff82169050919050565b60006116678261163c565b9050919050565b6116778161165c565b82525050565b6000602082019050611692600083018461166e565b92915050565b6116a18161165c565b81146116ac57600080fd5b50565b6000813590506116be81611698565b92915050565b6000602082840312156116da576116d96114ab565b5b60006116e8848285016116af565b91505092915050565b60008115159050919050565b611706816116f1565b82525050565b600060208201905061172160008301846116fd565b92915050565b600080fd5b600080fd5b7f4e487b7100000000000000000000000000000000000000000000000000000000600052604160045260246000fd5b61176982611401565b810181811067ffffffffffffffff8211171561178857611787611731565b5b80604052505050565b600061179b6114a1565b90506117a78282611760565b919050565b600067ffffffffffffffff8211156117c7576117c6611731565b5b6117d082611401565b9050602081019050919050565b82818337600083830152505050565b60006117ff6117fa846117ac565b611791565b90508281526020810184848401111561181b5761181a61172c565b5b6118268482856117dd565b509392505050565b600082601f83011261184357611842611727565b5b81356118538482602086016117ec565b91505092915050565b60008060408385031215611873576118726114ab565b5b600083013567ffffffffffffffff811115611891576118906114b0565b5b61189d8582860161182e565b92505060206118ae858286016114cc565b9150509250929050565b60006118c38261163c565b9050919050565b6118d3816118b8565b82525050565b60006020820190506118ee60008301846118ca565b92915050565b7f4e487b7100000000000000000000000000000000000000000000000000000000600052602260045260246000fd5b6000600282049050600182168061193b57607f821691505b6020821081141561194f5761194e6118f4565b5b50919050565b7f4e487b7100000000000000000000000000000000000000000000000000000000600052603260045260246000fd5b7f4e487b7100000000000000000000000000000000000000000000000000000000600052601160045260246000fd5b60006119be8261146d565b91507fffffffffffffffffffffffffffffffffffffffffffffffffffffffffffffffff8214156119f1576119f0611984565b5b600182019050919050565b6000604082019050611a116000830185611477565b611a1e6020830184611477565b9392505050565b6000611a308261146d565b9150611a3b8361146d565b9250827fffffffffffffffffffffffffffffffffffffffffffffffffffffffffffffffff03821115611a7057611a6f611984565b5b828201905092915050565b6000604082019050611a906000830185611477565b8181036020830152611aa28184611412565b9050939250505056fea26469706673582212200710433c8d46ff1334c98e77d9190a78b803469fa52858c71c393c9c64e3fc7364736f6c634300080a0033",
  "linkReferences": {},
  "deployedLinkReferences": {}
}